:1000000000800020BD01000091BA000049BA000044
:1000100049BA000049BA000049BA000049BA0000D4
:1000200049BA000049BA000049BA000091BA00007C
:1000300091BA000049BA000079E000007DE10000BB
:1000400091BA000091BA000091BA000091BA000084
:1000500091BA000091BA000091BA000091BA000074
:1000600091BA000091BA000091BA000091BA000064
:1000700091BA000091BA000091BA000091BA000054
:1000800091BA000091BA000091BA000091BA000044
:1000900091BA00004D8BFF1F91BA000091BA000089
:1000A0004DA7000059A7000091BA000091BA0000C6
:1000B00091BA000091BA000091BA000091BA000014
:1000C00091BA000091BA000091BA000091BA000004
:1000D00091BA000091BA000091BA000091BA0000F4
:1000E00091BA000091BA000091BA000091BA0000E4
:1000F00091BA0000E5C8000091BA0000F1CC000000
:1001000091BA00007DE7000091BA000091BA0000AA
:1001100091BA000091BA000091BA000091BA0000B3
:1001200091BA000091BA000091BA000091BA0000A3
:1001300091BA000091BA000091BA000091BA000093
:1001400091BA000091BA000091BA000091BA000083
:1001500055E3000069E300007DE3000091E3000047
:1001600091BA0000B5CF000091BA000091BA00002A
:1001700091BA000091BA000091BA000091BA000053
:1001800091BA000091BA000091BA000091BA000043
:1001900091BA000091BA000091BA000091BA000033
:1001A00091BA000091BA000091BA000091BA000023
:1001B00091BA000091BA000091BA0000564B4CF27F
:1001C000205210B51A804DF628121A8000BF00BFC9
:1001D0000AF0FEFC514B4FF010621A60504A9A60D0
:1001E000504ADA60504A136813F4807304D14F49BF
:1001F0000B604FF4A85313604D4B1A78110703D5C9
:100200001A7842F008021A704A4B4B492A221A7097
:100210004A4A4B4B8B4204D252F8040F43F8040B6A
:10022000F8E7484B484900228B4202D243F8042B9E
:10023000FAE74649464A002352F8230041F82300D2
:1002400001336F2BF8D1434B434A802103F8011B44
:100250009342FBD1414B3D4A1A60414B8A221A70AE
:10026000A3F5805324225A70A0221A709A7992071B
:10027000FCD59A79D406FCD43A4A937903F00C035E
:10028000082B384BF9D103221A7140225A719A79FE
:100290009006FCD5334A9179324B4906FBD5324A58
:1002A000324911600221516020221A709A7902F0BD
:1002B0000C020C2AFAD12E4B2E4A1A602E4B2F4AD2
:1002C0001A6000225A60072243F8042C2C4AC3F813
:1002D0000C2D62B60BF068FF144B1B68DA0705D5CE
:1002E00028480BF035FD284B284A1A60284B1B780C
:1002F0005B0609D5244C254B22689A4204D121483B
:100300000BF026FD0023236010F09EF80BF0C4FBD9
:100310000EF08EF9FEE700BF0E200540308004404D
:10032000823F04000100002B10D0034014D0034092
:1003300002D0074000E00740D09FFF1F60A10100EE
:100340002089FF1FD09FFF1F90A6FF1F0084FF1F63
:100350000000000000E400E05FE400E008ED00E0E1
:100360000050064000400640448004400000030165
:1003700004800440C010050014E000E0FF76010096
:1003800000002020F6ACB8611CE00340A5C3945ADD
:1003900000F00740FFFFFFFFFFFFFFFFFFFFFFFF32
:1003A000FFFFFFFFFFFFFFFFFFFFFFFFFFFFFFFF5D
:1003B000FFFFFFFFFFFFFFFFFFFFFFFFFFFFFFFF4D
:1003C000FFFFFFFFFFFFFFFFFFFFFFFFFFFFFFFF3D
:1003D000FFFFFFFFFFFFFFFFFFFFFFFFFFFFFFFF2D
:1003E000FFFFFFFFFFFFFFFFFFFFFFFFFFFFFFFF1D
:1003F000FFFFFFFFFFFFFFFFFFFFFFFFFFFFFFFF0D
:10040000FFFFFFFFFFFFFFFFFFFFFFFFDEF9FFFF23
:1004100010B5054C237833B9044B13B10448AFF33E
:1004200000800123237010BDD09FFF1F000000003B
:100430005CA10100084B10B51BB108490848AFF397
:1004400000800848036803B910BD074B002BFBD0A0
:10045000BDE81040184700BF00000000D49FFF1FF8
:100460005CA10100D09FFF1F0000000008B5012122
:1004700028200BF023FE0C200BF07AFD2820002111
:100480000BF078FC08BD00BFF8B5431E092B14D84B
:10049000124C07460E461A2004F1090501E014F833
:1004A000010F00210BF00AFEAC42F8D136B93146FB
:1004B0002820BDE8F8400BF05DBCF8BD084BDC5DC2
:1004C000012120460BF0FAFD204600210BF0E2FD51
:1004D00031462820BDE8F8400BF04CBCC582010035
:1004E000C4820100704700BF00207047014B012209
:1004F0001A707047548EFF1F38B51A4C206830B3FD
:1005000008F03EFB2068184908F098FA206817495F
:1005100008F0B8FA2068002108F026FB20684FF4A4
:10052000004108F055FB206847F6FF7108F05EFBBC
:100530000221206808F068FB206808F03FFB206873
:1005400008F040FA0C20BDE838400BF011BD102037
:100550000EF076F8064A0749054608F02BFA2560A2
:100560002846CDE7EC9FFF1F000016440000204105
:10057000059300004993000008B5024B18680FF07E
:100580003FFD08BD34A1FF1F2DE9F84302225A495F
:100590005A4E00200BF016FBFFF7AEFF05F0A8FD4A
:1005A00005F090FEA6240A21554805F00DFF00280D
:1005B00040F0818002200BF0A9FDB4F5805FA8BF58
:1005C0000024214628200BF0D5FB02200BF09EFDD5
:1005D0003378002B71D04B4D02200BF097FD28682B
:1005E00008F02AFB0028DED002200BF08FFD2868DF
:1005F00008F0E4FA01232868337008F031FB07465D
:10060000286808F041FB8146286808F051FB8046C5
:10061000286808F061FB054602200BF077FD3A4898
:1006200005F046FE394805F043FE484605F02CFE2D
:10063000374805F085FD404605F026FE354805F0B3
:100640007FFD284605F020FE324805F079FD38464A
:1006500005F01AFE304805F073FD204605F004FE53
:100660002E4805F06DFD38460FF0ACFA2C490FF01E
:1006700001FB0FF0C5FC05F0F7FD8A2F21D9932F60
:100680002BD88B2F01D9922F31D9264805F058FD50
:10069000254805F055FD932005F0E6FD234805F0BB
:1006A0004FFD8B2005F0E0FD0A21154805F08CFE7A
:1006B00000283FF47FAFBDE8F8831D4805F0F8FD42
:1006C00071E70134214628200BF054FB204605F049
:1006D000F9FD0A200BF01AFDD7E7013C214628203E
:1006E0000BF048FB0A200BF011FD922FCDD81148DA
:1006F00005F026FD57E700BFED040000548EFF1FF4
:10070000D0820100EC9FFF1FD4820100EC82010027
:1007100020830100248301002C8301003483010025
:100720003333333F4C830100608301007083010049
:10073000808301003C83010010B50822C6490446AD
:1007400011F08CFA002800F02F82C449204611F0E5
:100750004BF8002800F02582C149204611F044F8EA
:10076000002800F03382BF49204611F03DF80028F0
:1007700000F02982BC49204611F036F8002800F02C
:100780002882BA49204611F02FF8002800F027826D
:10079000B749204611F028F8002800F01D82B5491D
:1007A000204611F021F8002800F01C82B2492046B2
:1007B00011F01AF8002800F01882B049204611F014
:1007C00013F8002800F01482AD49204611F00CF80F
:1007D000002800F01082AB49204611F005F80028EF
:1007E00000F00C82A849204610F0FEFF002800F01F
:1007F0000882A649204610F0F7FF002800F0048286
:10080000A349204610F0F0FF002800F00082A14923
:10081000204610F0E9FF002800F0FC819E492046A8
:1008200010F0E2FF002800F0F8819C49204610F00B
:10083000DBFF002800F0F7819949204610F0D4FF33
:10084000002800F0ED819749204610F0CDFF0028E8
:1008500000F036829449204610F0C6FF002800F0D0
:100860002C829249204610F0BFFF002800F0208221
:100870008F49204610F0B8FF002800F016828D49FD
:10088000204610F0B1FF002800F035838A49204649
:1008900010F0AAFF002800F02B838849204610F0B2
:1008A000A3FF002800F021838549204610F09CFF1B
:1008B000002800F017838349204610F095FF002898
:1008C00000F00D838049204610F08EFF002800F0D4
:1008D00003837E49204610F087FF002800F0F9824C
:1008E0007B49204610F080FF002800F0EF82794914
:1008F000204610F079FF002800F0E5827649204676
:1009000010F072FF002800F0DB827449204610F0DE
:100910006BFF002800F0D1827149204610F064FF7F
:10092000002800F0C7826F49204610F05DFF0028C4
:1009300000F0BD826C49204610F056FF002800F000
:10094000B3826A49204610F04FFF002800F0A982C8
:100950006749204610F048FF002800F09F82654953
:10096000204610F041FF002800F0958262492046A1
:1009700010F03AFF002800F08B826049204610F00A
:1009800033FF002800F081825D49204610F02CFFE3
:10099000002800F0778216225A49204611F05EF9AD
:1009A000002800F0618215225749204611F056F9BF
:1009B000002800F00E8208225449204611F04EF91A
:1009C000002800F0F88107225149204611F046F92D
:1009D000002800F0E48109224E49204611F03EF93A
:1009E000002800F0CE8108224B49204611F036F94C
:1009F000002800F0B9810F224849204611F02EF955
:100A0000002800F0A3810E224549204611F026F966
:100A1000002800F08E8110224249204611F01EF974
:100A2000002800F078810F223F49204611F016F986
:100A3000002800F0638109223C49204611F00EF99C
:100A4000002800F04D810A223949204611F006F9AC
:100A5000002800F038816DE0908301009C83010044
:100A6000AC830100C8830100DC830100D08C01004D
:100A7000FC830100088401000C840100188401003B
:100A80001C84010028840100388401005084010086
:100A9000608401007884010088840100A084010042
:100AA000B4840100D0840100DC840100F0840100E2
:100AB00000850100188501002485010030850100B2
:100AC0003C85010040850100588501006C850100CE
:100AD000808501009085010094850100A4850100B6
:100AE000B0850100C8850100D8850100F0850100AE
:100AF000FC850100108601001C8601003086010083
:100B00003C86010050860100688601008086010055
:100B10008C86010094860100A0860100AC8601004D
:100B2000BC860100CC860100E0860100F086010051
:100B3000FC8601000922AE49204611F08FF80028FA
:100B400000F0A6800922AB49204611F087F8002862
:100B500000F092800922A849204611F07FF8002871
:100B60007DD01022A549204611F078F800286AD0DF
:100B70001022A349204611F071F8002856D0102207
:100B8000A049204611F06AF8D8B904F110000FF01E
:100B900047FC0A2815D89C4BB2301B6853F820003C
:100BA00010BD9A4B186810BD04F108000FF038FC16
:100BB000452806D8944B1B68BC3003EB8000406886
:100BC00010BD934810BD934B186810BD924B186828
:100BD00010BD924B186810BD914B186810BD914B19
:100BE000186810BD904B186810BD904B186810BD68
:100BF0008F4B186810BD8F4B186810BD8E4B18684E
:100C000010BD8E4B186810BD8D4B186810BD8D4BF4
:100C1000186810BD8C4B186810BD8C4B186810BD3F
:100C20008B4B186810BD8B4B186810BD04F1100079
:100C30000FF0F6FB0A28C4D8734B1B68A63003EBF1
:100C40008000406810BD04F110000FF0E9FB0A2895
:100C5000B7D86D4B9C301B6853F8200010BD04F1D1
:100C600009000FF0DDFB0A28ABD8674B1B689030FA
:100C700003EB8000406810BD04F109000FF0D0FBC9
:100C80000A289ED8604B86301B6853F8200010BDA0
:100C900004F109000FF0C4FB0A2892D85A4B1B68D4
:100CA0007A3003EB8000406810BD6B4B186810BDB4
:100CB0006A4B18680EF08AFF10BD694B186810BDAA
:100CC000684B186810BD04F10A000FF0A9FB0A2850
:100CD0003FF677AF4C4B70301B6853F8200010BDC7
:100CE00004F109000FF09CFB0A283FF66AAF464B5F
:100CF0001B68643003EB8000406810BD04F10F00F6
:100D00000FF08EFB0A283FF65CAF3F4B5A301B6852
:100D100053F8200010BD04F110000FF081FB0A28E9
:100D20003FF64FAF384B1B684E3003EB80004068F6
:100D300010BD04F10E000FF073FB0A283FF641AF1F
:100D4000314B2E301B6853F8200010BD04F10F000A
:100D50000FF066FB0A283FF634AF2B4B1B6822309E
:100D600003EB8000406810BD04F108000FF058FB51
:100D70000A283FF626AF244B44301B6853F8200066
:100D800010BD04F109000FF04BFB0A283FF619AF24
:100D90001D4B1B68383003EB8000406810BDE01D20
:100DA0000FF03EFB0A283FF60CAF174B18301B68BC
:100DB00053F8200010BD04F108000FF031FB0A28A1
:100DC0003FF6FFAE104B1B680C3003EB8000406811
:100DD00010BD04F115000FF023FB03283FF6F1AE20
:100DE000094B1B68063003EB8000406810BD00BF54
:100DF0000887010014870100208701002C8701006B
:100E000040870100548701005C8EFF1F34A1FF1F43
:100E10000000C07FCCA0FF1F18A1FF1F1CA1FF1F57
:100E2000A8A0FF1FBCA0FF1F28A0FF1F20A1FF1F1D
:100E300018A0FF1FDCA0FF1F40A1FF1F50A1FF1F34
:100E400044A1FF1F28A1FF1F48A1FF1F0CA1FF1FE6
:100E500014A0FF1FECA0FF1FC8A0FF1F38A1FF1F99
:100E6000F0A0FF1FB8A0FF1F04F116000FF0D8FA82
:100E700003283FF6A6AE214B1B68023003EB80002F
:100E8000406810BD1E4B186810BD1E4B186810BD81
:100E90001D4B186810BD1D4B186810BD1C4B186801
:100EA00010BD1C4B186810BD1B4B186810BD1B4BA8
:100EB000186810BD1A4B186810BD1A4B186810BD81
:100EC000194B186810BD194B186810BD184B1868DD
:100ED00010BD184B186810BD174B186810BD174B84
:100EE000186810BD164B186810BD164B186810BD59
:100EF000154B186810BD154B186810BD5C8EFF1F90
:100F000054A1FF1F14A1FF1FA4A0FF1F10A1FF1FCA
:100F100024A1FF1F30A1FF1FC0A0FF1FE4A0FF1FDF
:100F2000ACA0FF1F10A0FF1F08A1FF1F4CA1FF1FB7
:100F3000B4A0FF1F1CA0FF1FB0A0FF1FD8A0FF1F61
:100F40003CA1FF1FE8A0FF1FD0A0FF1FD4A0FF1FE0
:100F50002DE9F043DFF8F480D8F8009009F101069C
:100F6000C8F8006099F80040282C8FB062D0A4F136
:100F70002B03DBB20E2B05D847F6ED7222FA03F3F2
:100F8000DB0724D420460FF091FA002843D0C8F89C
:100F90000090344614F8015B28460FF07DFA05F006
:100FA000FB03074650BB5B2B28D05D2D26D0C9EB39
:100FB00006042246494601A810F0A0FE0EAB1C44D0
:100FC00001A804F8347CFFF7B7FB044608E0484664
:100FD000414611F053FE0EF0EFFCD8F800600446D5
:100FE000731CC8F800303378184A2A2B17D02F2BDF
:100FF00006D0204616600FB0BDE8F0832646C8E74D
:10100000FFF7A6FF014620460EF0E8FE0446204604
:101010000FB0BDE8F0835F2CB9D00D4CE0E7FFF7CF
:1010200097FF014620460EF025FE044620460FB0ED
:10103000BDE8F08300F00EF8D8F800305E1CC8F868
:1010400000601B78292B0446E7D1C9E7F09FFF1FFA
:101050000000C07F10B5FFF77BFF0F4B1A68511CD3
:10106000196011782D29044604D02B290BD01A6061
:10107000204610BDFFF7EEFF014620460EF0F0FCC3
:101080000446204610BDFFF7E5FF014620460EF05E
:10109000E9FC0446204610BDF09FFF1F014B18607D
:1010A000FFF7D8BFF09FFF1F38B5114D4FF4003048
:1010B00000F5006484420ED955F8043C013306D192
:1010C0002B469C4207D953F8042B0132F9D000215A
:1010D00019F032F830B9B4F57E3F05F500652046C9
:1010E000E6D138BD0146034805F088F8F3E700BFB4
:1010F00004000200688701002DE9F04100241C6013
:1011000006783A2E84B003D0002004B0BDE8F08108
:1011100090460F4606461D4610F032FD0A2803D8B9
:10112000204604B0BDE8F08101AA2849701C10F0E7
:10113000B5FA0028E8D0304610F022FD019B5B0094
:101140000B339842E0D342462149F01C10F0A6FA36
:101150000028D9D00A9A1D49F01D10F09FFA0028E6
:10116000D2D00A9BDDF804E01A78D8F800102B687A
:1011700052FA8EF252FA81F2C1F30721093654185D
:1011800010E010F08BFA02360028BDD02B68039ACD
:10119000FA542B68FA5C0133FF2B14442B60B3D84C
:1011A000DDF804E00949734503AA3046E9D1304629
:1011B00002AA064910F072FA0028A5D0029B234427
:1011C000DCB2B4FA84F040099FE700BF80870100D9
:1011D000888701002DE9F04F02234FF48072DBB0C5
:1011E0009149924805F00AF8FFF75EFF904A914B4B
:1011F0009A4217D9904A9A4214D9904A9A4211D9E0
:101200004FF4003300E09BB11C4653F8042901322F
:10121000F9D0211D8A4804F0F1FFB4F5FC3F0BDD45
:10122000884800E0884804F0E9FF5BB0BDE8F08F33
:101230000421834804F0E2FF8448854F854DDFF8A0
:1012400048A2DFF828B204F0D9FF834804F0D6FFA3
:10125000002406AE04F01CFF0028FBD004F0E8FEDA
:101260000A285AAB06D00D2804D02344013403F8D1
:10127000C80CEFE71C44002304F8C83C9DF8A030DC
:101280003A2B01D00024E5E73B68002BFAD107AAEE
:10129000724928A810F002FA012819D107992A6882
:1012A000914240F0AD806E4B1B68002B00F0A8808F
:1012B0006C4BDAF8002019686B4804F09FFF64203B
:1012C0000AF024FF674BDAF80010186818F02CFFBA
:1012D0002B680096591C296005AB644A08A928A808
:1012E000FFF70AFF002800F09880614B059A1B6801
:1012F00003931946DBF800300B449818B0F5FC3F17
:1013000000F28680316804295ED8DFE801F03610EB
:101310000A5D0300BDF820305BBA1B04544A136019
:10132000B0E7BDF820305BBA9BB21B01F6E74FF483
:101330007A700AF0EBFE4B4A29681268DAF800303E
:1013400000914C4804F05AFF464ADAF8003014681D
:1013500003F5FF3808F5FA7804F5003407E0204675
:101360000C22314910F07AFC0134002845D0444564
:10137000F5D3414804F042FF84E703F50034A107A8
:1013800042D1910740D1002A2CDD531E23F00303E4
:1013900004F1040999440DF1200801E0A1451AD097
:1013A000204658F8041B18F0C3FE04340028F5D07A
:1013B0000146324804F022FF2C4B05991A68304848
:1013C00004F01CFF042304E028AA2E4804F016FFB2
:1013D00003233B6056E7254B039A1B6805981A4484
:1013E00013461044DAF800202749904200D90860DB
:1013F0001C4A11688B4292D344E70123184A8EE7B6
:10140000224804F0FBFE3DE7214804F0F7FED3E755
:10141000204804F0F3FE0223DBE728A91E4804F06D
:10142000EDFE0123D5E700BF90870100A0870100F2
:101430002189FF1FFFFF0300D589FF1F558AFF1F6A
:10144000DC870100F4870100C48701000C880100DB
:10145000F89FFF1F04A0FF1F308801005088010083
:1014600008A0FF1F588EFF1F5C880100FC9FFF1F14
:1014700000A0FF1FC4880100588901003C890100B9
:101480007889010004890100F49FFF1F748801001E
:1014900020890100B08801009C88010010B5044635
:1014A0000CF036FF204610BD0D4A13689BB90D4B5A
:1014B00010B4198872B60C484FF480244FF4A0730E
:1014C0000460013BFDD110244B01C0F8844019B9E0
:1014D000012310BC13607047013BFDD1F8E700BF4A
:1014E000E0A0FF1F2CA1FF1F44F00F4038B5057886
:1014F00015B944F2AD3038BD447824B944F2AE3069
:1015000000FB05F038BD0230FFF7F0FF00FB0440A0
:101510000130F5E72DE9F84F2A4CDFF8C8A02A4D35
:10152000DFF8C480294FDFF8C49076218346204637
:1015300006F0FAFE204606F0EDFFCAF8000020464D
:1015400006F0F4FF2860204606F0EAFF20490EF07E
:1015500045FCC8F80000204606F0EEFF0EF032FB16
:101560001C490EF03BFC1C4B06461E6058460EF014
:101570002DFB04460146DAF800000EF02FFC396816
:101580000EF070FA214638602868144F144D0EF0A2
:1015900025FCD9F800100EF065FA2146C9F80000C4
:1015A000D8F800000EF01AFC39680EF05BFA2146FC
:1015B000386030460EF012FC29680EF053FA2860AD
:1015C000BDE8F88F2CA0FF1FD0A0FF1FD8A0FF1FE1
:1015D0000000C84200007A443CA1FF1F1CA0FF1F6E
:1015E000B4A0FF1FD4A0FF1FE8A0FF1FB0A0FF1FE3
:1015F0002DE9F04F8246ADF54B7D4000083000AF3D
:101600000C4620F00700ADEB000D39602046114676
:101610001E46FEF739FFFEF765FF05F08BFA012045
:10162000C7F804D00AF072FDBAF1000F3EDDD7F81A
:1016300050334FF0000B5C464FEA43194FF48028BB
:1016400072B61322314607F1080005F063FB274B01
:101650004FF4A072C3F80080013AFDD11322314645
:1016600007F5CC7005F056FB214BC3F8008062B63D
:101670004FF07C52132107F5CC7004F05FFF4FF060
:101680007C520546132107F1080004F057FF7B68E0
:10169000281A23F81B00B9F1000F02D04B46013B7A
:1016A000FDD10134A4B2A245A346C9DC38680021AB
:1016B000FEF7EAFE7C684FF07C525146204604F06B
:1016C00055FF01460B4804F099FD5146204604F0B1
:1016D00067FF0DF025FE02460B46074804F08EFD1D
:1016E00007F54B77BD46BDE8F08F00BF44F00F40D3
:1016F00048F00F40548A01005C8A01002DE9F04F48
:10170000A5B002AF5B4CBA608A4691469846BB6171
:10171000D7F8B45004F0D2FE64200AF0F7FC0FCCE6
:1017200007F124060FC62368336005F003FA4B4621
:10173000CDF800805246504950480CF03BFE4FEA2D
:101740004A033B60D7F8B02008337B6007F12403DD
:101750004FEA42184FEA45197B6107F1380B7A6965
:10176000474852F8043BFB601C4619467A6104F076
:1017700045FDB9682046FEF787FE7B68C7F810D0A4
:1017800023F00703ADEB030D02ABBAF1000FFB61D1
:1017900068DD00254B462C46A9464FF480261D46A1
:1017A00015B12A46013AFDD172B6364B4FF4A072FC
:1017B0001E60013AFDD11022C3F88420B8F1000F59
:1017C00002D04246013AFDD12F4B1E6062B6142270
:1017D000B969584605F09EFA4FF07C5258461421DC
:1017E00004F0ACFEFB69013423F8190024B2274B46
:1017F0001022A2451A60A146D2DCF8680021FEF74B
:1018000043FE234804F09CFCFB693A68A9469C18F7
:101810001D4635F9021B1F4804F0F0FCA542F8D123
:10182000FC694FF07C525146204604F09FFE014671
:10183000194804F0E3FC5146204604F0B1FE0DF0D7
:101840006FFD02460B46154804F0D8FC144804F01E
:101850002FFD7B69D7F810D09B4580D18C37BD46D2
:10186000BDE8F08FF8680021FEF70EFE084804F08E
:1018700067FCD5E798890100848A01007495FF1FF1
:10188000C08A010044F00F4048F00F40C4F00F4000
:10189000088B0100CC8A0100D08A0100EC8A01008B
:1018A000588A010070B50646002006F08DFF0446F8
:1018B000002006F089FF014620460EF0D3F80446CA
:1018C000002006F081FF014620460EF0CBF80A49C1
:1018D0000A4D0EF083FA0A4B04461C6030460EF0A7
:1018E00075F9014620460EF079FA29680EF0BAF82B
:1018F0002860204670BD00BF0000404014A0FF1FBC
:10190000ECA0FF1FF8B50F46C6B24FF47A7400255D
:10191000304609F0B5FF013C0544F9D10C480D4EA5
:1019200080FB0530ED17C5EBA0100EF04FF90A4B08
:1019300004461C6038460EF049F9014620460EF078
:101940004DFA31680EF08EF830602046F8BD00BFC9
:10195000D34D6210ACA0FF1F10A0FF1F70B506464C
:101960004FF4FA6005F07EFB0EF02CF9094C0A4D9D
:10197000206064200AF0CAFB30460EF027F9246884
:10198000014620460EF02AFA29680EF06BF828600E
:10199000204670BD4CA1FF1F08A1FF1F70B5C0B24B
:1019A0000E460AF07DFB0EF00DF9094B094C18604C
:1019B000054630460EF00AF9014628460EF00EFAAA
:1019C00021680EF04FF8044B2060186870BD00BF0E
:1019D000E4A0FF1FC0A0FF1F10A0FF1F70B50330C1
:1019E0000E4606F011FB0EF0EDF8084B084D18609E
:1019F000044630460EF0EAF8014620460EF0EEF9B5
:101A000029680EF02FF82860204670BD30A1FF1F16
:101A100024A1FF1F70B503300E4606F0F5FA0EF054
:101A2000D1F8084B084D1860044630460EF0CEF849
:101A3000014620460EF0D2F929680EF013F828600E
:101A4000204670BD10A1FF1FA4A0FF1F70B503307A
:101A50000E4606F0D9FA0EF0B5F8084B084D18609E
:101A6000044630460EF0B2F8014620460EF0B6F9B4
:101A700029680DF0F7FF2860204670BD14A1FF1FF4
:101A800054A1FF1F2DE9F04FA1B008AD85E8030078
:101A9000DDF8A8A016461F46002409E03046FFF7EF
:101AA00039FD731EBB427CD00BA80CF0D9FC01346D
:101AB000099B03B1DB689C4280F2DF8022460FA8BD
:101AC000294606F0C9FD00210FA806F0E3FD0146F6
:101AD0000BA80CF005FD0BA8B2490CF093FD0028F3
:101AE000DCD1B1490BA80CF08DFD90B13046FFF769
:101AF000D9FE731E9F42D7D1BAF1000FD4D1AB4BA0
:101B000018680DF00DFC02460B46A94804F076FB60
:101B1000CAE7A8490BA80CF075FD002863D022463F
:101B200029460FA806F098FD01210FA806F0A8FD90
:101B30002246804629460FA806F08EFD02210FA8F6
:101B400006F09EFD2246814629460FA806F084FD38
:101B500003210FA806F094FD2246834629460FA8CC
:101B600006F07AFD04210FA806F08AFD4FF0010E61
:101B700000905B464A464146CDF804E03046FFF708
:101B800037FD731E9F428FD1BAF1000F8CD18A4B63
:101B900018680DF0C5FB02460B46884804F02EFB82
:101BA00082E7BAF1000F7FF47FAF854B18680DF024
:101BB000B7FB844B8046186889460DF0B1FBCDE930
:101BC0000401814B18680DF0ABFBCDE902017F4B9E
:101BD00018680DF0A5FB4246CDE900014B467C4854
:101BE00004F00CFB60E77B490BA80CF00BFD002810
:101BF00046D0224629460FA806F02EFD01210FA847
:101C000006F03EFD2246804629460FA806F024FD38
:101C100002210FA806F034FD2246814629460FA86E
:101C200006F01AFD03210FA806F02AFD224683467E
:101C300029460FA806F010FD04210FA806F020FD8C
:101C40004FF0020E00905B464A464146CDF804E054
:101C50003046FFF7CDFC731E9F427FF425AFBAF1EB
:101C6000000F7FF421AF5C4B18680DF059FB024662
:101C70000B465A4804F0C2FA16E721B0BDE8F08FCF
:101C800057490BA80CF0BEFC002843D02246294639
:101C90000FA806F0E1FC01210FA806F0F1FC224696
:101CA000804629460FA806F0D7FC02210FA806F0AF
:101CB000E7FC2246814629460FA806F0CDFC032109
:101CC0000FA806F0DDFC2246834629460FA806F041
:101CD000C3FC04210FA806F0D3FC4FF0030E0090C4
:101CE0005B464A464146CDF804E03046FFF780FCAB
:101CF000731E9F427FF4D8AEBAF1000F7FF4D4AECA
:101D0000384B18680DF00CFB02460B46364804F0C1
:101D100075FAC9E635490BA80CF074FC18BB3449B8
:101D20000BA80CF06FFC00286CD0224629460FA8A7
:101D300006F092FC01210FA806F0A2FC3146FFF745
:101D40002DFE731E9F427FF4AFAEBAF1000F7FF4F9
:101D5000ABAE284B18680DF0E3FA02460B46264856
:101D600004F04CFAA0E6224629460FA806F074FCBF
:101D700001210FA806F084FC3146FFF7C3FD731E56
:101D80009F427FF491AEBAF1000F7FF48DAE1B4BF2
:101D900018680DF0C5FA02460B46194804F02EFAF1
:101DA00082E600BF148B0100A084010014A0FF1F75
:101DB000708B01002884010050A1FF1F8C8B010053
:101DC000D8A0FF1FB4A0FF1F1CA0FF1FB0A0FF1FC3
:101DD000388B01005084010028A1FF1FA48B010053
:101DE000788401000CA1FF1FBC8B0100A4850100B9
:101DF000C8850100C0A0FF1FE88B0100ACA0FF1F39
:101E0000D48B010085490BA80CF0FCFB10BB844966
:101E10000BA80CF0F7FB90B3224629460FA806F05A
:101E20001BFC01210FA806F02BFC3146FFF7D6FD65
:101E3000731E9F427FF438AEBAF1000F7FF434AEC8
:101E4000784B18680DF06CFA02460B46764804F0A1
:101E5000D5F929E63046FFF781FD731E9F427FF4D6
:101E600023AEBAF1000F7FF41FAE704B18680DF06F
:101E700057FA02460B466E4804F0C0F914E66D4965
:101E80000BA80CF0BFFBE8B1224629460FA806F0CC
:101E9000E3FB01210FA806F0F3FB3146FFF7BAFD83
:101EA000731E9F427FF400AEBAF1000F7FF4FCADC9
:101EB000614B18680DF034FA02460B465F4804F097
:101EC0009DF9F1E55E490BA80CF09CFBE8B12246B8
:101ED00029460FA806F0C0FB01210FA806F0D0FB91
:101EE0003146FFF7B3FD731E9F427FF4DDADBAF1BB
:101EF000000F7FF4D9AD534B18680DF011FA02466C
:101F00000B46514804F07AF9CEE550490BA80CF085
:101F100079FB814638B3224629460FA806F09CFB80
:101F200001210FA806F0ACFB2246804629460FA8E7
:101F300006F092FB02210FA806F0A2FB5FFA88F8D8
:101F4000814604F0CBF8404601210AF0B7F8404B37
:101F500053F83830012219F0FF0F14BF83F88020A6
:101F600083F80021A0E53B490BA80CF04BFB0028AF
:101F70003FF49AAD224629460FA806F06DFB0121D9
:101F80000FA806F07DFB2246294680460FA806F0E2
:101F900063FB02210FA806F073FB0FAB22460690ED
:101FA0002946184606F058FB0FAB0321184606F0E9
:101FB00067FB0FAB834622462946184606F04CFBCA
:101FC0000FAB0421184606F05BFB0FAB5FFA88F8F5
:101FD000079044221846204909F0A6FA40460121FC
:101FE0000AF06CF820AB03EB8B02404652F8441C1D
:101FF00009F0CEFF584609F0BBFF0699404609F0AC
:10200000B9FE079B18460AF081F84046494609F098
:10201000B1FE0C2009F0ACFF46E500BF9085010041
:10202000F085010024A1FF1F088C010008A1FF1FFB
:10203000FC8B010010860100A4A0FF1F188C01007A
:102040003086010054A1FF1F288C0100388C01004C
:10205000209B0100488C0100AC890100F0B50020F4
:1020600087B004F01FFE092840F34D82C54DC64FCE
:102070002A68136816681468116892680592C4F398
:102080000724CAB2C6F307461B0E019402920390BE
:10209000BE4ABF49BF480096049704F0AFF8BE4857
:1020A00004F04EF800242B68B64E04F10C0203EB4A
:1020B0008203013458680DF033F902460B46B748E5
:1020C00004F09CF80A2CEED13368D86D0DF028F995
:1020D00002460B46B24804F091F8B24804F030F8DA
:1020E00000242B68A74E04F11802013453F8220093
:1020F0000DF016F902460B46A84804F07FF80A2CAA
:10210000EFD13368D3F888000DF00AF902460B4688
:10211000A34804F073F8A44804F012F800242B68D4
:10212000984E04F1380203EB8203013458680DF035
:10213000F7F802460B46994804F060F80A2CEED1F5
:102140003368D3F80C010DF0EBF802460B469448C7
:1021500004F054F8954803F0F3FF00242B68894EEF
:1021600004F14402013453F822000DF0D9F802467C
:102170000B468A4804F042F80A2CEFD13368D3F8B2
:1021800038010DF0CDF802460B46854804F036F8CC
:10219000874803F0D5FF00242B687A4E04F1220211
:1021A00003EB8203013458680DF0BAF802460B467F
:1021B0007A4804F023F80A2CEED13368D3F8B4003F
:1021C0000DF0AEF802460B46754804F017F8794852
:1021D00003F0B6FF00242B686A4E04F12E0201348E
:1021E00053F822000DF09CF802460B466B4804F0B1
:1021F00005F80A2CEFD13368D3F8E0000DF090F821
:1022000002460B46664803F0F9FF6B4803F098FF5F
:1022100000242B685B4E04F14E0203EB8203013471
:1022200058680DF07DF802460B465C4803F0E6FF67
:102230000A2CEED13368D3F864010DF071F8024630
:102240000B46574803F0DAFF5C4803F079FF00249F
:102250002B684C4E04F15A02013453F822000DF061
:102260005FF802460B464D4803F0C8FF0A2CEFD139
:102270003368D3F890010DF053F802460B464848F6
:1022800003F0BCFF4E4803F05BFF00242B683D4E7B
:1022900004F1640203EB8203013458680DF040F846
:1022A00002460B463D4803F0A9FF0A2CEED13368E5
:1022B000D3F8BC010DF034F802460B46384803F061
:1022C0009DFF404803F03CFF00242B682D4E04F195
:1022D0007002013453F822000DF022F802460B463A
:1022E0002E4803F08BFF0A2CEFD13368D3F8E801B6
:1022F0000DF016F802460B46294803F07FFF3248DE
:1023000003F01EFF00242B681E4E04F17A0203EB3B
:102310008203013458680DF003F802460B461F484B
:1023200003F06CFF0A2CEED13368D3F814020CF0E2
:10233000F7FF02460B461A4803F060FF234803F0FC
:10234000FFFE00242B680F4E04F18602013453F87F
:1023500022000CF0E5FF02460B46104803F04EFF4A
:102360000A2CEFD13368D3F840020CF0D9FF0246B3
:102370000B460B4803F042FF154803F0E1FE002432
:1023800028E000BF5C8EFF1F608D0100BC8C010047
:10239000C48C0100D48C0100688D0100788D01008F
:1023A000808D0100888D0100948D0100A48D0100B5
:1023B000B48D0100C88D0100DC8D0100F48D010099
:1023C000088E0100188E0100288E0100388E010051
:1023D000488E01002B68514E04F1900203EB8203FA
:1023E000013458680CF09CFF02460B464C4803F041
:1023F00005FF0A2CEED13368D3F86C020CF090FF85
:1024000002460B46474803F0F9FE474803F098FEA2
:1024100000242B68414E04F19C02013453F8220041
:102420000CF07EFF02460B463D4803F0E7FE0A2C07
:10243000EFD13368D3F898020CF072FF02460B46D6
:10244000384803F0DBFE394803F07AFE00242B689D
:10245000324E04F1A60203EB8203013458680CF0FB
:102460005FFF02460B462E4803F0C8FE0A2CEED151
:102470003368D3F8C4020CF053FF02460B462948D8
:1024800003F0BCFE2A4803F05BFE00242B68234EB9
:1024900004F1B202013453F822000CF041FF02466D
:1024A0000B461F4803F0AAFE0A2CEFD13368D3F87D
:1024B000F0020CF035FF02460B461A4803F09EFE70
:1024C00000242B68154E04F1BC0203EB820358680C
:1024D0000CF026FF02460B4616482146013403F055
:1024E0008DFE452CEDD13368D3F808040CF018FFAD
:1024F00002460B461048214603F080FE07B0BDE8B7
:10250000F04003F0F5BE01460C4803F077FE03F0FF
:10251000EFFE07B0BDE8F04003F086BE5C8EFF1F03
:10252000788D0100808D0100588E0100708E0100B1
:10253000888E0100A08E0100B48E0100588C01002D
:1025400070B50D460446364928460FF04DF900286F
:102550004DD0344E284631460FF046F9002841D080
:10256000314E284631460FF03FF900283AD02F4E21
:10257000284631460FF038F9002833D02C4E284633
:1025800031460FF031F968B32A4E284631460FF034
:102590002BF938B3284E284631460FF025F908B3F9
:1025A000264928460FF020F900282CD0244E284632
:1025B00031460FF019F9A8B1224928460FF014F955
:1025C00040B3214E284631460FF00EF950B11F4E50
:1025D000284631460FF008F920B11D4B2360012336
:1025E000636102E0012326606361204670BD194BE0
:1025F00019481A491A4A236004236060A160E26006
:102600006361204670BD174B174A23600223626046
:102610006361EAE70B4B236001236361E5E700BFD9
:10262000148B0100A4850100F085010010860100D3
:102630003086010090850100A0840100C88E010051
:10264000C8850100288401005084010078840100BD
:10265000E48E010018850100248501003085010009
:102660003C850100DC8E0100D48E01002DE9F04F85
:10267000ADF54E5D8BB006AF07F5EA70282200215C
:102680000EF09CFA07F525752C4607F56176204675
:10269000002110340BF024FFA642F8D12846364919
:1026A00010350BF04FFFB542F8D107F5966041F6B3
:1026B00064134FF4FA72314903F034FE07F5966063
:1026C00003F0F0FF78B107F596600FF059FA002398
:1026D00001241D46844240D207F59663195D7B298B
:1026E00021D00134F6E7264803F02AFD07F596606D
:1026F00003F026FD234803F023FD03F0F9FD03F06A
:1027000093FD07F5347307F55D74A3F14C0520467E
:10271000103C0BF0A5FEA542F9D107F54E57143732
:10272000BD46BDE8F08F07F5257303EB051607F5E9
:10273000966303EB040830460BF054FF18F8011FB2
:102740007D2904F10104F6D130460BF04BFF07F56B
:10275000966001350FF014FAC3E70020BD6404F061
:10276000A1FA0928014611DC074803F047FD03F0F0
:10277000BFFD03F059FDC4E7588A0100F48E010043
:10278000F88E0100348F0100588C0100C94BDFF82E
:10279000CCE31C68C84A236826682568246803902F
:1027A000C5F30721E0B2C6F307461B0ECDF810E0D3
:1027B00002900191C148C249009603F01FFDC14833
:1027C00003F0BEFCC04B10221A600A2009F09EFCE8
:1027D00000237B65C7F888301C467B6601233B6578
:1027E00004F0A8F9BB6C002B01F0C38200233B6608
:1027F0003B6EC7F810D01B0107F5257202EB0308EA
:10280000D158D8F8086006F1080323F00703ADEBB0
:10281000030D06AC002532462046C7F8CC50C7F859
:10282000D0500FF06BFAA949A55540460BF08AFE2F
:1028300007F5617006F0D8FC07F59662214640F274
:10284000EE2307F5617006F0C9FA07F59663A84212
:1028500008BF1A46214618BF2A4607F5BE7005F084
:1028600023FF07F5BE7393E8030007F1CC0383E869
:102870000300002801F09B84002901F09884BB6CC0
:10288000FD65013B3B62924907F1CC0005F054FF26
:10289000904983B207F1CC003B6405F04DFF8E49AF
:1028A0001FFA80F807F1CC0005F046FF8B4A07F1CC
:1028B000CC011FFA80F907F1D40005F02DFF884AFA
:1028C00007F1CC0107F1DC0005F026FF854A07F18E
:1028D000CC0107F1E40005F01FFF834A07F1CC01AA
:1028E00007F1EC0005F018FF804A07F1CC0107F171
:1028F000F40005F011FF7E4907F1CC0005F01CFF44
:102900007C4907F1CC0005F017FF7B4A83B207F141
:10291000CC0107F1FC007B6705F0FEFE774907F16B
:10292000CC0005F013FF014607F5CA700BF0D8FD87
:10293000734907F1CC0005F0FFFE724907F1CC00A6
:1029400005F0FAFE0346002808BF01236E49BB6666
:1029500007F1CC0005F0F0FE6C49B86007F1CC003F
:1029600005F0EAFE6A49386507F1CC0005F0E4FE9F
:102970006849786007F1CC0005F0DEFE03460028C8
:1029800008BF012364497B6407F1CC0005F0D4FE45
:102990006249386007F1CC0005F0CEFEC7F80CD0D4
:1029A000002841F02B82F8625D4A07F1CC0107F55F
:1029B000827005F0B1FE5B4A07F1CC0107F5867025
:1029C00005F0AAFE584A07F1CC0107F58A7005F018
:1029D000A3FE564A07F1CC0107F58E7005F09CFE68
:1029E000534A07F1CC0107F5927005F095FE514A64
:1029F00007F1CC0107F5967005F08EFE4E4A07F1FF
:102A0000CC0107F59A7005F087FE4C4A07F1CC011E
:102A100007F59E7005F080FE494A07F1CC0107F5E5
:102A2000A27005F079FE474A07F1CC0107F5A670C0
:102A300005F072FE434A07F1CC0107F5FE7005F080
:102A40006BFE002207F5FE7107F5617005F004FECC
:102A5000002107F5617005F01DFE3B4A786207F121
:102A6000CC0107F5AA7005F057FE384A07F1CC01F2
:102A700007F5AE7005F050FE354A07F1CC0107F5B9
:102A8000B27005F049FE334A07F1CC0107F5B67084
:102A900005F042FE304A07F1CC0107F5BA7005F0A7
:102AA0003BFE0025AB46AA46D7F80031002B57D095
:102AB000DB6855E05C8EFF1FBC8C0100408F01007D
:102AC000C48C0100BC8F0100C4F00F40588A010083
:102AD000C88F0100DC8F0100D88F0100E88F010052
:102AE000F48F0100FC8F010004900100149001009C
:102AF000209001002C9001003890010040900100CE
:102B00004C9001005C9001006890010078900100F9
:102B1000889001009C900100A8900100B8900100ED
:102B2000D0900100E0900100F090010004910100BC
:102B3000209101003C910100489101005891010051
:102B40006091010070910100849101008C9101005D
:102B500098910100A4910100AC910100608D0100E9
:102B60009D424ADA294607F1FC0005F089FD2A4614
:102B7000044607F59A7107F5617005F06DFDD7F809
:102B8000883313B1DB6803FB04F300249B4426461F
:102B90000AE005F061FD214607F5617005F070FD62
:102BA0000028C8BF013601342A4607F59A7107F597
:102BB000617005F051FDD7F8883303B1DB689C42A2
:102BC0002A4607F59A7107F56170E2DB294607F599
:102BD000AA7005F055FD0128294607F1FC0005D033
:102BE00005F04EFD00FB06AA01355DE705F048FD46
:102BF00000FB06F00AEB002AF6E72248C7F834A0EB
:102C0000C7F878B003F09CFAB8F1000F03D0414642
:102C10001D4803F0F3FAB9F1010F01F00B81796B54
:102C20008B007B610A3323F00703ADEB030D06AA8B
:102C3000ADEB030D06AB3B63002901F1FF33FA63F3
:102C4000BB6111DD043A002301330020994242F8B0
:102C5000040FF9D13B6B796B1A1F0023013300205D
:102C6000994242F8040FF9D1D7F85031002B01F006
:102C7000C080DB68002B41F3BB8000221446154660
:102C800007E000BFBC910100C0910100DB689C42DD
:102C90001ADA07F5A67107F5FE7005F0DDFC0021D4
:102CA00007F5FE7005F0F6FC014607F56170FFF7C9
:102CB00047FCD7F89823D7F8503101341544A4B213
:102CC0002246ADB2002BE1D13D677A69386F1346D9
:102CD00003FB00F30A3323F00703ADEB030D0DF103
:102CE000180BB0B1796B9408002000290CDD00228C
:102CF000134600FB04F501332A449BB20026994297
:102D00004BF822601A46F6DC01303A6F83B29A42E1
:102D1000EBD8BC6E012C08DDC04803F011FA204648
:102D200003F0A2FABE4803F00BFABE4BBE490022E4
:102D30001A60BE4B1A60BE4B1A60BE4B1A60BE4B87
:102D40001A60BE4B1A60BE4B1A60BE4B1A60BE4B77
:102D50001A60BE4B1A60BE4B1A60BE4B1A60BE4B67
:102D60001A60BE4B1A60BE4B1A60BE4B1A60BE4B57
:102D70001A60BE4B1A60BE4B1A60BE4B1A60BE4B47
:102D80001A60BE4B1A60BE4B1A60BE4B1A60BE4B37
:102D90001A60BE4B1A60BE4B1A60BE4B07F1CC00E6
:102DA0001A6005F0C9FC012801F03A82BA4907F11E
:102DB000CC0005F0C1FC30B1B74907F1CC0005F0FB
:102DC000BBFC04F055F8BB6E002B40F3068597F86A
:102DD0002C30FB617B69C7F8C0B09B08BB63002344
:102DE000FB6603F055F9002840F07C827B6A002BDB
:102DF00000F08C82BB6F002B40F342820023C7F8A7
:102E0000A030FB64BB62FB67C7F8C4309A46C7F8C2
:102E1000A43000240023C7E92434DFF898B2DFF897
:102E20008492D7F8C430C7F884D0002B00F0868392
:102E3000D7F88880514607F1EC0005F021FC524696
:102E4000044607F59A7107F5FE7005F005FCD7F802
:102E5000A420B2FBF8F308FB1328414607F5FE70E7
:102E600005F00EFC8D4B5246187007F5927107F570
:102E7000FE7005F0F1FB414607F5FE7005F00AFC17
:102E8000014607F5D2700BF02BFBD7F8A401FEF733
:102E900005F95246C7F8B00007F5967107F5FE70C0
:102EA00005F0DAFB414607F5FE7005F0E9FB5246F6
:102EB00007F1F401054607F5FE7005F0CDFB41462C
:102EC00007F5FE7005F0DCFB524683B207F586710C
:102ED00007F5FE70C7F8803005F0BEFB414607F5E8
:102EE000FE7005F0D7FB014607F5DA700BF0F8FA33
:102EF000D7F8B401FEF7D2F80DF0A8F8684AA3B2EB
:102F00001080002B00F01782C7F8BC309B00C7F878
:102F10008C30D7F88830D7F8C420194691420BDDA1
:102F2000002A00F0A783D7F8B0000DF08FF85B4BB4
:102F300081B21878FDF7A8FA03F0AAF8002840F04B
:102F4000E882D7F88C300A3323F00703ADEB030D8A
:102F500006AAADEB030D0023CBF8003006ABC7F893
:102F6000B020C7F89830DBF80030002BFBD0ABB2B4
:102F70001946D7F8BC20D7F8B000C7F89C3003F04A
:102F8000C9FE00230F24C9F80030152008F078FC92
:102F9000D9F80030434A013C1844A4B2C9F80000F3
:102FA000002CF2D1404BA3FB0030D7F8C430C0084E
:102FB000022B106000F3B4810CF090F9C7E92401F2
:102FC0003A4A4FF4802120231160013BFDD1D7F80C
:102FD000BC20D7F89C10D7F8980003F09BFE62B68F
:102FE000334B10221A603B6F002B40F0CD817B6F7A
:102FF000012B00F07D82D7F8BC10D7F8B0004FF05D
:103000007C5203F09BFA5146064607F1D40005F0C6
:1030100037FB002840F099814EE000BFDC910100B1
:103020007C8D010014A0FF1FE8910100ECA0FF1FA0
:103030003CA1FF1FE8A0FF1FD0A0FF1FD4A0FF1FCF
:10304000B4A0FF1F1CA0FF1FB0A0FF1FD8A0FF1F30
:1030500008A1FF1F4CA1FF1F50A1FF1F40A1FF1F90
:1030600028A1FF1F44A1FF1F0CA1FF1F48A1FF1FA4
:1030700014A1FF1F10A1FF1F30A1FF1FE4A0FF1F1D
:1030800010A0FF1F54A1FF1FA4A0FF1F24A1FF1F1A
:10309000C0A0FF1FACA0FF1FFC910100C4A0FF1F38
:1030A0002CA1FF1F04A1FF1F8988888848F00F40CA
:1030B000C4F00F40E0A0FF1FD7F8C430022B40F34C
:1030C0004181D7F8C430581E0CF018F902460B465F
:1030D000D7E924010CF0A2FA04460D46BB4B19783F
:1030E000BB4B1B6803EB81012246D1F84402C7F8B1
:1030F000B000D1F818E2D1F8EC81C7F8B8E02B465F
:10310000204629460CF060F9C7E92A01D7F8B0003B
:103110000CF006F902460B46D7E92A010CF054F9E7
:103120000022AC4B0CF07AFA002200230BF09AFF3D
:10313000C7E92C01D7F8B8000CF0F2F822462B466C
:103140000CF042F902460B46D7E92C010BF08AFF3E
:10315000044640460D460CF0E3F802460B46204676
:1031600029460BF07FFF02460B4600209A490CF0DF
:1031700055FA044630460D460CF0C0F80B460246A0
:10318000294620460CF020F90CF0CEFBD7F8803011
:103190000646002B00F0EE808C4B1B78002B38D0BD
:1031A0007B6EF01A0CF012FD002104460CF000FFBB
:1031B000002840F0C882894920460CF017FF0028FB
:1031C00040F02582204686490CF054FD04465146C5
:1031D00007F1D40005F054FA002840F02182D7F816
:1031E0009C30002B00F0B182D7F89C30012B00F00E
:1031F0000D842146FD6FFC6B54F825000CF032FC69
:103200003B6C44F82500012B00F09082FB6F0133EA
:10321000FB67514607F1FC0005F032FA52460446BE
:1032200007F59A7107F5FE7005F016FAD7F8C42075
:10323000D7F800320132C7F8C420D7F8A4200132F1
:10324000C7F8A42013B1DB6803FB04F3D7F8C4204C
:10325000934200F0D681D7F8A03007F5DA70013339
:103260001C46C7F8A0300BF0FBF807F5D2700BF046
:10327000F7F8BB6FD7F884D01A46A2423FF7D1AD1A
:10328000584CFD6A07F5EA7307F5FE71012053F803
:10329000042B954205D0A25C534E56F8322082F89A
:1032A00000018B42F3D1FA694F4BF96E53F832307B
:1032B0004E480122114483F800210C46F9660BF0B8
:1032C00027F8BB6EA34240F38682BB68002B7FF7D2
:1032D00088AD1946464803F077F802F0D9FE002879
:1032E0003FF484AD0121424803F06EF801307FF4D1
:1032F0007DAD3B6D013B7B65BB6EFB667B6CFB650F
:103300003B6A3B667B6A002B7FF474AD009307F544
:10331000A27393E80300BA6EFB6EFEF7B3FB69E598
:103320000BF0DCFF02460B46D7E924010BF09AFEB6
:10333000C7E9240144E62423C7F88C300923C7F8E1
:10334000BC30E6E5D7E92445C8E6514607F1D4008C
:1033500005F096F901283FF4AFAE514607F1D400CD
:1033600005F08EF902283FF4A7AED7F88030002B85
:103370007FF412AFD7F8BC10D7F898004FF07C520A
:1033800003F0DCF8786607E70123009307F5A673DE
:1033900093E80300BA6EFB6EFEF774FBD7F850316A
:1033A000002B3FF424AEDB68002B7FF720AE002219
:1033B00007F5E276C7F858A014461546D7F838A0A6
:1033C000D7F8A080C7F8B86064E000BFC4A0FF1FB2
:1033D0005C8EFF1F00408F400000F03F00FF7F47E2
:1033E00000401C46488A0100209B010020A0FF1FCE
:1033F000D0820100D7F80002C7F8A830FDF74EFED2
:10340000D7F8A830D7F8C01003FB0A82022E05F1C6
:10341000020341F822009BB25CD0D7F80402C7F83F
:10342000A830FDF73BFED7F8A830D7F8C01003FB53
:103430000A83EA1C032E41F8230093B24AD0D7F83E
:103440000802C7F8A830FDF729FED7F8A830D7F84A
:10345000C01003FB0A832A1D042E41F8230093B2F7
:1034600038D0D7F80C02C7F8A830FDF717FED7F808
:10347000A830D7F8C01003FB0A83013441F82300B9
:10348000D7F850310535A4B2ADB2224653B3DB684C
:103490009C4227DAD7F8B86007F5A671304605F0E8
:1034A000DBF80021304605F0F5F8014607F5FE701F
:1034B000FFF746F8D7F8FC01D7F81062FDF7EEFDEC
:1034C00005FB0A82D7F8C0106B1C012E41F82200C0
:1034D0009BB28FDC1D460134D7F85031A4B222468E
:1034E000002BD4D17B6FD7F858A0012B7FF483AD8C
:1034F000D7F8B020D7F88C1002EB4100131F043826
:1035000007F2823253F8041F22F8021F9842F9D1C1
:1035100071E50121C34802F057FF01307FF411AD7E
:103520003B6D013B7B657B6C013BFB65BB6FC7F86B
:10353000A030BB6EFB66BB6C3B6602E5524607F5EE
:103540009A7107F5FE7005F087F8D7F80032002B66
:1035500000F03382DB68C7F88830984607F5EA75D3
:10356000002407F5E276524607F58A7107F5FE70EA
:1035700005F072F8214607F5FE7005F081F8524615
:1035800045F8040B07F58E71304605F065F82146C5
:10359000304605F07FF8014607F5FE700AF0A0FFFF
:1035A000D7F8FC01FDF77AFD013407F5FE700AF04B
:1035B00057FF0A2CD7D1BAF1000F3AD0514607F580
:1035C000827005F067F8014607F5FE700AF088FF83
:1035D000D7F8FC01FDF762FD0CF038FDFA6C904263
:1035E000034605D0904A591E914240F28482FB6402
:1035F00007F5FE700AF034FF00240023C7E92434E5
:1036000018E400230AF1010AC7F8C43023E6514642
:1036100007F1D400854C05F033F800283FF4DFAD06
:10362000514607F1D40005F02BF801287FF4E1ADF5
:10363000D5E5514607F5827005F02CF8014607F5EF
:10364000FE700AF04DFFD7F8FC01FDF727FD0CF0E6
:10365000FDFC754BF864421E9A42C9D8FB6C03EB23
:1036600043021201013A232AC2D9714971480AF072
:1036700005FEBDE7524607F59E7107F5FE7004F0A2
:10368000EBFFD7F8C41007F5FE7005F003F807F557
:10369000E276014630460AF023FF304666490AF0DA
:1036A000B1FF002839D1FB6E002B36D1BB6A002B4D
:1036B00000F0F481614802F043FD306802F040FD03
:1036C0005F4802F03DFD5F4802F03AFD524607F5C3
:1036D0009E7107F5FE7004F0BFFF012107F5FE7033
:1036E00004F0D8FF02F02CFD554802F029FD5649A0
:1036F00030460AF087FF0446002800F064815348F2
:1037000002F01EFDD7F8003123B1DB68013B5345C1
:1037100000F0CA814E4802F013FD4FF4C853013B3C
:10372000FDD130460AF09CFEFFF7FDBBD9F8000042
:103730000CF048FA3C6B014654F825000CF092F965
:1037400044F8250062E5002441E5424B1A78424BDB
:103750001B6803EB82022046116ED2F83480136E90
:10376000C7F8BC30D2F88C600CF07AF90BF0D8FDB9
:10377000D7F8BC3004460D46404619460CF070F9A7
:103780000BF0CEFD02460B46204629460BF046FFC5
:10379000044630460D460BF0C3FD02460B4620465C
:1037A00029460BF011FE0CF007F95146044607F1CB
:1037B000D40004F065FF0128274D7FF41AAD254B96
:1037C0001A782B68643203EB8203204659680CF0A8
:1037D00047F904460DE5D7F8C0B007F1E40393E8D4
:1037E000030007F5C27383E8030007F1DC0393E8E5
:1037F000030007F5C67383E80300D7F88831002972
:1038000000F02085D1F80C90002B00F00285B9F172
:10381000000FD3F80C8066DD07F5E2730F4D00242E
:103820001E4624E0D082010057555505643F1C4ECA
:10383000A914000020A0FF1F588A0100189201005F
:103840001C920100B4980100C08C0100209201007C
:103850007C8D0100C4A0FF1F5C8EFF1F0100024091
:10386000013407F5FE700AF0FBFDA1453BDD224661
:1038700007F5C67107F5FE7004F0EEFE002107F5AE
:10388000FE7004F0FDFE2246824607F5C671304602
:1038900004F0E2FE0121304604F0FCFE014607F58B
:1038A000FE700AF01DFEBAF1460FD9D8D7F8FC0118
:1038B000FDF7F4FBAC4BC7F8C4001A6802EB8A0AA8
:1038C000DAF8F4120CF06AFB18B9D7F8C430CAF869
:1038D000F4322B78DB07FCD5013407F5FE700AF0D3
:1038E000BFFDA145C3DCB8F1000F29DD9F4802F000
:1038F00027FC08F1FF360024214607F5C27004F0CA
:10390000C9FE014607F5FE700AF0EAFDD7F8FC5142
:103910002846FDF7C3FB0BF003FD02460B46944817
:10392000294602F06BFCA642924808BF924802F07A
:1039300007FC013407F5FE700AF092FDA045DBD1CB
:10394000D7F85031002B00F07581DB68002B40F375
:1039500071817B697E6BD7F818809B080022C7F8BD
:10396000BC3007F5E273C7F8B020C7F8B830C7F825
:10397000C420D7F8B84007F5A671204604F06CFEC5
:103980000021204604F086FE014607F5FE70FEF792
:10399000D7FDD7F81032C7F8C030002B40F33B8179
:1039A0004FF00009B9F1040F00F2D180DFE819F0FF
:1039B0008D01870181017B01CA00D7F8C430C7F8A7
:1039C00088309846CAE56D4930460AF01BFE00284B
:1039D0006ED06B480AF09CFC21466A4802F0F4FC69
:1039E000694802F0ADFBFA6C684B013A9A423FF627
:1039F00089AEFB6C03EB43021201013A232A7FF6E6
:103A000081AE63495E480AF039FC7BE6614B1A7867
:103A1000554B1B6803EB82022046D2F81011D2F8F6
:103A2000E480D2F81031C7F8BC30D2F83C610CF019
:103A300017F80BF075FCD7F8BC3004460D4640462D
:103A400019460CF00DF80BF06BFC02460B462046B5
:103A500029460BF0E3FD044630460D460BF060FCB2
:103A600002460B46204629460BF0AEFC0BF0A4FFA5
:103A70005146044607F1D40004F002FE01283A4DF5
:103A80007FF4B7AB434B2A681B787033204652F85B
:103A900023100BF0E5FF0446FFF7ABBB3E4802F0F6
:103AA0004FFB0123BB6205E63C4802F049FB34E6CC
:103AB0003B4930460AF0A6FD044648B330480AF0B8
:103AC00027FC01E001308BD000212E4802F07CFC65
:103AD0000128F7D1334802F033FB3B6D013B7B6596
:103AE0007B6C013BFB65BB6FC7F8A030BB6EFB6610
:103AF000BB6C3B6677E703EB43021201013A232AD2
:103B00007FF675AD22491E48FB640AF0B7FB6FE5EE
:103B1000254930460AF076FD00283FF4F3AD1848F9
:103B20000AF0F6FB22469623164907F5FE7002F0CE
:103B3000F9FB1E4802F004FB07F5FE7002F000FBE3
:103B40001B484EE7D7F80C121A4802F057FB002E1C
:103B500052DDD7F8C420D7F8BC10002302FB01F5D2
:103B60001C4605EB080A35E05C8EFF1F64920100DD
:103B7000709201007C8D0100789201002492010076
:103B800020A0FF1FD08201002C920100575555053F
:103B9000A9140000C4A0FF1F0C920100D8910100DD
:103BA000349201003C92010048920100B498010057
:103BB000509201007C9201005BF822000BF0B0FBF8
:103BC000013402460B46A4B2904802F017FBA6420D
:103BD000234611DD434505EB0302EDD15BF82A00D6
:103BE0000BF09EFB013402460B46A4B2884802F05B
:103BF00005FBA6422346EDDCD7F8C43001339BB267
:103C000009F10109C7F8C430D7F8C0301FFA89F9A3
:103C10009945FFF6C7AED7F8B020D7F8503101323A
:103C200092B2C7F8B0202BB1DB68D7F8B010994238
:103C3000FFF69FAE774802F083FA7B6F002B4AD1E4
:103C40007B6B002B40F3F082FB6B7E6FD7F86880B4
:103C50001C1F15E040460BF0B9FF014628460CF04A
:103C6000BDF8002102F0ECFABB696B48B34206F1E3
:103C7000010601D002F064FA7B6BB34200F094803D
:103C800054F8045F654928460CF0B0F90028E1D1EA
:103C900040460BF09BFF014628460CF09FF804219C
:103CA00002F0CEFAE0E7D7F808125D4802F0A6FA73
:103CB0004DE7D7F804125A4802F0A0FA47E7D7F8C0
:103CC0000012574802F09AFA41E7D7F8FC1154481D
:103CD00002F094FA3BE707F2823500240FE035F852
:103CE000020F02F0C1FA002107F1EC0004F0C8FC59
:103CF00001388442484801D002F022FA0134002100
:103D000007F1EC0004F0BCFC8442E8DB454802F01B
:103D100017FA3B6A3A6E93423BDC7B6CFA6D013BCF
:103D2000934236DC3A6A396E8A4200F06A8207F5BD
:103D3000EA7307F5FE72002143F8041B9A42FAD198
:103D4000FB6D07F5CA7001331C46FB650AF088FB62
:103D50007B6CD7F80CD01A46A2423EF794AD3B6E6E
:103D600001333B66BA6CD7F810D09A423EF740ADAB
:103D70007C6802F0B3F93B6D7A6D013B934200F32E
:103D800035827B6D3A6D01339A427B653EF728ADF3
:103D900015E2214802F0D4F93B68002BC7DD194633
:103DA000214802F011FBC2E7FA2008F0AFF93B6CA2
:103DB000012BABD11D4802F0C3F93B6BB86E1C1F41
:103DC0000BF004FF00260546294654F8040F0CF0BA
:103DD00005F8002102F034FABB690F48B34206F13E
:103DE000010601D002F0ACF97B6BB342ECD125E2C5
:103DF00000233B6707F1C80BFEF78BBF0C4907F1A7
:103E0000CC0004F099FCF862FEF7CEBD788D01007D
:103E1000D4910100549201007C8D010000004843C0
:103E20007C920100FC940100D0820100A492010068
:103E3000B8900100C74802F083F90024C64BC64D74
:103E40001B6804F10C0203EB8203013458680BF089
:103E500067FA02460B46C14802F0D0F90A2CEDD1B0
:103E60002B68D86D0BF05CFA02460B46BC4802F09A
:103E7000C5F9BC4802F064F90024B74BB64D1B6885
:103E800004F11802013453F822000BF049FA0246FB
:103E90000B46B24802F0B2F90A2CEED12B68D3F8E7
:103EA00088000BF03DFA02460B46AD4802F0A6F939
:103EB000AD4802F045F90024A74BA74D1B6804F15B
:103EC000380203EB8203013458680BF029FA0246EA
:103ED0000B46A24802F092F90A2CEDD12B68D3F8D8
:103EE0000C010BF01DFA02460B469D4802F086F9C4
:103EF0009E4802F025F90024974B974D1B6804F16A
:103F00004402013453F822000BF00AFA02460B4631
:103F1000924802F073F90A2CEED12B68D3F83801DD
:103F20000BF0FEF902460B468D4802F067F9904807
:103F300002F006F90024884B874D1B6804F1220229
:103F400003EB8203013458680BF0EAF902460B4692
:103F5000824802F053F90A2CEDD12B68D3F8B40053
:103F60000BF0DEF902460B467D4802F047F9814826
:103F700002F0E6F80024784B774D1B6804F12E021E
:103F8000013453F822000BF0CBF902460B4673487C
:103F900002F034F90A2CEED12B68D3F8E0000BF0D4
:103FA000BFF902460B466E4802F028F9724802F04B
:103FB000C7F80024684B684D1B6804F14E0203EB00
:103FC0008203013458680BF0ABF902460B46634894
:103FD00002F014F90A2CEDD12B68D3F864010BF030
:103FE0009FF902460B465E4802F008F9634802F06A
:103FF000A7F80024584B584D1B6804F15A020134AD
:1040000053F822000BF08CF902460B46534802F09D
:10401000F5F80A2CEED12B68D3F890010BF080F95B
:1040200002460B464E4802F0E9F8554802F088F87F
:104030000024494B484D1B6804F1640203EB8203E2
:10404000013458680BF06CF902460B46434802F005
:10405000D5F80A2CEDD12B68D3F8BC010BF060F930
:1040600002460B463E4802F0C9F8464802F068F89E
:104070000024394B384D1B6804F17002013453F8A9
:1040800022000BF04DF902460B46344802F0B6F818
:104090000A2CEED12B68D3F8E8010BF041F9024667
:1040A0000B462F4802F0AAF8374802F049F80024DE
:1040B000294B294D1B6804F17A0203EB820301347A
:1040C00058680BF02DF902460B46244802F096F88A
:1040D0000A2CEDD12B68D3F814020BF021F902461B
:1040E0000B461F4802F08AF8284802F029F80024FD
:1040F000194B194D1B6804F18602013453F8220054
:104100000BF00EF902460B46144802F077F80A2C21
:10411000EED12B68D3F840020BF002F902460B46B1
:104120000F4802F06BF81A4802F00AF800240A4B14
:10413000094D1B6804F1900203EB820301345868B7
:104140000BF0EEF802460B46044802F057F80A2C32
:1041500020E000BF688D01005C8EFF1F788D01009C
:10416000D4910100888D0100948D0100A48D01007F
:10417000B48D0100C88D0100DC8D0100F48D0100BB
:10418000088E0100188E0100288E0100388E010073
:10419000488E0100CBD12B68D3F86C020BF0C0F82D
:1041A00002460B462B4802F029F8FEF738BD2A4894
:1041B00001F0C6FF204601F0C3FFD7F810D0274812
:1041C00001F0BEFF02F094F802F02EF8244B1A2200
:1041D00003F109000121234C54F83220834282F874
:1041E00000113EF48EAA13F8012FF4E71E4801F0E7
:1041F000A7FF002C3FF4C5AD21461C4802F0E4F8AF
:10420000BFE5FA6D93427FF492AD194801F098FF33
:104210008DE5B9F1000F7FF793AB9846FFF7FCBA35
:1042200002F038FEFEF7C2BDFA2007F06FFF3B6CCC
:10423000012B7FF46BAD0F4801F082FFFA2007F0ED
:1042400065FF63E5002B3FF47BABD3F80C80FFF7F1
:104250004ABB00BFD4910100849201003095010057
:10426000498A0100209B01007C8D0100D082010061
:1042700030920100A4920100F0B5012887B030D03F
:10428000002002F00FFD092820DD1D4B1D4F1C688A
:104290001D4A2368266825682168A4680594C6F32A
:1042A0000746C5F30724C9B21B0E029103901749B4
:1042B000009601940497164801F0A0FF154801F0FC
:1042C0003FFF07B0BDE8F04002F012B801461248C7
:1042D00001F094FF02F00CF807B0BDE8F04001F0E7
:1042E000A3BF00210D4802F06FF8054B1B681A6848
:1042F00090420B4A18BF18601378DB07FCD5BFE764
:104300005C8EFF1F608D0100BC8C0100C48C01001D
:10431000B892010030950100588C0100D082010054
:10432000010002402DE9F04FC3B035AF31234FF407
:10433000FA72AF49384601F0F5FF38460DF020FC1F
:104340000DF1D305064600240BE015F8010F0CF023
:10435000B7F8034620B938462B700DF011FC06461D
:104360000134B442F1D3022E40F299809DF8D4403A
:1043700020460CF091F8002800F06A83303C092CAC
:10438000384600F2A7830CF04BF89A4B984200F0A5
:1043900065834BD9984B984200F0F48600F2B883BD
:1043A00003F1564303F5731303F20A43984200F0F6
:1043B000948300F23B82914B984200F0CD8100F251
:1043C0008F808F4B98426DD003F1736303F53623D2
:1043D00003F24633984240F019838A4D8448002105
:1043E00001F0D8FF0BF0A0FA431C044657D000217F
:1043F0007F4801F0CFFF844B1B6803EB8404064623
:10440000D4F844020F460AF08BFF02460B463046B2
:1044100039460BF041FA28B9304639460BF0CCFA50
:10442000C4F844022B78DF07FCD5D7E7774B9842D6
:1044300001F0638341F2E381754B984201F0878379
:1044400000F2A487734B984200F01D8740F2F38678
:10445000714B984200F0C586704B984200F0BC86C4
:104460006F4B984240F0878002F028F86D4801F0C9
:104470001FFF4B210920FCF707F8FCF733F86A4BC4
:104480004FF480241C6040F2EE2007F03FFE674BA3
:1044900000211C600920FBF7F7FFFCF723F843B06D
:1044A000BDE8F08F02F00AF8614801F001FF4B21EE
:1044B0000720FBF7E9FFFCF715F85B4B4FF480246E
:1044C0001C6040F2EE2007F021FE584B00211C60DA
:1044D0000720FBF7D9FFFCF705F843B0BDE8F08FE4
:1044E000544B984200F0B28003F1826303F58723B6
:1044F00003F24773984244D04F4B98423BD1424C11
:104500003B48002101F046FF2568064668690F46D2
:104510000AF006FF02460B46304639460BF0BCF95E
:1045200020B9304639460BF047FA6861354B1A78A6
:10453000D507FCD500212E4801F02CFF2468064643
:10454000606A0F460AF0ECFE02460B4630463946DA
:104550000BF0A2F920B9304639460BF02DFA606213
:10456000284B1A78D007FCD543B0BDE8F08F334B09
:10457000984201F0BD82324801F040FE43B0BDE8F0
:10458000F08F01F09BFF2F4801F092FE00211848A8
:1045900001F000FF04462C480D4601F089FE002181
:1045A000134801F0F7FE06460F46204629460BF059
:1045B000BBF93946054630460BF0B6F901462846A8
:1045C000FBF762FFFBF78EFF174B4FF480241C6054
:1045D0004FF47A7007F09AFD144B28461C600021B6
:1045E000FBF752FFFBF77EFF43B0BDE8F08F00BF43
:1045F000D0820100C40CD95C701783B7F27ACA72FA
:10460000EC767A61010002405C8EFF1FC232F92312
:10461000B23CD33E72F2602DC60DA03040FED935BB
:10462000EC6CF12EF495010044F00F4048F00F407F
:10463000E4950100E0DE087E72DEE172B5185A01F1
:104640006096010000950100349501000021C348E7
:1046500001F0A0FE0BF068F9C4B20021204607F07B
:104660002DFD204607F01CFD01F02CFEC82007F0B0
:104670004DFD204607F014FD01F024FEC82007F090
:1046800045FD204607F00CFD01F01CFEC82007F098
:104690003DFD204607F004FD01F014FEC82007F0A0
:1046A00035FD204607F0FCFC01F00CFEC82007F0A9
:1046B0002DFD204607F0F4FC01F004FEC82007F0B1
:1046C00025FD204607F0ECFC01F0FCFDC82007F0BA
:1046D0001DFD204607F0E4FC01F0F4FDC82007F0C2
:1046E00015FD204607F0DCFC01F0ECFDC82007F0CA
:1046F0000DFD204607F0D4FC01F0E4FDC82007F0D2
:1047000005FD204607F0CCFC01F0DCFDC82007F0D9
:10471000FDFC204607F0C4FC01F0D4FDC82007F0E2
:10472000F5FC204607F0BCFC01F0CCFDC82007F0EA
:10473000EDFC204607F0B4FC01F0C4FDC82007F0F2
:10474000E5FC204607F0ACFC01F0BCFDC82007F0FA
:10475000DDFC43B0BDE8F08FDFF83C827F480021EC
:1047600001F018FE0BF0E0F8461C04463FF497AE4B
:10477000DFF820927948002101F00CFED9F80050B2
:10478000A40025440646D5F870020F460AF0C8FD7D
:1047900002460B46304639460BF07EF828B93046C3
:1047A00039460BF009F9C5F8700298F80030DD07BA
:1047B000FBD50021694801F0EDFDD9F800502544F2
:1047C0000646D5F89C020F460AF0AAFD02460B46A3
:1047D000304639460BF060F828B9304639460BF0C0
:1047E000EBF8C5F89C0298F80030D807FBD50021FB
:1047F0005A4801F0CFFDD9F800301C440646D4F8E1
:10480000C8020F460AF08CFD02460B463046394678
:104810000BF042F828B9304639460BF0CDF8C4F811
:10482000C80298F80030D907FBD597E74C4B98425F
:1048300055D040D8A3F1B263A3F5AA33A3F5AB7367
:10484000984200F0AB8003F16B7303F57143E633DC
:1048500098422AD0434B98427FF48DAE01F02EFE51
:10486000414801F025FD4B210520FBF70DFEFBF72C
:1048700039FE3E4B4FF480241C6040F2EE2007F0DE
:1048800045FC3B4B00211C600520FBF7FDFDFBF7C1
:1048900029FE43B0BDE8F08FB0F57A7F01F01381B7
:1048A00040F2EF3398427FF466AE0020FFF7E4FC5D
:1048B00043B0BDE8F08F2F4B984220D003F15473E2
:1048C00003F5A93303F2BF13984212D02A4B984242
:1048D0007FF451AE02F08CF843B0BDE8F08F01F0E8
:1048E000EDFD264801F02CFCFBF74EFE43B0BDE881
:1048F000F08F0120FFF7C0FC43B0BDE8F08F2048E7
:1049000001F0D6FC40F6B83007F000FC01F0FEFDE7
:104910001C4801F0CDFC40F6B83007F0F7FB01F081
:1049200009FE194801F0C4FC40F6B83007F0EEFB70
:1049300001F0F0FD154801F0BBFC40F6B83007F07F
:10494000E5FB01F0BBFD40F6B83007F0DFFB104897
:1049500001F0AEFC43B0BDE8F08F00BFD082010093
:10496000C8A9339BEC800394D495010044F00F4018
:1049700048F00F4073966DA25E3A62A188930100E1
:10498000A8930100C8930100EC9301000C9401006E
:104990002C9401005C8EFF1F01000240CA4CCB48E2
:1049A000002101F0F7FC25680646A8690F460AF0C9
:1049B000B7FC02460B46304639460AF06DFF20B977
:1049C000304639460AF0F8FFA861C14B1A78D10782
:1049D000FCD50021BD4801F0DDFC24680646A06A34
:1049E0000F460AF09DFC02460B46304639460AF057
:1049F00053FF20B9304639460AF0DEFFA062B44BBF
:104A00001A78D207FCD543B0BDE8F08FB14B98427D
:104A10007FF4B1AD01F052FDAF4801F049FC322105
:104A20000220FBF731FDFBF75DFDAC4B4FF480241A
:104A30001C6040F2EE2007F069FBA94B00211C60CE
:104A40000220FBF721FDFBF74DFD43B0BDE8F08FE1
:104A5000A44801F0D3FB43B0BDE8F08F01F02EFD78
:104A6000DFF878829E4F05254FF480269E4801F09E
:104A700067FB284601F026FC0024204601F022FCBA
:104A800021462846FBF700FD0A34FBF72BFDC8F84A
:104A900000604FF4487007F039FBC82C3E60ECD141
:104AA000204601F00FFC21462846FBF7EDFC32348E
:104AB000FBF718FDC8F800604FF4487007F026FBBC
:104AC000B4F5FA6F3E60EBD101350A2DCED143B07B
:104AD000BDE8F08FFCF70AFD57E444F6206007F0CC
:104AE00087FF824B2BAA1146186816929A889B79E9
:104AF0002B908A808B7108F0B7F8002840F07D81F8
:104B00001698072108F04CF8322007F0FFFAF2E778
:104B1000774B984200F0018100F2A181754B9842D9
:104B200000F07F8140F2B482734B98424ED0734BB9
:104B3000984229D1664D6548002101F02BFC0AF00E
:104B4000F3FE431C04463FF4AAAC00215F4801F089
:104B500021FC5D4B1B6803EB84040646D4F83C0142
:104B60000F460AF0DDFB02460B46304639460AF096
:104B700093FE28B9304639460AF01EFFC4F83C01BE
:104B80002B78DF07FCD5D6E75D4B98427FF4F3AC7A
:104B900001F094FC5B4801F08BFB4B210820FBF7F4
:104BA00073FCFBF79FFC4D4B4FF480241C6040F2DC
:104BB000EE2007F0ABFA4A4B00211C600820FBF7FF
:104BC00063FCFBF78FFC43B0BDE8F08F4E4D4F4CBC
:104BD00001F074FC0FCD26AE55F804EB179637465E
:104BE0000FC70FCD2BAE16960FC62B68C7F800E087
:104BF00001253360A0462F460E2002F039F9179B9D
:104C00001293169B15934FF00009159B53F8042B34
:104C10001593129B53F8046B12935FFA82FA4FF0CC
:104C2000140B59463046FBF72FFCFBF75BFC54F89E
:104C30003A304FF4967083F8805007F067FA0BF122
:104C40000A0B54F83A30BBF5827F83F80051E8D163
:104C50004FF4FA713046FBF717FCFBF743FC58F8AA
:104C60003A304FF4967083F8807007F04FFA58F896
:104C70003A304FF4487183F800713046FBF704FC7A
:104C8000FBF730FC58F83A304FF4967083F8807098
:104C900007F03CFA58F83A30304683F800710021AA
:104CA00009F10109FBF7F0FBFBF71CFCB9F1050F5B
:104CB0002ED0B9F1040FA8D14FF4167007F026FAE0
:104CC0000E2002F0D5F8A0E75C8EFF1FD082010015
:104CD00001000240EC0FD15FBC95010044F00F4091
:104CE00048F00F4044930100A0950100188A01008C
:104CF00014E6E5D6EC8A8CC6B64ED9C9C2DCA8D675
:104D0000ECF135C8EC950100208A0100209B0100E0
:104D100041F2707007F0FAF96EE701F0CFFBDFF8AF
:104D20002483C64F01254FF48026C54801F008FAB8
:104D3000284601F0C7FA0024204601F0C3FA2146B4
:104D40002846FBF7A1FB0534FBF7CCFBC8F8006055
:104D50004FF47A7007F0DAF9322C3E60ECD120463D
:104D600001F0B0FA21462846FBF78EFB0A34FBF728
:104D7000B9FBC8F800604FF47A7007F0C7F9B4F5D2
:104D8000967F3E60EBD10135052DCED1AC48AD4FBD
:104D9000AA4E01F0D5F90A2001F094FA0024204629
:104DA00001F090FA4FF4802521460A20FBF76CFBB6
:104DB0000534FBF797FB3D604FF47A7007F0A6F9D6
:104DC000322C3560EBD19F4F9C4E204601F07AFA91
:104DD0004FF4802521460A200444FBF755FBFBF7DE
:104DE00081FB3D604FF47A7007F090F9B4F5967F3F
:104DF0003560EAD143B0BDE8F08F0B2407F034FFF3
:104E0000062800F3C481013C03D0322007F07EF96C
:104E1000F4E707F029FF002800F0B98107F034FF1C
:104E2000F7E701F04BFB884801F042FA32210320FA
:104E3000FBF72AFBFBF756FB824B4FF480241C60E8
:104E400040F2EE2007F062F97C4B00211C60032049
:104E5000FBF71AFBFBF746FB43B0BDE8F08F7B4B3B
:104E6000984200F0A18077D9794B98424CD0794B89
:104E7000984227D1784D7948002101F08BFA0AF049
:104E800053FD431C04463FF40AAB0021734801F074
:104E900081FA734B1B6803EB84040646606B0F4674
:104EA0000AF03EFA02460B46304639460AF0F4FC58
:104EB00020B9304639460AF07FFD60632B78DF0762
:104EC000FCD5D8E7674B98427FF455AB01F0F6FA72
:104ED000654801F0EDF94B210620FBF7D5FAFBF709
:104EE00001FB584B4FF480241C6040F2EE2007F089
:104EF0000DF9524B00211C600620FBF7C5FAFBF7A9
:104F0000F1FA43B0BDE8F08F534D5448002101F051
:104F100041FA0AF009FD461C04463FF4C0AA0021EC
:104F20004E4801F037FA4E4B1B6803EB84040646EB
:104F3000206E0F460AF0F4F902460B463046394619
:104F40000AF0AAFC20B9304639460AF035FD206641
:104F50002B78D807FCD5D8E7444B98426CD0444B0B
:104F600098423FD0434B98427FF405AB01F0A6FA3C
:104F7000414801F09DF932210A20FBF785FAFBF741
:104F8000B1FA304B4FF480241C6040F2EE2007F061
:104F9000BDF82A4B00211C600A20FBF775FAFBF7CD
:104FA000A1FA43B0BDE8F08F01F088FA334801F070
:104FB0007FF932210120FBF767FAFBF793FA214BC7
:104FC0004FF480241C6040F2EE2007F09FF81B4B4A
:104FD00000211C600120FBF757FAFBF783FA43B06E
:104FE000BDE8F08F264801F0ABF80021254801F01C
:104FF000EBF901460446244801F000F9204601F08F
:1050000003F8224801F054F943B0BDE8F08FB0F541
:105010007C7F3FF46EAC7FF63FAC40F20543984294
:1050200000F05A8540F23643984200F0618540F224
:10503000034398427FF49FAA07F0BAFF48F00F405D
:10504000A095010044F00F40C4950100EC9415F9BF
:10505000A617FDFAA699F4FF01000240D0820100D4
:105060005C8EFF1FECFBBEFADC95010090D721F1AE
:10507000C28D5CF36C5038ECFC950100B4950100D6
:105080000496010014960100189601002C96010068
:10509000A3F14B63A3F57E23A3F62A23984247D0BE
:1050A000AE4B984229D1AE4DAE48002101F072F9C5
:1050B0000AF03AFC461C04463FF4F1A90021A94835
:1050C00001F068F9A84B1B6803EB84040646D4F88A
:1050D00068010F460AF024F902460B46304639466D
:1050E0000AF0DAFB28B9304639460AF065FCC4F804
:1050F00068012B78D807FCD5D6E79C4B98427FF403
:105100003AAA0021974801F05FF9994AA0F59C431B
:10511000213B9342944B52D81B689A68904218BF27
:1051200098608F4B1A78D407FCD543B0BDE8F08F58
:105130008B4D8C48002101F02DF90AF0F5FB431C42
:1051400004463FF4ACA90021864801F023F9864BC0
:105150001B6803EB84040646D4F810010F460AF0DE
:10516000DFF802460B46304639460AF095FB28B96F
:10517000304639460AF020FCC4F810012B78DF07CE
:10518000FCD5D6E7FCF76AFF43B0BDE8F08F0724F3
:1051900007F07AFD013CFBD19DF8B0309DF8AF409F
:1051A0004FF47A7003EB042406F0B0FF21467148F7
:1051B00001F024F807F092FC43B0BDE8F08F1B68C3
:1051C0006D4A9968914218BF9A60654B1A78D0076A
:1051D000FCD543B0BDE8F08F01F0BEFA43B0BDE8A6
:1051E000F08F5F4D5F48002101F0D4F80AF09CFB7E
:1051F000411C04463FF453A900215A4801F0CAF863
:10520000594B1B6803EB84040646D4F8B8000F46DC
:105210000AF086F802460B46304639460AF03CFB57
:1052200028B9304639460AF0C7FBC4F8B8002B78D5
:10523000DA07FCD5D6E7A3F1D473A3F58833403B56
:10524000984261D04D4B984255D101F037F94C4806
:1052500001F02EF84B210420FBF716F9FBF742F979
:10526000484B4FF480241C6040F2EE2006F04EFFC5
:10527000454B00211C600420FBF706F9FBF732F9CF
:1052800043B0BDE8F08F384C3648002101F082F879
:1052900025680646E8680F460AF042F802460B46C3
:1052A000304639460AF0F8FA20B9304639460AF055
:1052B00083FBE8602A4B1A78D107FCD500212948E6
:1052C00001F068F824680646E0690F460AF028F8FD
:1052D00002460B46304639460AF0DEFA20B930461F
:1052E00039460AF069FBE0611D4B1A78D207FCD5FC
:1052F00043B0BDE8F08FA3F17373A3F5E333BE3B76
:1053000098427FF438A9FCE6154D1648002101F0BB
:1053100041F80AF009FB461C04463FF4C0A80021EE
:10532000104801F037F8104B1B6803EB8404064665
:10533000D4F8EC010F4609F0F3FF02460B46304665
:1053400039460AF0A9FA28B9304639460AF034FB42
:10535000C4F8EC012B78D807FCD5D6E7E2D765BCBA
:1053600001000240D08201005C8EFF1F467A9BB98B
:10537000DE8E6D004C960100A0680600EC05482DFD
:10538000CC95010044F00F4048F00F40BB4B9842D1
:1053900000F0128200F28C80B94B984271D003F574
:1053A000B81303F5BC530833984232D003F17E435F
:1053B00003F5AB1303F5AE5398427FF4DCA8B14D6F
:1053C000B148002100F0E6FF0AF0AEFA411C0446A5
:1053D0003FF465A80021AC4800F0DCFFAB4B1B6834
:1053E00003EB84040646D4F818020F4609F098FF30
:1053F00002460B46304639460AF04EFA28B9304686
:1054000039460AF0D9FAC4F818022B78DA07FCD525
:10541000D6E79E4C9C48002100F0BCFF256806465C
:1054200028690F4609F07CFF02460B463046394694
:105430000AF032FA20B9304639460AF0BDFA28613E
:10544000904B1A78D707FCD500218F4800F0A2FFB7
:1054500024680646206A0F4609F062FF02460B46A2
:10546000304639460AF018FA20B9304639460AF073
:10547000A3FA2062834B1A78D607FCD543B0BDE867
:10548000F08F834800F014FF00217F4800F082FF76
:105490000AF04AFA4FF47A7401230A2102468DE891
:1054A000120018460721FCF729F943B0BDE8F08F38
:1054B000784B984200F0FA80774B984231D0A3F1B4
:1054C000CE63A3F5CF33A03B98427FF454A86D4D33
:1054D0006D48002100F05EFF0AF026FA411C0446E8
:1054E0003EF4DDAF0021684800F054FF674B1B68B5
:1054F00003EB84040646D4F894010F4609F010FF2C
:1055000002460B46304639460AF0C6F928B93046FD
:1055100039460AF051FAC4F894012B78DA07FCD521
:10552000D6E75E4D5E4C00F0C9FF0FCD55F804EB99
:1055300021AF0FC70FCD26AE0FC60DF1640A2B6841
:10554000336000215046C7F800E008F0C9FF40F280
:10555000145006F0DBFD26AB12932BAB26460DF163
:10556000840B1693129B5BF8048B53F8045B129325
:10557000EDB24FF0140949464046FAF785FFFAF7B5
:10558000B1FF54F83530474916984FF0010283F8BF
:1055900080204FF4FA73002200F0C4FE014650460A
:1055A00009F012F83F49504609F00EF809F10A09CE
:1055B00054F835304FF00102B9F5827F83F80021AD
:1055C0004FF00107D7D14FF4FA714046FAF75CFF6C
:1055D000FAF788FF56F83530DDF85890314983F8EE
:1055E000807000224FF4FA73484600F09BFE01469B
:1055F000504608F0E9FF2B49504608F0E5FF56F801
:1056000035304FF4487183F800714046FAF73CFF9B
:10561000FAF768FF56F83530224983F88070002287
:105620004FF4FA73484600F07DFE0146504608F0FC
:10563000CBFF1C49504608F0C7FF56F835304046AE
:1056400083F800710021FAF71FFFFAF74BFF1649A4
:10565000504608F0B9FF26AB5B4583D151461DA8E3
:1056600008F052FF1DA800F01FFE1DA808F0F8FE6C
:10567000504608F0F5FE43B0BDE8F08F1260955239
:10568000EA500A5001000240D08201005C8EFF1FE8
:105690006895010026324A56B6D60B5C208A010076
:1056A000209B01007C8D0100F48E01000021C34885
:1056B00000F070FE0AF038F9C4B20021204606F06E
:1056C000FDFC204606F0DCF800F0FCFDC82006F0EA
:1056D0001DFD204606F0D4F800F0F4FDC82006F0C9
:1056E00015FD204606F0CCF800F0ECFDC82006F0D1
:1056F0000DFD204606F0C4F800F0E4FDC82006F0D9
:1057000005FD204606F0BCF800F0DCFDC82006F0E0
:10571000FDFC204606F0B4F800F0D4FDC82006F0E9
:10572000F5FC204606F0ACF800F0CCFDC82006F0F1
:10573000EDFC204606F0A4F800F0C4FDC82006F0F9
:10574000E5FC204606F09CF800F0BCFDC82006F001
:10575000DDFC204606F094F800F0B4FDC82006F009
:10576000D5FC204606F08CF800F0ACFDC82006F011
:10577000CDFC204606F084F800F0A4FDC82006F019
:10578000C5FC204606F07CF800F09CFDC82006F021
:10579000BDFC204606F074F800F094FDC82006F029
:1057A000B5FC204606F06CF800F08CFDC82006F031
:1057B000ADFC43B0BDE8F08F814800F0C1FC00F0C3
:1057C0007DFE002108460122FAF78EFE7D4800F09A
:1057D000B7FC002108460222FAF786FE7A4800F05C
:1057E000AFFC002108460322FAF77EFE774800F05E
:1057F0005FFD0120FEF740FD43B0BDE8F08F40F2B1
:105800004C4398423EF44BAE7FF601AC704B98424D
:1058100000F0628140F226816E4B984200F0F080E9
:105820006D4B984229D16D4D6448002100F0B2FDC6
:105830000AF07AF8421C04463EF431AE00215F487B
:1058400000F0A8FD664B1B6803EB84040646D4F801
:10585000F4020F4609F064FD02460B463046394615
:105860000AF01AF828B9304639460AF0A5F8C4F803
:10587000F4022B78DB07FCD5D6E75A4B98427EF42E
:105880007AAE2BAB169326AB17930DF1640A4FF447
:105890007A714A4800F098FD05460120FAF76CFE3F
:1058A0000AF094F98346002002F08EFF044600209F
:1058B00002F08AFF014620460AF0D4F80446002090
:1058C00002F082FF014620460AF0CCF846490AF071
:1058D00085FA169A1799814621A802F0CFFF1DAAD2
:1058E000514618A803F088FCC82006F00FFC4FF4BE
:1058F0007A760024112005F0C3FF013E0444F9D15B
:10590000012006F003FC7621384802F00DFD3748EF
:1059100002F000FE0646354802F008FE074633480E
:1059200002F0FEFD8046314802F006FE1590584612
:1059300009F0F6FC2E4B83FB0432E417C4EBA214EF
:10594000CDE912011D9A19990A94189C10920F9191
:105950002B9A26990E944846219C0D920C910B94FB
:1059600009F0DEFC159BCDE9080118460AF02AF97A
:1059700020490AF033FA09F0D3FCCDE906011E49AB
:1059800040460AF02BFA09F0CBFCCDE90401384679
:1059900009F0C6FCCDE90201304609F0C1FCDDE9A1
:1059A0001223CDE90001154800F028FC00F0A0FC0E
:1059B00001357FF46CAF43B0BDE8F08FD0820100B9
:1059C00068930100709301007893010080930100B7
:1059D0007026571A645AEC22DEFD71230100024042
:1059E0005C8EFF1F4D4B6720000040402CA0FF1F26
:1059F000D34D621000007A440000C8426094010058
:105A0000684DDFF8CC91DFF8CC8100F057FD0FCD69
:105A10002BAC0FC40FCD0FC495E8030084E803003E
:105A20002BAC54F8045B6048294600F0E7FB4FF4C8
:105A3000802632212846FAF727FDFAF753FD4FF466
:105A4000FA70C9F8006006F061FB28460021C8F82A
:105A50000060FAF719FDFAF745FDBC42E1D143B009
:105A6000BDE8F08F514B98422DD0514B98427EF4B7
:105A70007EAD504D5048002100F08CFC09F054FFE1
:105A8000461C04463EF40BAD00214B4800F082FC5E
:105A90004A4B1B6803EB84040646D4F88C000F467F
:105AA00009F03EFC02460B463046394609F0F4FE4A
:105AB00028B93046394609F07FFFC4F88C002B78AE
:105AC000D807FCD5D6E73E4800F03AFB3D4800F049
:105AD000EFFB43B0BDE8F08F3B4B186809F020FCAA
:105AE00002460B46394800F089FB43B0BDE8F08F11
:105AF000FBF770FB43B0BDE8F08F2E4D2E48002120
:105B000000F048FC09F010FF411C04463EF4C7AC0D
:105B10000021294800F03EFC284B1B6803EB84045D
:105B20000646D4F8E4000F4609F0FAFB02460B469D
:105B30003046394609F0B0FE28B93046394609F0FA
:105B40003BFFC4F8E4002B78DA07FCD5D6E7194D03
:105B50001948002100F01EFC09F0E6FE431C044633
:105B60003EF49DAC0021144800F014FC134B1B685C
:105B700003EB84040646D4F8C0010F4609F0D0FBBD
:105B800002460B463046394609F086FE28B93046B3
:105B9000394609F011FFC4F8C0012B78DF07FCD5A6
:105BA000D6E700BFF0890100A895010050662C05DA
:105BB000A673000F01000240D08201005C8EFF1F1F
:105BC000C48C01006093010034A1FF1F38960100CE
:105BD00044F00F4048F00F40194B00B51B6899681E
:105BE00044F61F62914283B019DD9968154A9142CB
:105BF00015DC00F0A3FD01E001F028F800F078FAD0
:105C0000431CF9D0019003F0A5F801985B2810D04F
:105C1000FEF788FB03B05DF804EB00F005BB996864
:105C2000094A914200D09A60084A1378D907FCD5F6
:105C3000DFE7FCF71BFD03B05DF804EB00F0F4BAFE
:105C40005C8EFF1F00DD6D00A068060001000240B1
:105C500038B50E4D0E4C2846002108F041FC224676
:105C600028460C490AF0D6FB4FF0FF310A4802F0F3
:105C700043FB0A4B0A492246802400251C71184622
:105C80001D60BDE838400AF0C5BB00BFF4A0FF1F8F
:105C9000508EFF1F61E400002CA0FF1F20A0FF1FFB
:105CA0009D14000038B5164C0D20012106F006FAAF
:105CB00004F109051A2001E014F8010F002106F093
:105CC000FDF9AC42F8D10121062006F0F7F90D4BA1
:105CD00010221A600121202006F0F0F90021222074
:105CE00006F0ECF90021232006F0E8F90021242039
:105CF00006F0E4F900212520BDE8384006F0DEB9C1
:105D00007D960100C4F00F4008B500F003FC1A4B6B
:105D10001B6893F81024012A1FD0042000F074F9A6
:105D20004FF4E13000F066F900F0C8FB41F2883032
:105D300006F0ECF9FFF7B6FF104804F027FE05F077
:105D40003BFE05F0FFFF04F083FE0D4800F0F8F97C
:105D50000C48BDE8084000F0ABBA93F8102432B903
:105D6000094A1378DB07FCD500F0FEFDD5E70022D9
:105D700083F81024F4E700BF5C8EFF1F2894FF1FF8
:105D8000C48C0100609301000100024010B50024A2
:105D9000E0B20021013406F091F9212CF8D110BDB8
:105DA00070B5084C236863B1074D00262846EE54B1
:105DB0000BF0E6FE0146284606F090FC06F0F2FCE9
:105DC000266070BD7CA2FF1F6CA1FF1FF8B50B4DB4
:105DD0000B4E0C4F441E14F8013F73B129684A1C46
:105DE000142A73542A6002D03B68002BF3D1FFF7CA
:105DF000D7FF14F8013F002BF0D1F8BD7CA2FF1FA4
:105E00006CA1FF1F58A1FF1F2DE9F04FDFF87C8127
:105E1000D8F800508BB0002D00F09780DFF870A10B
:105E2000DFF860E1DAF8003005F1010B5FFA8BF181
:105E300003F141024B1E0EF80520DBB2002900F0F1
:105E4000928001330EEB030172464FF6FF7412F895
:105E5000013B83EA142383EA131343EA04249BB22D
:105E600084EA033484EA43138A429CB2EFD1C4F338
:105E700003230093C4F303134FEA143C019304F08B
:105E80000F043D4FDFF80C910FCF05AE0FC60AABE4
:105E90009C44009B0AAA13441A46019B0AA90B447E
:105EA00019460AAB1C443B6833701CF8146C0EF89E
:105EB0000B600EEB0503063512F8147C11F8140C78
:105EC00014F8141C9F7004220026D87019715A719E
:105ED0002A4C0EF805602A4FC8F800509B4601E096
:105EE00006F08EFC06F07CFC0028F9D1D9F80030D1
:105EF0000BB1002E3CD02348FFF768FFFFF750FF9F
:105F000023680393039D03E006F0AEFC01301FD12C
:105F100023680493049B5B1BF92BF5D93B6801367E
:105F20000133052E3B60DDD1DAF80030164A591CEA
:105F300082FB0123CA17C2EBE3021A2303FB1213ED
:105F40000022CAF80030C8F800200BB0BDE8F08F7E
:105F500006F056FC054606F087FC0130F8D1EDB29C
:105F6000062DDBD1E0E70F2401940094A44688E7D6
:105F70005846FFF72BFFC1E78896010080A3FF1F5B
:105F800068A1FF1F88A1FF1F4FECC44E5CA1FF1F3B
:105F900060A1FF1F648EFF1FF0B5134D134F144E09
:105FA00083B0044614F8012B7AB1042AFAD02B6886
:105FB0003168FA5401332B6049B9EA2BF2D1FFF76B
:105FC00023FF14F8012B002AEFD103B0F0BD02A883
:105FD00014F8013C0022ADF8042000F8043DFFF75E
:105FE000F5FE2B68E9E700BF5CA1FF1F88A1FF1F3A
:105FF000648EFF1F430803F1376303F5D833B3FB07
:10600000F0F006F093B900BF042805D0064A074B0C
:1060100000211160186070470349044B01200322DE
:1060200008601A60704700BF84A1FF1F608EFF1FC9
:10603000F8B5124D124E134F06F0D2FB0446A8B924
:106040002B78002BF8D033780F4ADB07F4D53B6868
:1060500012689B1A0E2BEFD907F000FE0028EBD038
:106060000A4B1C60BDE8F84007F0BCBD074B01229D
:106070001A60BDE8F84006F0C3BB00BF78A5FF1F5B
:1060800090A5FF1F80A3FF1F88A6FF1F64A1FF1F0D
:1060900010B50E4B1B7803F0FF0473B10C4B1C784A
:1060A00014F0010409D00B4B0B4A1B6812689B1AB1
:1060B0000E2B06D907F0D2FD044606F091FB2044D2
:1060C00010BD06F08DFB0024204410BD78A5FF1FF5
:1060D00090A5FF1F80A3FF1F88A6FF1F08B501E042
:1060E000FFF7A6FFFFF7D4FF0028F9D108BD00BFD6
:1060F00008B506F075FBA0B90D4B1B78ABB10D4B85
:106100001B78DB0711D50C4B0C4A1B6812689B1AD5
:106110000E2B0AD907F0A2FD38B1BDE8084007F000
:1061200085BDBDE8084006F09FBB4FF0FF3008BDBD
:1061300078A5FF1F90A5FF1F80A3FF1F88A6FF1F44
:1061400038B5264B1B680446BBB1254B1B68DBB931
:10615000244B1B78F3B1244B1B78DB071AD5234B58
:10616000234A1B6812689B1A0E2B13D90BF008FDEB
:106170000146204607F09CFD0CE01A4B1B7873B9D2
:106180001C4B1B68990705D51B4B1B682046EBB9B8
:10619000FFF71CFE2046BDE8384002F005BE124B5A
:1061A0001B78DD07ECD5114B114A1B6812689B1A4E
:1061B0000E2BE5D90F4D2B68DA07E3D50BF0E0FC89
:1061C0000146204607F074FD2B68DBE7FFF7E4FE8D
:1061D0002046BDE8384002F0E7BD00BF84A1FF1FA4
:1061E00064A1FF1F78A5FF1F90A5FF1F80A3FF1FBD
:1061F00088A6FF1F608EFF1F58A1FF1F0FB400B5B8
:10620000B5B036ABC82153F8042B009301A80FF0AA
:106210000FF9002301A88DF8CC30FFF791FF35B0BE
:106220005DF804EB04B0704708B5044B1B680BB174
:10623000FFF7EAFDBDE80840FFF7B2BD58A1FF1F18
:1062400010B590B00C4609F06BF82346CDE900017B
:10625000044A322103A80BF0D3F903A8FFF770FF1B
:1062600010B010BD9C96010000B58FB00346054AE2
:10627000322101A80BF0C4F901A8FFF761FF0FB0AC
:106280005DF804FBA496010000B58FB00346054AF3
:10629000322101A80BF0B4F901A8FFF751FF0FB0AC
:1062A0005DF804FBA89601000068FFF749BF00BF36
:1062B00008B5FFF745FF0248BDE80840FFF740BFBB
:1062C000BC8A010000B58FB00346074A322101A8FD
:1062D0000BF096F901A8FFF733FF0448FFF730FFF2
:1062E0000FB05DF804FB00BFA4960100BC8A01005A
:1062F00008B502F037FD02F003FDFFF721FF074864
:10630000FFF71EFF064B1B680BB1FFF77DFDFFF784
:1063100047FDBDE8084002F01DBD00BFBC8A01007A
:1063200058A1FF1F2DE9F04FDFF8648083B0D8F843
:1063300000400094009F82468B46164699460024F2
:10634000D8F800300193019DEB1B0EB19E4217D38C
:10635000FFF7CEFE013001D130BFF1E7FFF768FE55
:10636000C7B2394658460BF0C7F948B90AF8047065
:106370000134B9F1000F01D04C4501D22F46DFE7BF
:10638000002350460AF8043003B0BDE8F08F00BF88
:1063900080A3FF1F00B589B00A461823014601A853
:1063A000FFF7C0FF9DF8043023B90649002009B06B
:1063B0005DF804FB01A800210CF060FC09B05DF859
:1063C00004FB00BF0000F87F00B589B00A4618231F
:1063D000014601A8FFF7A6FF01A80AF025F809B0B9
:1063E0005DF804FBB0F90020B1F900309A4202D008
:1063F00003DD01207047002070474FF0FF307047E9
:1064000002680B689A4202D003DD01207047002029
:1064100070474FF0FF30704790F92410104B036025
:106420004B1C06D0F0B40F4E56F82130984201D0E4
:10643000F0BC70470C4F57F8213033B18D00002469
:106440005A1953685460002BFAD1084C2378002263
:10645000013B237047F8212046F82120E8E700BFE0
:10646000B896010050A3FF1F30A3FF1F71A3FF1FA9
:1064700070B590F924506B1C19D00D4A0D4B52F891
:106480002540EDB21D7094B10E46AD0002E02C44E3
:10649000646864B194F82530002BF8D02368204656
:1064A0002C4431461B6898476468002CF2D170BDBB
:1064B00030A3FF1F70A3FF1F704700BF38B5012135
:1064C0000220104D104C05F0F9FD002201214FF47F
:1064D000A07029600023934202D000BF0133FAE785
:1064E00021600246013AFDD19A1C282AF1D1054BC0
:1064F00001221A604FF47A7005F008FEBDE83840BA
:10650000F9F7B4BFC4F00F40C8F00F4000210220DB
:1065100005F0D4BD08B51F20012105F0CFFD044BC7
:1065200001221A604FF47A70BDE8084005F0EEBD14
:10653000C8F00F4000211F2005F0C0BD70B50A4B08
:106540000E461546042204460AF08AFB304609F03E
:106550003DFB294609F08EFB08F0C2F909F050FD19
:1065600054F8200070BD00BF0164000070B50A4BF4
:106570000E461546022204460AF072FB304609F028
:1065800025FB294609F076FB08F0AAF909F038FD49
:1065900034F9100070BD00BFE5630000FFFFFFFF8E
:1065A0002DE9F04F87B00B1E05936EDD4FF000080C
:1065B0004FF0000946464F4600EB430BCDE900671C
:1065C00044464D465E4607460022334B4046494608
:1065D00008F048FD804637F9020B894608F08EFE28
:1065E00022462B4682468B4608F03AFD42464B46F1
:1065F000CDE9020109F012F802460B462046294671
:1066000008F030FD02460B4604460D4650465946FA
:1066100008F026FDDDE9022308F0D6FE02460B460F
:10662000DDE9000108F01EFDBE42CDE90001CBD13D
:1066300006460F46059B581E08F060FE02460B46B4
:106640003046394608F0EAFF08F0ECF902460B46FE
:1066500004460D4608F006FD08F066F90CA3D3E9E0
:10666000002308F0DBFF02460B4600200B4908F030
:10667000F7FC02460B460A48FFF7C0FD20462946B4
:1066800009F09AF907B0BDE8F08F00260027D1E79E
:10669000EF39FAFE422EE63F0000F03F00002E40A8
:1066A000C496010070B5037803B300210C4602467E
:1066B0005B3B222B14D8DFE803F0271329131313B5
:1066C000131313131313131313131313131313139A
:1066D0001313131313131313131325131200013978
:1066E00012F8013F002BE3D194B989B95D2104462A
:1066F0000BF038FB054658B1407809F0EBFE48B97D
:10670000012070BD0131EBE70134E9E7013CE7E727
:10671000002070BD6E1C02F01DFB311B204602F0F4
:1067200027FB02F01FFB02F0EBFA314608220BF0C8
:1067300095FA0028ECD16870E2E700BF044A054BE7
:10674000126882B00192019A1A6002B0704700BFCD
:1067500080A3FF1FD8A2FF1F014B024A1A60704797
:106760000CED00E00400FA0508B50A4804F04CF905
:1067700005F07EFE0021022005F0A0FC1F20002174
:1067800005F09CFCFFF702FB4FF47A70BDE808406F
:1067900005F0BCBC2894FF1F002900F084802DE97F
:1067A000F04F0C469100661885B076680193002E74
:1067B00061D077187F68002F5AD007EB010EDEF802
:1067C0000480B8F1000F50D008EB010EDEF8049001
:1067D000B9F1000F40D009EB010EDEF804A0BAF1C8
:1067E000000F35D00AEB010EDEF804B0BBF1000F4C
:1067F0002AD00BEB010EDEF804500395DDB105EB5A
:10680000010EDEF80450029565B129444968FFF78E
:10681000C3FF029D95F8253023B12B6801995B6871
:1068200028469847039B93F8253023B10398019994
:1068300003685B6898479BF825302BB1DBF8003084
:1068400001995B68584698479AF82530002B3CD14F
:1068500099F82530002B31D198F825302BB1D8F894
:10686000003001995B684046984797F82530DBB9BE
:1068700096F825306BB994F8253013B905B0BDE80A
:10688000F08F236801995B68204605B0BDE8F04FA2
:106890001847336801995B683046984794F825306B
:1068A000002BEBD0EDE770473B6801995B683846F9
:1068B000984796F82530002BDDD0EAE7D9F800306C
:1068C00001995B6848469847C6E7DAF800300199B5
:1068D0005B6850469847BBE790F92420531C2CD0A6
:1068E000204B2DE9F04153F82260D2B21EB3930041
:1068F0000F46F1184C68DCB1E1184D6885B1E91814
:10690000D1F80480B8F1000F07D0434459683B46E2
:10691000FFF742FF98F82530B3B995F825306BB9E9
:1069200094F8253023B1236820465B6839469847A0
:1069300096F825307BB9BDE8F08170472B68284672
:106940005B6839469847EBE7D8F8003040465B680B
:1069500039469847E1E73368394630465B68BDE819
:10696000F041184730A3FF1F014804F093B800BF5F
:10697000B0A2FF1F70B58EB005F042FF051E19DDF5
:10698000642005F0C3FB0DF103040DF1290604F8A2
:10699000015F05F035FFB4420546F8D1002401A897
:1069A00025220E498DF82A400BF058F958B90120DC
:1069B0000EB070BD0A48FFF7C3FB0A48FFF7C0FBE3
:1069C00000200EB070BD0848FFF7BAFB0348FFF780
:1069D000B7FB0648FFF7B4FB01A8EFE744970100B7
:1069E000AC970100E09701006C9701008C970100C3
:1069F00010B54248CCB0FFF7A3FB00234EF660224F
:106A00003F4901A8FFF78EFC4EF660213C48FFF796
:106A1000DBFC012104460D2005F050FB600800F16D
:106A2000376000F5D830B0FBF4F005F07FFC0121B1
:106A30000D2005F02FFB4FF47A7005F067FB022163
:106A4000304805F04BFE4FF47A7005F05FFB0A21E9
:106A50002D4805F043FE4FF47A7005F057FB0C21EA
:106A60002A4807F025F940F2D241294807F0F0FC06
:106A70000621284805F032FE40F2D241264807F0B0
:106A8000E7FC4FF47A7005F041FB0D21234807F035
:106A90000FF901A80BF074F8014601A807F008F9F6
:106AA00007211F4805F01AFE01A80BF069F80146FE
:106AB00001A805F013FE4FF47A7005F027FB1321AF
:106AC000184807F0F5F80821174805F007FE4FF4BD
:106AD0007A7005F01BFBFFF74DFF10B11348FFF76D
:106AE0002FFB00210D2005F0D5FA1148FFF728FBF8
:106AF000FFF7FEFBFFF798FB4CB010BD08980100B4
:106B0000D0820100189801001C980100289801000B
:106B10007495FF1F389801005495FF1F409801009D
:106B200050980100589801006C9801007898010075
:106B3000B88C010010B5104C23680121D3F88400F3
:106B400004F0B0F923680121D3F8840004F088FA36
:106B500023681021D3F8840004F016FB2368032176
:106B6000D3F8840004F0D2F923680321D3F8840019
:106B7000BDE8104004F058BBA8A2FF1F70B501216A
:106B80000646212005F09AFA294B102018600021B2
:106B900005F094FAFFF7CEFF4FF41653013BFDD1F9
:106BA00064240025102004F06BFE013C0544F9D15B
:106BB000D6B9204CA4FB053464090021212005F03E
:106BC0007DFA204608F0FEFF4FF05E5109F052F8C2
:106BD000194909F04FF8194909F04CF8184909F01A
:106BE000FDF809F00DFA70BD4FF496610920F9F730
:106BF0004BFC012005F08AFA124A4FF480214FF431
:106C00007A531160013BFDD16425102004F038FE59
:106C1000013D0444F9D107480B4B4FF48022A0FBFF
:106C20000404294605201A60C440F9F72DFCC4E786
:106C300008F00F401F85EB51C3F5983F00007A44E0
:106C400013E9813E44F00F4048F00F4000B5104B6F
:106C500010491B68104A0968126883B00193019BB0
:106C60005B1A934207D9FFF77FFD0C4803F012FF30
:106C700003B05DF804FB0020FFF780FF08F0A6FFDB
:106C8000074909F095F90028EDD103B05DF804FB40
:106C900080A3FF1FD8A2FF1FACA2FF1FB0A2FF1F3F
:106CA0000000604038B50446FFF768FFF4B1144CAB
:106CB000144D08F08BFF294608F0D2FE214609F05A
:106CC0008DF8114908F0D6FF0021044609F084F937
:106CD00078B120464FF07C5108F0C4FE09F090F9DD
:106CE0006428A8BF642020EAE07038BD074C084D36
:106CF000DFE720464FF07C5108F0B2FEEEE700BF20
:106D000000004844008054450000C84200002F4461
:106D100000C05A45F8B504461646C1B9184F3B683D
:106D20000D462322D3F88400222104F069FB002EB3
:106D300025DD043C3B682322D3F88400222104F0A3
:106D40005FFB0135AE4244F8040FF3D1F8BD0C4FA0
:106D50003B682522D3F88400242104F051FB002E47
:106D60000DDD043C00253B682522D3F88400242156
:106D700004F046FB0135AE4244F8040FF3D1F8BDF0
:106D8000A8A2FF1F2DE9F04F234B244E1A68244B75
:106D900091681B68234ADFF8A090DFF8A080224F9B
:106DA000116083B030460193204B019C1C604FF072
:106DB000200A1F4C40F8049B5246002109F0FEFEB9
:106DC00000254FF0FF0B42463946304686F824B086
:106DD00086F8255086F8265009F01CFB20465246BE
:106DE000294640F8049B09F0E9FE42463946204610
:106DF00084F824B084F8255084F8265009F00AFB62
:106E0000942007F01DFC044604F002F8094B1C60B6
:106E100003B0BDE8F08F00BF5C8EFF1FB0A2FF1F64
:106E200080A3FF1FACA2FF1F19640000D8A2FF1FA0
:106E300080A2FF1FA8A2FF1FB8960100508EFF1F5F
:106E400010B5112004F01CFD0446112004F018FDBB
:106E50000444112004F014FD044B204483FB002360
:106E6000A3EBE07008F0B2FE10BD00BF56555555BB
:106E700038B5C4B22046002105F020F94FF448652A
:106E8000204605F00DF92B46013BFDD10028F7D037
:106E900038BD00BF2DE9F0470A2484B0013CA4B2FC
:106EA000FFF7CEFF002CF9D1FFF7CAFF694BDFF8DF
:106EB000B0811C680546E76A266BE06A216B09F021
:106EC00095F8002848D0216BE06AD8F8003000938C
:106ED00008F0C6FD4FF07D51824608F0CBFEDDF88C
:106EE000009007462C462146284608F0B9FD394651
:106EF000044609F05DF8002874D0FFF7A1FF0446AE
:106F0000962005F003F92146284608F0A9FD5249CC
:106F10000646504608F0AEFE0146304609F048F8F5
:106F2000002190B9204609F039F84C4968B920464B
:106F300009F034F847F2305238B9D8F800300193EC
:106F4000019BC9EB03039342CDD94FF4967005F032
:106F5000DDF804B0BDE8F087D8F80030009339467A
:106F6000304608F07DFD4FF07D51814608F082FEED
:106F7000DDF800A007462C462046294608F070FDA3
:106F80003946044609F014F800284CD0FFF758FFA2
:106F90000446962005F0BAF82946204608F060FD20
:106FA0002D490646484608F065FE0146304608F081
:106FB000FFFF00210028C8D1204608F0EFFF274935
:106FC0000028C2D1204608F0E9FF47F230520028DD
:106FD000BBD1D8F800300393039BCAEB0303934261
:106FE000B3D8C9E72046394609F000F847F23054D3
:106FF00058B9AEE705F08AF83146284608F030FD6A
:10700000394608F0F3FF0028A3D0FFF719FFD8F89E
:1070100000300293029BC9EB0303A34206464FF0E4
:107020009600E7D991E72046394608F0DFFF0028AF
:107030008BD0FFF705FF0446962005F067F8294638
:10704000204608F00DFD394608F0D0FF0028F0D1A9
:107050007BE700BF5C8EFF1FCDCC4CBE00FF7F479F
:1070600080A3FF1F70B5304D88B0044644F6206001
:1070700005F0BEFC2B680293029E2C4B2A680192FD
:1070800018689988019A9A79049000230693ADF8BC
:1070900014108DF81620CDF81B300BE004A805F075
:1070A0007FFD322005F032F82B680393039B9B1B76
:1070B000A34231DC05F0D8FD07210028EED003E023
:1070C0000A2C24DC05F022F805F0CEFD062804F198
:1070D00001044FF03200F3DD0DF117040DF11E0530
:1070E00005F0D2FD04F8010FAC42F9D19DF81C3037
:1070F0009DF81B4003EB042405F0F0FC204608F04B
:1071000061FD08F0A3FF08B070BD05F0BDFD05F0FE
:10711000ABFD0028F9D1DFE70548FFF711F8054876
:10712000FFF70EF8D0E700BF80A3FF1F9098010083
:10713000989801007C8D010000293CD030B58D6C01
:1071400083B0002D33D0CB6C002B30D00B6D73B3DC
:1071500010F0800FCA7814BF002310239A4223D066
:107160000C46CB700DF107020123F3216078A8478C
:1071700084F8540018B16FF0010003B030BD9DF8E1
:107180000730E278E56C607802F0100223F010031B
:1071900013438DF807300DF1070201237321A8472F
:1071A00084F854000028E6D1002003B030BD4FF031
:1071B000FF3003B030BD4FF0FF307047E0B130B565
:1071C000856C83B0A5B1C36C93B1036D83B10446E4
:1071D00001230DF10702F3214078A84784F85400F9
:1071E00068B99DF8073003F01003E37003B030BDB9
:1071F0004FF0FF3003B030BD4FF0FF3070476FF0FD
:107200000100F3E72DE9F04182B0D3B19E6C1C463A
:10721000BEB1DB6CABB1236D9BB1A378884607464A
:10722000ABB100251346394642466078B047002886
:1072300018BF6FF0010584F85400284602B0BDE87D
:10724000F0814FF0FF35284602B0BDE8F0812146BD
:107250000192FFF771FF019AA66C05460028E1D163
:1072600047F08007DEE700BF2DE9F04F8BB0054601
:107270000F469246984668462822002109F09EFC57
:10728000B8F1000F58D0D8F84830002B54D0D8F8B7
:107290004C30002B50D0D8F85030002B4CD00AF195
:1072A000FF33122B4ED81FFA8AFA0AF1FF3B002651
:1072B0001FFA8BFB013F0BF1010B3446B1460EE088
:1072C0002B780DF814300DEB0603013417F8012F5D
:1072D0005A70A34505F1010506F102060ED098F893
:1072E0000230002BECD141462878FFF725FF2B78A0
:1072F00003F07F0381460DF81430E4E7B9F1000F85
:1073000003D048460BB0BDE8F08F4FEA4A03013B7B
:107310009BB2D8F84C409DF8001098F801000DF190
:107320000102A047002818BF6FF0010988F8540037
:1073300048460BB0BDE8F08F4FF0FF3948460BB020
:10734000BDE8F08F6FF00309DBE700BF30B583B015
:10735000E022B6238DF806208DF80730D0B1826C7C
:10736000C2B1C26CB2B1026DA2B183780446B3B1AE
:10737000234601220DF107010DF10600FFF774FF0E
:10738000236D05460A2098470DB9A3787BB128469E
:1073900003B030BD4FF0FF35284603B030BDFFF7D6
:1073A0000DFF05460028E3D0284603B030BD204637
:1073B000FFF704FF0546EAE7F0B58DB028B3826C0D
:1073C0001AB3C26C0AB3026DFAB10446FFF7BEFFEE
:1073D000054610B128460DB0F0BD234601222146D6
:1073E000D020FFF70FFF05460028F3D12378612B4B
:1073F00040F09B8001A82922294609F0DFFBA36CFD
:107400008DF803500BB1E36C23B94FF0FF352846DC
:107410000DB0F0BD236D002BF7D001A92346192232
:107420008920FFF7EFFE0546002800F092809DF8C6
:1074300026E09DF825109DF805309DF809009DF87F
:1074400006209DF80A709DF80CC09DF80B6041EA7B
:107450000E2143EA022240EA07279DF810E09DF83A
:1074600011309DF80F00E1829DF81210228340EA4E
:107470000E2043EA01219DF818E09DF81720A7830C
:107480009DF819309DF81A70608446EA0C2642EA8D
:107490000E2243EA07239DF814009DF80770E68347
:1074A000A1849DF80D609DF8131022856385A77651
:1074B00084F8206084F8260084F827109DF81B10BB
:1074C0009DF81E309DF81F709DF81D609DF82800E6
:1074D0009DF8272084F82C1003F00F011B0941EAC6
:1074E000071143EA061342EA00229DF820E09DF8C6
:1074F00021709DF8226021819DF8230063819DF811
:10750000241062829DF82A309DF8292084F80CE02E
:107510006773A673E07321746274237545B19DF996
:1075200003301B1184F8363054E76FF0020551E741
:10753000234601220DF103010220FFF763FE9DF8AF
:107540000330C3F30112054684F8342050B15BB216
:10755000E7E7234610220DF11D01E120FFF752FE5F
:10756000054664E7234601220DF10301FFF74AFEB9
:107570009DF9033084F8353005460028D1D10DF14E
:107580000301234601220420FFF73CFE0546C6E71F
:1075900070B582B074238DF80730002841D0836C19
:1075A000002B3ED0C36C002B3BD0036D002B38D09A
:1075B00004460026234601220DF106017420FFF740
:1075C00021FE48B99DF8063013F0030607D194F860
:1075D0004420A2B902B070BD002EEBD1FAE723F02F
:1075E0000305012223460DF106010DF107008DF878
:1075F0000650FFF739FE236D0A209847DAE723F09B
:10760000030302F0030243EA02050DF106012346DB
:1076100001220DF107008DF80650FFF725FE02B09C
:1076200070BD4FF0FF3002B070BD00BF2DE9F043D8
:107630008A6C89B00023ADF814308DF807300493BC
:107640000693ADF81C30002A6ED0CA6C002A6BD0AD
:107650000A6D002A68D000F0080292B206460C4675
:1076600091F84470002A40F0148181F844202046AB
:10767000FFF78EFF06F01005ADB2002D40F0E2805E
:10768000B10600F1B680B2077CD1730751D416F071
:10769000C00F06D1002840D084F8447009B0BDE87E
:1076A000F08394F83E30012B08D994F8463001223B
:1076B00043F0020384F8463084F83E2094F83C30CE
:1076C0000A2B08D994F846300A2243F0020384F8C2
:1076D000463084F83C20234601220DF10701712039
:1076E000FFF790FD730600F1DE809DF80730360647
:1076F00008D594F83C2023F00F0302F00F02134347
:107700008DF8073008AA2A447121013502F8083C97
:10771000EDB202F8101C0028BED12A4606A904A822
:107720002346FFF7A1FDB7E74FF0FF3009B0BDE8F2
:10773000F08394F83830052B08D994F846300522A8
:1077400043F0020384F8463084F8382023460122AF
:107750000DF107017220FFF755FD9DF8072094F801
:10776000383008A9294422F0070203F00703134325
:10777000013572228DF8073001F8083CEDB201F8AE
:10778000102C84E794F83930052B08D994F846304A
:10779000052243F0020384F8463084F8392023465A
:1077A0000DF1070101227420FFF72CFDF1079DF870
:1077B000073008D594F8392003F01F0343EA421339
:1077C000DBB28DF80730B20709D594F83A20920061
:1077D00023F01C0302F01C0213438DF8073008AAA3
:1077E0002A447421013502F8083CEDB202F8101C5D
:1077F0004BE794F83D30082B08D994F8463008221E
:1078000043F0020384F8463084F83D2023460122E9
:107810000DF107017020FFF7F5FC9DF8072094F8A3
:107820003D3008A9294422F0080203F0080313435D
:10783000013570228DF8073001F8083CEDB201F8EF
:10784000102C20E794F83B30072B08D994F84630E9
:10785000072243F0020384F8463084F83B20234695
:1078600001220DF107017520FFF7CCFC94F83B20B5
:107870009DF80730920002F01C0223F01C03134312
:1078800075228DF807308DF818308DF810200125FD
:10789000F6E6012FADF80830ADF80C3010D084F8C2
:1078A00044300120E6E694F83E209DF807301201AE
:1078B00002F0100223F0100313438DF8073016E78F
:1078C000B4F8402094F9043094F911C0B4F912E0EE
:1078D00094F9141094F8345094F935004FF05A0884
:1078E000C72A8DF8088069D9B2F5C87F28BF4FF440
:1078F000C8720EF5163E0EF2991EDFF8CC8002FB20
:107900000EF288FB029ED217C2EBEE0E2C4A13FB3E
:1079100001F30EF5481188FB01E882FB03E2C91769
:10792000DB17C3EBA2120CF5447C00EB8013C1EB18
:10793000A8010CFB01F100EB4300120202EB610213
:1079400000F580302B1D92FBF3F393FBF0F3FA3B31
:1079500003EB03135B001B49B4F84220323381FB75
:107960000301DB17C3EB6113B2F57C6F4FF06401C9
:107970008DF80C308DF809101ED23F2A4FF000030D
:1079800006D9920801333F2ADBB2FAD89B01DBB259
:107990001344DDB24FF0000884F83C8023460222F5
:1079A00003A902A88DF80D50FFF75EFC84F844800F
:1079B00000287FF45FAE5AE6FF25EBE7C82298E780
:1079C000D34D62101F85EB516766666670B4194E21
:1079D00091F83940B58891F83A2091F8383083B061
:1079E000ADF80450054602A804443068009002A88F
:1079F0000244034414F8084C12F8082C13F8083C0D
:107A00000D4E2244981840F2AB7202FB00F202F5D0
:107A100095531933A6FB03239B0901339BB22B809B
:107A200091F83E201AB1B1F8422013442B8003B0E4
:107A300070BC7047B8980100D34D62102DE9F04F2B
:107A400089B0002958D08B6C002B55D0CB6C002B03
:107A500052D00B6D002B4FD0002406940D46824669
:107A600004940594CDF81B404FF00A084CB108F17E
:107A7000FF3818F0FF08F9D10224204609B0BDE80C
:107A8000F08F2B460F2204A91D20FFF7BBFB9DF8AA
:107A90001EC09DF810209DF811308AF802304FFA70
:107AA0008CF303F02001044622F07F0003F0100362
:107AB0000843184340B29DF81730029302F00F02BA
:107AC0009DF81D308AF8000000288AF801209DF8F2
:107AD00012E09DF813709DF814609DF815209DF834
:107AE00016109DF818909DF819B001934FF00A00F8
:107AF00008DB2B6D9847BAE74FF0FF34204609B0FA
:107B0000BDE8F08F029BE88A03971B0943EA011145
:107B100041EA02324000C0EBD2084046C11749108A
:107B20004FEA300000FB01F3A0FB000101EB430131
:107B300095F91A30020B1B0142EA015209130F4654
:107B4000D917B5F9180002FB01F103FB0711A2FBDD
:107B500003230B44920B80FB080142EA8342C30AD1
:107B600043EA41531A4402EB820808F180084FEAC5
:107B7000282853102A63A3F57A43AAF8048095F9BC
:107B80002010B5F91E709A1002FB02F24901501341
:107B900000FB01F0B5F92410D212029203FB01F2AE
:107BA0000399360903FB07F346EA0116029F95F98C
:107BB0002610C01000EB6300B5F9223001FB07F17D
:107BC0005200AF8B02EBA10246EA0E3680144FEA58
:107BD000034E0EEBA203C6F5801600F50040A6EB9F
:107BE000233307FB00F040F63542C01302FB03F3DA
:107BF000B3FBF0F35B00DA10B5F92A70B5F9281081
:107C000095F82C0095F92760B5F80AE002FB02F21E
:107C1000521307FB02F29F1001FB07F149131F12D9
:107C200001EB223207FB07F107FB01F700FB07F727
:107C300002EB674202EBC61603EB2613CAF80830C4
:107C400095F90E30514895F90C10029108FB03F399
:107C500080FB0317DB17C3EB671395F90D202E8903
:107C600008FB03F39F1180FB071708FB02F2DB17E9
:107C7000C3EB671380FB02170299D217C2EB67129E
:107C800008FB01F11A4495F910704BEA092980FBB1
:107C9000013BC91702F58043A9EB0619C1EB6B1232
:107CA0000EFB03F39B1208FB07F8A9EB620202FB31
:107CB00003F295F80FE03649364E374F80FB083017
:107CC0004FEAE878C8EB6013901303EBCE1300FB88
:107CD00000F080121B1103FB00F302EB63039A1206
:107CE0004FF47A7303FB02F31B1323EAE373994205
:107CF000A8BF1946CAF80C100CF00F0395F93620EE
:107D000057F8237056F823E040F23C500523002139
:107D1000C2FB0301A0FB072307FB013301994FEAD4
:107D20009C1040EA810080B2160CC20346EA03466A
:107D30001F1412F17F424FEA5043AEFB068943F114
:107D4000FF3392190EFB07997B414FEA58205F10D1
:107D50004FEA320640EAC95080194FEA6921794159
:107D600008F094F9CAF81000002C7FF486AE9AF956
:107D70000030002BB8BF01232046B4BF85F8453042
:107D800085F8454009B0BDE8F08F00BF1F85EB5175
:107D9000A0860100A88EFF1F688EFF1F082870B5FF
:107DA00004D840F08F804FF4304301E04FF440435B
:107DB000474D484C2B8001210A2004F07FF9464AA8
:107DC000E37A1268BBB172B6E37AD807194606D5D2
:107DD0004248E16806683140A161016019469B078D
:107DE00006D53F4823690668E17A3340E3610360C2
:107DF0004E0760D462B62368D968914207D03948EB
:107E000018603949DA6042F0804018611960002139
:107E10000A2004F03FF9298823680A124FF0004035
:107E2000D8625A63DA6A002AFCDAC9B24FF000421B
:107E3000986BDA625963DA6A002AFCDA01210A20B7
:107E40009B6B04F027F9C023013BFDD100210A20E0
:107E500004F020F9298823680A124FF00040D86204
:107E60005A63DA6A002AFCDAC9B24FF00042986B12
:107E7000DA625963DA6A002AFCDA01210A209B6B74
:107E800004F008F9C023013BFDD1E37A11491A46F9
:107E900083B1D80703D5154A896911601A46990735
:107EA00003D5134BE169E27A1960530702D5114BF0
:107EB000226A1A6070BD1049636908680340236232
:107EC0000B6097E76FEAC0636FEA93439BB26FE77B
:107ED000DCA2FF1F2894FF1FE0A2FF1F80E100E04B
:107EE00084E100E001403F0000003F8000E100E04D
:107EF00004E100E008E100E088E100E030B4A02304
:107F0000013BFDD13349344ACB7A1268BBB172B61A
:107F1000CB7ADD07184606D5304CC868256828405E
:107F20008861206018469C0706D52D4C0B69256892
:107F3000C87A2B40CB612360430744D462B60B68F8
:107F4000D868904207D0274C1C602748DA6042F07E
:107F500080441C6118602548254A10240460148858
:107F60004FF000402212D8625A63DA6A002AFCDA23
:107F7000986BE2B2C0B24FF00045DD6204025A6372
:107F8000DA6A002AFCDA986B1A4A1025C0B2A023DC
:107F900020431560013BFDD1CB7A0E4C1A4683B1CC
:107FA000DD0703D5144AA46914601A469C0703D55B
:107FB000124BCC69CA7A1C60530702D5104B0A6A6F
:107FC0001A6030BC70470F484B69046823400B624D
:107FD0000360B3E72894FF1FE0A2FF1F80E100E0E9
:107FE00084E100E001403F0000003F8088F00F4046
:107FF000DCA2FF1F84F00F4000E100E004E100E09C
:1080000008E100E088E100E008B50021FFF7C6FEC6
:10801000054806491022026060230A60013BFDD139
:10802000BDE80840FFF76ABF88F00F4084F00F40BA
:10803000014B024A1A607047E0A2FF1F000001B81E
:1080400004F064B82DE9F0471E4E96F900305A1C32
:108050002AD0DFF878A0DFF8789047B2072500240F
:108060004FF0010801E096F90030D8B2002104F089
:1080700011F808FA05F13940C9B29AF8000004F085
:1080800009F80121307804F005F899F8000004F0AF
:1080900007F86400E4B2013D08B144F001046B1C30
:1080A000E1D12046BDE8F087074B1A684FF0004346
:1080B000D3625063D36A002BFCDA906BC0B2BDE888
:1080C000F08700BFE5A2FF1F2894FF1FE6A2FF1F55
:1080D000E4A2FF1F2DE9F041364E0D4600211F4658
:1080E0001446804603F0D6FF96F9003001332FD0B6
:1080F00028467D1EFFF7A6FFADB23FB101352544EE
:1081000014F8010BFFF79EFFA542F9D196F9003054
:10811000013306D04046012103F0BCFF0020BDE83A
:10812000F081254BDA7A1146002AF3D0D40703D523
:108130002249986908601146900703D5204AD969F9
:108140001160D97A4A07E5D51E4A1B6A1360E1E738
:10815000194BDA7AD2B172B6DA7AD007114609D55C
:10816000DFF87CE0D968DEF800000840986111462D
:10817000CEF80000900706D513491A690868024036
:10818000DA610A60D97A4A070DD462B61B680F4AD1
:10819000D9689142ACD00E4919600E480E49DA6098
:1081A00018611960A4E70D495A69086802401A620B
:1081B0000A60EAE7E5A2FF1F2894FF1F00E100E044
:1081C00004E100E008E100E084E100E0032003387E
:1081D00001403F000320037800003F8088E100E079
:1081E00080E100E02DE9F041374E0D4600211F46A9
:1081F0001446804603F04EFF96F90030013330D02C
:1082000028467D1EFFF71EFFADB247B1013525445C
:108210000020FFF717FF04F8010BA542F8D196F9EB
:108220000030013306D04046012103F033FF002027
:10823000BDE8F081254BDA7A1146002AF3D0D40745
:1082400003D52349986908601146900703D5214A50
:10825000D9691160D97A4A07E5D51F4A1B6A1360AC
:10826000E1E71A4BDA7AD2B172B6DA7AD007114660
:1082700009D5DFF880E0D968DEF800000840986191
:108280001146CEF80000900706D514491A6908680F
:108290000240DA610A60D97A4A070DD462B61B68D7
:1082A0000F4AD9689142ABD00E4919600E480F4968
:1082B000DA6018611960A3E70D495A69086802403D
:1082C0001A620A60EAE700BFE5A2FF1F2894FF1FB9
:1082D00000E100E004E100E008E100E084E100E00A
:1082E0000320033801403F000320037800003F8053
:1082F00088E100E080E100E070B4084E084D094CD0
:1083000001770022FF213170297021700275C2743B
:1083100082744274027470BC704700BFE6A2FF1FF3
:10832000E4A2FF1FE5A2FF1F70B5044690F91C00F0
:108330006175421C86B04CD0C0B2012103F0AAFE88
:10834000207F012103F0BAFE304B93F90000431C5B
:1083500058D0C0B2012103F0B1FE2D4B0121187895
:1083600003F0ACFE2B4B0021187803F0A7FE217F11
:10837000294A2A4B84F82110002184F82210A26691
:10838000E366274B236704F12000FFF715F810B1CF
:10839000002006B070BD01200223042603254FF4FF
:1083A000A071962284F859606074A074E0742074FF
:1083B00084F85E00207584F8640084F8583084F8EE
:1083C0005B3084F85A50A4F86010A4F8622006B01C
:1083D00070BD144B144A18690D460126597B04924E
:1083E00000231A460393029301930093059601F02C
:1083F00023FA0E4A0E4B84F8226084F82150A266BC
:10840000E366BEE70B4802F0C1FAB0E7E5A2FF1F42
:10841000E6A2FF1FE4A2FF1FE5810000D580000057
:108420004180000008A3FF1FA08601009585000081
:10843000498500002894FF1F30B5837C0122044643
:1084400080F8642087B0407C0BB140F00400E37CEE
:108450000BB140F00200237C0BB140F01000237DF3
:108460000BB140F0C80004F120052946FFF7DEF803
:1084700018B10025284607B030BD2846FFF788F818
:108480000028F6D129460DF10200FFF79FFABDF84A
:108490000200400003F03AFE294601A8FFF7CEFA99
:1084A0000028E6D1637CCBB9174B2360A37C0BB3C8
:1084B000049807F087FB154907F090FCA060E37C67
:1084C000ABB1039807F07EFB6060257DADB19DF8F0
:1084D0000430DB0613D40023E360CBE7BDF90800CA
:1084E00007F074FB0A4907F079FC2060DEE7064BD1
:1084F0006360EAE7044BA360E1E70125BAE705986A
:1085000007F060FBE060B5E70000C07F00007A4440
:108510000000C84210B50446FFF78EFF206810BD6A
:1085200010B50446FFF788FF606810BD10B504461B
:10853000FFF782FFA06810BD10B50446FFF77CFF6F
:10854000E06807F083FD10BD70B50D4682B00146AE
:108550000F481E46144601F071FA29460C4800F0F7
:1085600043FF56B1751EADB20135254414F8011B09
:10857000074800F039FFAC42F8D105480024427B9F
:1085800001690094012301F057FD204602B070BD3F
:1085900008A3FF1F2DE9F0411A4D804682B00E4618
:1085A000284641461F46144601F048FA31462846FF
:1085B000002600F019FF6A7B2969009601232846EE
:1085C00001F03AFD01960126697B28690096424632
:1085D000FBB201F047FDC0B2B84203D0304602B052
:1085E000BDE8F081461EB6B240B101362644286986
:1085F00001F052FD04F8010BB442F8D1002002B0A2
:10860000BDE8F08108A3FF1F80E8060012B11378CF
:10861000022B02D0002303604360704770B50468EA
:10862000ACB14068A0B1002913DBC368994210DAED
:10863000002900F110040ADD0E460025204600F056
:108640008FF801350130AE4204EB0014F6D120461C
:1086500070BD002070BD00BF38B50B460446114602
:1086600018461D68FFF7DAFF2560606010B10378D7
:10867000022B02D0002323606360204638BD00BF78
:1086800010B50446FFF7CAFF01462046BDE810407A
:1086900000F076B810B50446FFF7C0FF014620464B
:1086A000BDE8104000F078B880E8060012B11378F9
:1086B000012B02D00023036043607047F8B50368C4
:1086C0003BB344682CB321B3E368012B04F11004DD
:1086D0001FDD0F46064600250DE004F1100000F0F6
:1086E0003FF87368DB6803EBD3730230B5EB630FBD
:1086F00004EB00140DDA2146304600F04DF8014637
:10870000384609F071F801350028E6D104F110006F
:10871000F8BD0020F8BD00BF38B50B460446114631
:1087200018461D68FFF7CAFF294602462046FFF794
:108730006BFF204638BD00BF10B50446FFF7BEFFF3
:1087400001462046BDE8104000F01AB810B50446B6
:10875000FFF7B4FF01462046BDE8104000F01CB80A
:1087600081684269914200F110034FF0000006DD7C
:1087700010335A68914200F10100F9DC70477047EC
:1087800009B10A780AB1002070474B6800681146A9
:1087900018440AF033BB00BF10B481B10B78012B31
:1087A00004D9032B02D0002010BC704702688B68EC
:1087B0000024D45400684B68184410BC7047084625
:1087C000FBE700BFFFFFFFFF2DE9F041284D294CDB
:1087D0002978064682B0204601F030F9002E3BD1C0
:1087E0002721204600F000FE0026627B21690096CA
:1087F00033464FF001081F4801F01EFC2A78617BC8
:10880000206901960223CDF8008001F02BFC20693D
:1088100001F042FC0746206901F03EFC0546627B00
:1088200021690096434613482D0201F005FC05F42A
:10883000FE45F8B2284307F0C9F90F4907F01AFAC4
:1088400006F06EFD08A3D3E9002306F009FC07F04B
:10885000B3F802B0BDE8F0812621204600F0C4FD47
:10886000C2E700BFAFF300800000006066127140F5
:10887000E88EFF1F08A3FF1F0AD7A33C2DE9F04194
:10888000354D82B007460E4628461D21144601F09C
:10889000D5F82846002100F0A7FD4FF47A73009325
:1088A0006A7B29692846002301F0C6FB4023013B6F
:1088B000FDD101220023697B28698DE80C001D226F
:1088C000072301F0CFFB286901F0E6FB286901F0DE
:1088D000E3FB8046286901F0DFFBC0B240EA0820D4
:1088E00000B2C0EB401300EB8300C00044BF00F5B2
:1088F0007F503F3080133860286901F0CDFB074678
:10890000286901F0C9FBC0B240EA072000B2C0EB01
:10891000401300EB8300C00044BF00F57F503F30A0
:1089200080133060286901F0B7FB0646286901F022
:10893000B3FBC0B240EA062000B2C0EB401300EB2C
:108940008300C00044BF00F57F503F30801320609B
:1089500002B0BDE8F08100BF08A3FF1F38B5044690
:10896000922529202071A36825702246012198476D
:10897000E36820792246012198472378142B16D0EA
:108980001D2B14D039202071A368257022460121A7
:108990009847E36820792246012198472378142BD1
:1089A00005D01D2B03D000232371E07838BD0120B2
:1089B000E07038BD10B40024C47004718160C260DE
:1089C00010BC7047C37870B50446002B2FD08025AB
:1089D000A36820792570224601219847E368207911
:1089E0002246012198472378A6682079257043F014
:1089F0000103637022460221B047032003F086FB87
:108A0000A36820792570224601219847E3682079E0
:108A100022460121984723782079A668257043F0E3
:108A20000203637022460221B047012070BDFFF7A8
:108A300095FFE0780028CAD170BD00BFC378E3B1CC
:108A400070B5044608460D4907F014F907F0FEFA20
:108A50000B4AA5680346A2FB03231B09B3F5807FDD
:108A600028BF4FF4807381226370227020792246E0
:108A70002B460221BDE87040184770470000204196
:108A8000ABAAAAAAC378002B44D070B50446084606
:108A9000324907F0EFF807F0B3FA172805464ADD28
:108AA000B0F5C05F37DD8D23022123702079A368E4
:108AB0006170224698472A4BB5F5903F2846A8BFDB
:108AC0004FF4903083FB0023C017C0EBA313C3F512
:108AD0008073832263702270A3682079224602216A
:108AE00080259847A3682079257022460121984760
:108AF000E36820792246012198472378A6682570EB
:108B000043F0080363702246207933460221BDE812
:108B10007040184770478D220023227063702246F0
:108B2000A3682079022198470E4BEA1783FB0513AF
:108B3000C2EBA303CBE78025A368207925702246EA
:108B400001219847E368207922460121984723783C
:108B5000A668257003F0F703D4E700BF00002041AA
:108B6000398EE338ABAAAA2AC378024603B9704704
:108B70008F2341700370022183680079184700BF7A
:108B8000C37803B9704770B50446802505708368C3
:108B90000079224601219847E36820792246012185
:108BA00098472378A668257043F010036370224627
:108BB000207933460221BDE870401847C378024649
:108BC00003B97047E62303700121836800791847D1
:108BD000C378024603B97047080AA6235170907003
:108BE0001370107993680321184700BFC3780246B9
:108BF00003B97047080AA42351709070137010795C
:108C000093680321184700BFC378024663B13C292B
:108C100008D8032909D88C235170137010799368F0
:108C2000022118470F21F6E770470523B1FBF3F146
:108C30000331C9B2EFE700BF10B50446C07870B188
:108C4000932323702079A368224601219847207935
:108C5000E368224601219847207800F0010010BD0A
:108C6000C3780BB91846704710B5B4230446037097
:108C7000224683680079012198472079E3682246DB
:108C800002219847208810BDC3780BB91846704759
:108C900010B5B6230446037022468368007901218B
:108CA00098472079E368224602219847208810BD22
:108CB000C3780BB91846704710B5B8230446037043
:108CC000224683680079012198472079E36822468B
:108CD00002219847208810BDC3780BB91846704709
:108CE00010B5BA2304460370224683680079012137
:108CF00098472079E368224602219847208810BDD2
:108D0000124A010F03461248515CF0B50170C3F3DB
:108D1000036EC3F30357C3F30346C3F30335C3F32F
:108D20000324C3F3031103F00F0312F80EE0D75D21
:108D3000965D555D145D515CD35C80F801E08770F1
:108D4000C670057144718171C371F0BDC098010096
:108D5000E8A2FF1F024B4FF0FF321A60704700BFBE
:108D6000EC8EFF1F014B1868C0437047EC8EFF1F4D
:108D7000002913DD70B40A4E3268451810F8013B23
:108D800008215A40074B42F300042340013983EA8B
:108D90005202F7D1A842F1D1326070BC704700BFD7
:108DA000EC8EFF1F2083B8ED037893B130B4094DEA
:108DB0002A685A400821084B42F300042340013935
:108DC00083EA5202F7D110F8013F002BF1D12A605B
:108DD00030BC7047EC8EFF1F2083B8ED2DE9F04FBB
:108DE000056883B011F805C00193BCF1000F00F0D5
:108DF0001B8100264FF0030EBCF12C0F00F00981FF
:108E000029D9BCF15D0F00F0A58140F27481BCF15D
:108E10007B0F00F07681BCF17D0F40F021814FF097
:108E2000010A4468013C00F1F18002EB0418D8F813
:108E300004707B1C05D0D8F80830B3F1FF3F00F078
:108E4000B181013C671CA8F11008F0D16FF001005E
:108E500003B0BDE8F08FBCF10D0F00F0DA8040F2F6
:108E6000FA80BCF1200F00F0D480BCF1220F40F05A
:108E7000F7806F1C0760CB5D3C463BB96DE1046831
:108E8000013404600B5D002B00F06781222B00F0A1
:108E900068815C2BF3D10134046011F804C0ACF19B
:108EA000220CBCF1530F00F2AB8001A353F82CF05D
:108EB000818E0000019000000190000001900000F0
:108EC000019000000190000001900000019000005E
:108ED000019000000190000001900000019000004E
:108EE00001900000818E00000190000001900000C0
:108EF000019000000190000001900000019000002E
:108F0000019000000190000001900000019000001D
:108F1000019000000190000001900000019000000D
:108F200001900000019000000190000001900000FD
:108F300001900000019000000190000001900000ED
:108F400001900000019000000190000001900000DD
:108F500001900000019000000190000001900000CD
:108F600001900000019000000190000001900000BD
:108F700001900000019000000190000001900000AD
:108F8000019000000190000001900000019000009D
:108F90000190000001900000818E0000019000000F
:108FA000019000000190000001900000019000007D
:108FB000818E0000019000000190000001900000EF
:108FC000818E0000019000000190000001900000DF
:108FD000019000000190000001900000019000004D
:108FE000818E0000019000000190000001900000BF
:108FF000818E000001900000818E0000818E0000B3
:1090000005606FF0010003B0BDE8F08F01343FF45C
:109010001DAFD0F8008008F10105056011F805C00A
:10902000BCF1000F7FF4E8AE41684B1E58BF02EB65
:1090300001120ED452F80C1C013103F1FF3304D09D
:1090400052F8081C013100F0CB80591CA2F110022B
:10905000F0D10020FCE6ACF1090CBCF1010FD8D92D
:109060000768CC5D01EB070874B915E0092C03D340
:109070000A2C11D90D2C0FD0203C5E2CC0D8013702
:10908000076018F8014F3CB1202C05D0EED93A2CDE
:1090900002D009D82C2CEFD14468019BA3420BD8F5
:1090A00005604FF0FF30D3E65D2CF5D07D2CE3D189
:1090B0004468019BA342F3D9D0F808904FEA041BFF
:1090C00002EB0B0A013407F1FF38B9F1FF3F4460AE
:1090D00002F80B60CAF80450CAF80870CAF80C60AD
:1090E000C0F8008097D002EB0919D9F80C40013480
:1090F000C9F80C408FE7BCF13A0F8AD0BCF15B0F86
:10910000AED14368019C9C42CBD984685F1C4FEA76
:10911000031B476002EB0B0A4FF0FF37BC42CAF853
:109120000870CAF80470CAF80C6006D002EB041884
:10913000D8F80C400134C8F80C40BCF17B0F14BFC8
:109140000224012402F80B40D0F80080CAF8045031
:10915000836060E74FF0020A63E605606FF002008B
:1091600076E6D0F804C0019B634599D94FEA0C1A02
:10917000856802EB0A090CF1010CC0F804C002F882
:109180000AE0C9F808406C1CC9F80470C9F80C6002
:109190003FF43FAF02EB0515D0F80080EC680134D6
:1091A000EC6038E798F800B0D3457FF44FAE013556
:1091B000836002EB0419C8F8085001E0D9F8047084
:1091C000013703D0D9F80850013505D0013C651CA2
:1091D000A9F11009F2D11CE78460D0F800801AE7E9
:1091E0006FF0020034E600BF00234FF0FF328260D0
:1091F00003604360704700BF2DE9F043404E83B0E9
:109200008146884630460E21174600F017FC30464E
:10921000012100F0E9F84FF47A730093727B316911
:109220003046012300F008FF4023013BFDD100241C
:109230000123717B30698DE818000E22062300F0AF
:1092400011FF33693C60C8F80040C9F80040D3F80A
:109250003811D3F8342191424AD12546D3F8381138
:10926000D3F8342191423DD1002445EA0402C9F8E3
:109270000020D3F83811D3F8342191422BD1D3F800
:109280003811D3F8342191421FD145EA0402C8F8BD
:109290000020D3F83811D3F8342191420ED1D3F8FD
:1092A0003811D3F83421914203D0184600F0F4FE6F
:1092B000C4B22C433C6003B0BDE8F083184600F014
:1092C000EBFE0002336905B2E9E7184600F0E4FE60
:1092D0003369C4B2D9E7184600F0DEFE00023369F4
:1092E00005B2CCE7184600F0D7FE3369C4B2BCE73C
:1092F000184600F0D1FE000205B23369AEE700BFA8
:1093000008A3FF1FF0B50F4E737B0D4683B04FF0DF
:10931000000C01271446194602462B4630698DE899
:10932000801000F09FFE55B1013D54FA85F5013CD7
:10933000306900F0B1FE04F8010FAC42F8D103B07F
:10934000F0BD00BF08A3FF1F30B50D4683B0014636
:109350000C48144600F072FB55B1013D54FA85F5F6
:10936000013C14F8011F074800F03EF8AC42F8D168
:1093700004480023427B01690093012300F05CFE56
:1093800003B030BD08A3FF1F002070470369D3F866
:109390003801D3F83431C01A704700BF0369D3F8DD
:1093A0003411D3F83821914208D2D3F83421511C1A
:1093B0001A44C3F8341192F8300070474FF0FF3070
:1093C000704700BF0369D3F83411D3F838219142B4
:1093D0003DBFD3F834219B1893F830004FF0FF3095
:1093E000704700BF704700BF0369D3F84422B2F54D
:1093F000817F03D90123037100207047D3F84422F1
:1094000010B49C180132C3F8442284F83C110120A6
:1094100010BC704738B503690A4A026093F84822C5
:10942000022A044601D0204638BDD3F87452002DDC
:10943000F9D0284604F0A4FD2846082105F002F9D9
:10944000204638BDDC98010038B503690546D3F8DD
:109450004402B0F5817F1AD81446D3F84422D3F8D9
:109460004402C2F58172013203F59E73A242184490
:1094700002D2012314462B71224602F055F82A69C4
:10948000D2F844322344C2F84432204638BD012386
:109490002B71002038BD00BF2DE9F0471E46044661
:1094A00017469DF820909DF824309DF828A00D4681
:1094B00059B301290FD090F84A329A424FF0000870
:1094C00000D14DB3012D0ED094F84B329E4212D0F4
:1094D0000020BDE8F0871D2F4FD01A2F77D094F8C9
:1094E0004A324FF000081E2E1AD01F2E6DD094F86D
:1094F0004B329E42ECD1BAF1000FE9D00025B8F111
:10950000000FE5D0002DE3D031E0102A35D0132A2A
:1095100033D090F84A328846A6F11103012BE6D8E1
:10952000022594F84B329E4257D0BAF1000F09D071
:1095300094F84C3294F84B02002B14BF0221002106
:1095400002F0BCFD2B02B9F1000F13D143F064030C
:10955000264A02EBC60201215268136084F84B626E
:1095600084F84C9284F89912B8F1000FB0D0012021
:10957000BDE8F08743F00303EAE74FF0020894F8F0
:109580004A22974226D04BB194F84C3294F84A02C2
:10959000002B14BF0221002102F090FD4FEA0822A7
:1095A000B9F1000F0ED142F06402104B03EBC70378
:1095B000596801230A6084F84A7284F84C9284F84E
:1095C00098327EE742F00302EFE70625A9E74FF065
:1095D0000608D4E7002BE1D073E7BAF1000FB1D051
:1095E000B8F1000F3FF474AF8CE700BF209B01007F
:1095F000F8B5C3681B789B0610D483680D4680219C
:109600001970C3681221197090F84932012B044671
:1096100006D08AB980F848220120F8BD0020F8BDA4
:109620001A4675B9474B4FF080711960022A0FD066
:10963000012084F84802F8BD531E012BF1D9012006
:10964000F8BD012DF2D13F4B4FF000711960EDE7ED
:10965000D4F87462002E6AD03379102B30D0002DEC
:109660003CD132683849938B384F9BB243F00803A2
:1096700093833279531102F110009B0041F820705E
:1096800003F1604303F56143012102F01F0201FA77
:1096900002F231681A608B8B9BB243F002038B831A
:1096A000337903F1804303F5043396221D701A7059
:1096B0000022022384F85E2284F848320120F8BD9B
:1096C000304604F05DFC3046082104F0BBFF002367
:1096D0000120C4F8743284F84802F8BD012DE7D1A6
:1096E00032681949938B1A4F9BB243F00803938356
:1096F0003279531102F110009B0041F8207003F100
:10970000604303F5614302F01F02954032681D601B
:10971000938B9BB243F002039383337903F180432D
:1097200003F504330021972219701A70C0E708204E
:1097300004F086FF314607463E4604F0BDFBC4F800
:10974000747289E700E100E00084FF1F4DA700006C
:1097500059A70000F0B5284EDFF8ACE0A6FB0143A6
:10976000A6FB02429E09370275469609142400237F
:10977000B7FBF6F604E00133372B1BD055F8044F46
:1097800022029642F7DA83BB14241C4A4568B1FBD7
:10979000F4F491422B70C0F8504207D8184B8269FC
:1097A000A3FB0131C1F307511170F0BD836904229D
:1097B0001A70F0BD002422464FF470274FF47065F4
:1097C0004FF0360CB21AF71B002A87EAE776A6EBB1
:1097D000E776B8BF5242964202DD0A4AD35CD4E72C
:1097E000084B2C4613F80C30CFE703F1FF3C5EF832
:1097F0002C502F02E6E700BFD34D6210FF6BDC0256
:10980000819F5E16D4990100F8980100F0B49DF88C
:1098100014409DF810609DF818503CB135B1C768F0
:109820003F78BF0602D50020F0BC7047069505942E
:109830000496F0BCFFF730BE2DE9F04184B0044639
:1098400094469DF828609DF82C209DF830009DF8E6
:1098500034E09DF83C700D4600294BD1DFF8E080E4
:10986000D8F8001041F04001C8F80010002184F839
:1098700049C284F85512BCF1000F2AD16369202136
:10988000197012B994F84A22D2B210B994F84B0266
:10989000C0B294F8981294F8996202960346CDF8F3
:1098A00000E0019120462946FFF7B0FF0E9A2349B8
:1098B0002046FFF74FFF3A4629462046FFF798FE1D
:1098C00094F8493263B3A368C0221A7004B0BDE8AB
:1098D000F0816169CEB14FF0280C81F800C09E4242
:1098E000216823D95B00DBB20B707600E369F6B226
:1098F0001E70C6E70129B9D1DFF84480D8F80010FE
:1099000041F08001C8F80010B0E74FF0200C81F85A
:1099100000C021685B00DBB20B70E3691E70B0E72A
:10992000A36880221A7004B0BDE8F0817600F6B218
:109930000E705E00E369F6B21E70A2E7006CDC02F6
:10994000348004402DE9F041154682B004460F46AC
:10995000984602F0B9FB0DB9D4F8785202F0B4FB86
:10996000A3681A789206064609D5B4221A70304BBD
:109970001B78002B35D0012002B0BDE8F08155BB2B
:10998000E3681B7803F0200303F0FF02002BF6D1FD
:10999000A36884F84922B0221A70A3681B7803F0E8
:1099A000200303F0FF00002BE1D1062384F8553299
:1099B000D4F89032013304D0D4F890320133C4F893
:1099C0009032D4F87032002BD6D00190984701988D
:1099D00002B0BDE8F08102F077FB801B8542CFD852
:1099E000DBE794F84832013B012BC4D802F06CF855
:1099F0008FB1012F0FD10F4B1B788342BBDB0F2898
:109A000012DD5FB1012F09D1A0F11003094ADBB2C9
:109A100038461370B0E7084B1B78EEE7A0F110034F
:109A2000054ADBB21370A6E7012088F80000A3E71F
:109A30001CA3FF1F19E400E018E400E003694900DB
:109A400083F83C11036900220121C3F8441202711A
:109A500083F85522704700BF2DE9F043054683B0D7
:109A6000D0F8440200248DF8074070B190461C469F
:109A70000BB9D5F87842EB6812221A7028460DF11E
:109A800007032246FFF75EFF10B903B0BDE8F0837D
:109A900095F84832BBB19DF80720A2B9591E01299B
:109AA000F3D80821022B85F8551285F85482C5F8A1
:109AB000402200F0A180AB68F0221A702B6995F863
:109AC0003C211A70E1E702F0FFFA082385F85532CD
:109AD000D5F8447285F8548206465FB305F23B1808
:109AE00000274FF00209002C44D12B6918F8012FF0
:109AF0001A70EA681378980737D4002CFAD002F06D
:109B0000E3FA801B8442F4D8EB6883F8009002F0FB
:109B1000DBFA801B84420BD9EA681378DBB2D906E2
:109B20003AD4DB074AD4D5F844320137BB42DAD8FD
:109B300095F85482AB68B8F1010F0CBF8022B022B7
:109B40001A70D5F84432BB421AD9012385F8553230
:109B5000D5F88032013304D0D5F880320133C5F80E
:109B60008032D5F870329BB98FE782F80090002CD4
:109B7000D2D0CCE702F0A8FA801B8442B5D8D7E750
:109B8000D5F86032002285F85522002B3FF47DAFD6
:109B9000984703B0BDE8F0831023042185F85512DF
:109BA0001370AB6880221A70D5F88C320133D8D08C
:109BB000D5F88C320133C5F88C32D2E77FB9022355
:109BC00085F85532D5F88432013304D0D5F8843283
:109BD0000133C5F88432AB6880221A70C1E70323D1
:109BE00085F85532D5F888320133F4D0D5F888326B
:109BF0000133C5F88832EEE7D5F84432042B7FF6FE
:109C00005AAFD5F8741201200C6885F85E02D5F8B9
:109C10004432E2710E68A08005F59F772760B0603E
:109C20000C68033B98B2E08309685B42E360C8823A
:109C3000D5F8741228690B68B0F1804F9A711861D9
:109C40009A820B6801D39A6812B901229A600B6854
:109C500000229A612FE700BF2DE9F04182B0002574
:109C60008DF807509DF82070099E2BB1B3F5827FC7
:109C700005D3052380F8553202B0BDE8F081C0F865
:109C80003451C0F85832C0F838510EB9D0F8786263
:109C9000C368904612221A700DF10703324604463B
:109CA000FFF750FE0028E7D094F848321BB19DF82A
:109CB0000720002A51D002F007FA4FEA480343F088
:109CC0000103226984F85472DBB2092184F8551229
:109CD00005461370E26813789B071ED4002EFAD055
:109CE00002F0F2F9401B8642F4D8E36802221A70AF
:109CF00002F0EAF9401B864213D8A26801238021B2
:109D0000117084F85532D4F8803201331FD0D4F862
:109D100080320133C4F8803219E002231370002E20
:109D2000E6D1E2681378DBB2D9062CD4DF073CD544
:109D3000A3680221802284F855121A70D4F8843264
:109D4000013304D0D4F884320133C4F88432D4F817
:109D50007032002B90D098478EE7591E01298BD87E
:109D60000921022B84F8547284F8551200F0E08027
:109D7000A268F02111704FEA480343F00103226901
:109D8000DBB2137078E71023042184F855121370A6
:109D9000A36880221A70D4F88C320133D7D0D4F85B
:109DA0008C320133C4F88C32D1E7D4F858320A220D
:109DB000012BA36884F855220CBFA822A0221A7098
:109DC00023691B784FF00008B027D4F85832D4F834
:109DD00038219A42BFF450AF94F855320A2B7FF4E1
:109DE0004BAFE268137898073CD4002EFAD002F00B
:109DF0006BF9401B8642F4D8E36802221A7002F025
:109E000063F9D4F83821D4F85832401B911C8642AB
:109E10008CBF00220122994206D086422FD894F8A6
:109E20005D22002A4CD10122A368A8211970D4F820
:109E30003811D4F858320131994226D2002A5AD02A
:109E400094F85D32002B3DD1D4F838312269591C89
:109E5000C4F838112344127883F83020012384F8A1
:109E60005D32B2E702231370002EC8D1D4F8382136
:109E7000D4F8583202329A4201D13246D4E7D4F8AB
:109E800038210132934236D80022A36884F85D82DB
:109E90001F7023691878D4F83831E1180133C4F8F9
:109EA000383181F8300094F85432012B1CD06ABB51
:109EB000D4F8643284F85522002B86D0984784E782
:109EC000D4F83821A36884F85D821F70236919785B
:109ED000D4F83831E2180133C4F8383182F8301040
:109EE00094F85422012A11D12023013BFDD1A3680B
:109EF00080211970DBE7D4F838212169501CC4F89F
:109F000038012244097882F8301060E7012384F890
:109F10005532D4F88032013304D0D4F88032013382
:109F2000C4F88032D4F87032002B97D0984795E768
:109F3000D4F85832042B7FF61BAFD4F87432206962
:109F40001968012584F85E52B0F1804FCA718A8089
:109F500008601A6801D3916811B9012191601A68EB
:109F6000D4F87412D4F8583208680025D560857189
:109F70000E6804F13002012502618582B56008682F
:109F8000013B9AB2C28309685B428361CA82EFE6F1
:109F9000036993F85532013B052B0CD8DFE803F039
:109FA00003070903050304207047012070470220BE
:109FB0007047032070470079003018BF01207047B8
:109FC00070B51546044602F07FF80DB9D4F8785202
:109FD00002F07AF8064694F85532072B1AD9002D6C
:109FE000F9D002F071F8801B8542F4D802F06CF8C9
:109FF000801B854210D894F84832022B0CD194F87B
:10A000005E324BB194F85532072BFBD8012384F80C
:10A01000553201E0002DE9D194F85532072B02D9D1
:10A02000012384F855328023013BFDD194F8550279
:10A03000B0FA80F0400970BDF8B5069E0C46154692
:10A0400007461A46294620463346FFF705FD3246A5
:10A0500029462046FFF7B4FF3846BDE8F840FFF731
:10A0600097BF00BFF0B583B09DF8206013B9002002
:10A0700003B0F0BD099F04460D468DE8C000FFF710
:10A08000EBFD099A29462046FFF79AFF0028EED0FB
:10A09000D4F8380103B0F0BDD0F83421D0F838310D
:10A0A0009A4208D2D0F834315A1C0344C0F8342103
:10A0B00093F8300070474FF0FF3070472DE9F041C2
:10A0C000C04E337804460133DBB2C068A7683370F2
:10A0D00005783B78DBB203F0200282B0EDB23AB3F0
:10A0E00013F0100F94F85E327AD0022B00F0D88073
:10A0F00094F85E32032B00F0D38094F85532082B8D
:10A1000000F0298294F85532092B00F0648294F80B
:10A110005532012B00F0D38180233B70E36802228B
:10A120001A703378013BDBB2337002B0BDE8F081C6
:10A1300002F0FF08EA0624D405F0400202F0FF0E08
:10A140001ABB03F0100303F0FF02002B00F0838022
:10A1500015F0010540F0A881D4F84022D4F844322B
:10A160009A4207D2D4F840325A1C2344C4F8402201
:10A1700093F83C5123691D70A368D0221A70E068DF
:10A180006EE0102303706806C8D594F855320C2B86
:10A1900000F0098105F0040505F0FF07002D64D0EB
:10A1A000A3680021D0220B2084F85502C4F8441281
:10A1B0001A702269D4F86C1213785B0884F856324E
:10A1C00009B188472269D4F84432002B00F0748129
:10A1D00094F83C8182F800800123C4F840329DE766
:10A1E000022B00F0A68094F85E32032B00F0A180D1
:10A1F000D4F83831D4F858220233934200F04F811A
:10A2000094F85532012B00F04581D4F838310133F0
:10A21000934280F0198194F85532012B00F00F81A0
:10A22000D4F838312269591CC4F838112344127803
:10A2300083F83020E36802221A7094F85532DBB2BA
:10A24000012B7FF46EAF94F85D22002A7FF469AF92
:10A2500084F85D3265E794F855320C2B00F09C8150
:10A260000223037002B0BDE8F081574B574A94F8BF
:10A270004B0284F85C72002914BF11461946032270
:10A2800001F0A0FCA3680C21C02284F85512C4F888
:10A2900038711A7023691B785B0884F856323DE7E1
:10A2A000D4F8742213689B8B190604D594F85E3297
:10A2B000022B00F0B88094F85E32032B00F08E8001
:10A2C000434B12791968012393400B423FF429AFA5
:10A2D0004049414B0A70D4F8741209791970002270
:10A2E000072384F85E2284F85532D4F8943201337F
:10A2F00004D0D4F894320133C4F89432EA0611D56C
:10A30000042384F85532D4F88C32013304D0D4F8C5
:10A310008C320133C4F88C32E268102100231170B2
:10A32000C4F84032A36880221A70E36802221A70CF
:10A3300032E0D4F874321A68928B120603D594F87E
:10A340005E22022A63D094F85E22032A00F0DA80AB
:10A350001F491A790968012393400B423FF4E1AE8B
:10A360001C491D4B0A70D4F8742212791A70A36824
:10A3700080220020072184F85E0284F855121A70AA
:10A38000E36802221A70D4F89432013304D0D4F86E
:10A3900094320133C4F89432D4F87032002B3FF475
:10A3A000C0AE9847BDE6D4F86832002B3FF4F2AE59
:10A3B0000022C4F83421D4F838010191984701995A
:10A3C000E8E600BF1CA3FF1FBDA70000C9A700004F
:10A3D0002C8000401E8000401F800040037819063A
:10A3E000FCD5C14B12791A70002384F85E32D4F880
:10A3F00044322169013BC4F84032D4F8403223444E
:10A40000022293F83C310B70E3681A7089E6B74971
:10A410001B790B70A368E8211970E368032184F8A5
:10A420005E121A707DE6B14912790A70A268F021B5
:10A430001170E268032184F85E12137071E694F8DB
:10A440005D32002B3FF4ECAEA3680021B02284F80B
:10A450005D121A70D4F838312269591CC4F83811C9
:10A460002344127883F8302094F85432012B00F002
:10A47000C480E36802221A7094F85532012B33D05D
:10A48000D4F86432002284F85522002B3FF4D5AE74
:10A490009847D2E694F85D32002B7FF4B6AEE823FD
:10A4A0003B70D4F85822B0E6C0233B702369E068C3
:10A4B0001B7884F855E2D3E684F83C318AE694F8B8
:10A4C0005432012B0CBF8023B0233B70E36802227F
:10A4D0001A70D4F8803201333FF45EAFD4F8803282
:10A4E0000133C4F8803257E7D4F88032013304D006
:10A4F000D4F880320133C4F88032D4F87032002BA3
:10A50000C6D19AE6784A1B791370A3680021B0225D
:10A5100084F85E121A70D4F858322269013BC4F8EC
:10A520003831D4F83831591CC4F838112344127822
:10A5300083F8302094F85432012B00F0C180E36896
:10A5400002221A70D4F86432002284F85522002BBB
:10A550007FF427AFE5E505F0100303F0FF02002BC1
:10A5600052D000230421102284F85E3284F8551260
:10A570000270A26880211170E268C4F840320223A0
:10A580001370D4F88C3201333FF406AFD4F88C3218
:10A590000133C4F88C32FFE6554B564D84F85C22EB
:10A5A000002914BF29461946032294F84B0201F0F2
:10A5B00009FB23691B78D4F83821B2F5817FDBB21F
:10A5C00007D8D4F83821A1180132C4F8382181F80D
:10A5D0003030E06844E6EB062ED50422102384F8E0
:10A5E00055220370A36880221A70E36802221A7051
:10A5F000D4F88C320133C9D1CEE62023013BFDD102
:10A60000A36880221A7034E715F0010528D084F879
:10A610005E22D4F84032002B59D1022384F85532FF
:10A62000D4F88432013304D0D4F884320133C4F82E
:10A63000843280233B7078E6E9072CD50223802200
:10A6400084F855323A70E2681370D4F884320133DA
:10A650003FF4A2AED4F884320133C4F884329BE6CE
:10A66000D4F840320133C4F84032D4F84422934243
:10A6700042D394F8543284F85552012B0CBF8023F6
:10A68000B0233B70E36802221A70D4F86032002BCA
:10A690007FF487AE45E594F85E32012B34D0D4F8D0
:10A6A0005832012B4FF00A020CBFE823E02384F854
:10A6B00055223B702269E368127802221A7030E555
:10A6C0002023013BFDD1A36880221A7037E70323C2
:10A6D00084F85532D4F888320133AAD0D4F88832BD
:10A6E0000133C4F88832A4E71C8000401F8000407A
:10A6F000BDA70000C9A7000094F85E32012B12D05C
:10A70000D4F8403221697AE60223E12284F85E32ED
:10A710003A70D4F874120C4A097911702169E26810
:10A7200009781370FDE40223F12284F85E323A7056
:10A73000D4F87412044A09791170226994F83D1111
:10A740001170E2681370ECE41B80004000210148A6
:10A75000FFF7B4BCF08EFF1F01210148FFF7AEBC2C
:10A760008C91FF1FC3681B7803F020035BB190F846
:10A770005C320133DBB2012B80F85C3217D990F8E0
:10A780004B0201F09BBA70B503F0FF05044680F858
:10A79000555290F84B0201F091FAD4F868325BB14F
:10A7A000C4F83451D4F83801BDE87040184790F827
:10A7B0004932012BE3D1704770BD00BF0021014831
:10A7C000FFF7D0BFF08EFF1F01210148FFF7CABF7E
:10A7D0008C91FF1F2DE9F843134BDFF85C90DFF8F5
:10A7E0005C80124E124D1E6000244FF47A774A4668
:10A7F00041461C711C739F6018465C731D6105F017
:10A8000009FE0C4B4FF0010E05F527751C711C73EA
:10A8100083F80DE04A46414618461D619F601E6060
:10A82000BDE8F84305F0F6BD08A3FF1FDC98010062
:10A83000F08EFF1FF4A2FF1F508EFF1F1594000023
:10A8400010B4047F4160022CC26002D010BC03F03F
:10A85000B1BB836810BC1847F0B4464B464A186B2E
:10A86000DC6A01791170454922790A709A6A007987
:10A870000870002A46D05968C9688A423ED82168C3
:10A88000CC8B240402F1FF3065D4C0F30E00C883E2
:10A89000C88B80B2C882196B0968C88B000452D477
:10A8A000C2F30E00C883C88B002480B212F1FF32BD
:10A8B000C88218BF01229C62D96A2E4809680D68B7
:10A8C00000F12404A54236D00068C46814F0804F1B
:10A8D0000C680D6815BF248824780235013544F0D2
:10A8E00000440D604463196B254B097919702149A7
:10A8F00012B1CA6A12791A70F0BC7047521A9A6281
:10A900000122D9E7586B196805681E4C0A63CC62AE
:10A91000CC682D681C4E24F080440327B542CC60DF
:10A9200083F825701FD1037F4260022BC2601ED0C6
:10A93000F0BC03F03FBB016890F82400CC6840F005
:10A9400000404863CFE7CC8BC2F3080004F47E4498
:10A950002043C883A7E7CC8BC0F3080004F47E44EF
:10A960002043C88394E72B461146F0BC1847836800
:10A97000F0BC18472894FF1F1F8000401C80004037
:10A980001B80004000000FFF41A8000090E80C0071
:10A99000F0B41C6859682568164F174E294321608A
:10A9A000164D17491760D66015611160417A154A36
:10A9B0005C180A3194F8244053F8215002EBC4018A
:10A9C00049680D60017A5C1803EB8101247ECD6932
:10A9D00002EBC40149680D60817A581803EB8103CA
:10A9E00090F83000596B02EBC002F0BC536819605C
:10A9F000704700BF01401F000110003801100078AF
:10AA000000001F80209B010070B4417A44680E4B07
:10AA100005680E4E2144002291F8241003EBC10179
:10AA200049680A60017A2144097E03EBC101496843
:10AA30000A60817A214491F8301003EBC1035B680E
:10AA40001A602E6070BC7047209B010001401F00FF
:10AA500070B40A4B0A4A1B6812680A4E0A4D0B4929
:10AA6000306083B010440193019C094B286002229E
:10AA70000C601A7003B070BC704700BF80A3FF1F4A
:10AA80006094FF1F20A3FF1F2CA3FF1F28A3FF1FFD
:10AA900024A3FF1F38B50368044603211B689847A9
:10AAA00000F012F9236805465B68204603219847A9
:10AAB000284638BD054B002220211A701A4619700D
:10AAC000937903F00C030C2BFAD170470040064039
:10AAD0003E4B9A7912F00C0F02D19A79D20634D4F7
:10AAE0003A4A9379C3F38103032B33D0374A9379DE
:10AAF000C3F38103022B35D0344A9379C3F3810326
:10AB0000022B3AD0314A9379C3F38103022B3FD011
:10AB10002E4B9879C0F38100012841D02B4A9379BC
:10AB2000C3F38103012B45D0284B9879C0F38100F2
:10AB300008B1002070479A79D206FBD49B7913F0B4
:10AB4000200F14BF0020042070479B799806C7D4BB
:10AB5000032070479379D906C8D493799B06C5D54D
:10AB6000082070479379D806C6D493799906C3D53F
:10AB700053789B07C0D4072070479379D806C1D477
:10AB800093799906BED453789B07BBD405207047B0
:10AB90009379D806BCD453789907B9D50620704765
:10ABA0009A79D206BAD59A799106B7D45B789A0782
:10ABB000C0D4B3E79379DB06B6D593799806B3D4BE
:10ABC00053789907B0D40220704700BF0040064078
:10ABD000024A034B102111801B787047002005406A
:10ABE00002D00740C368F0B4DE07024615D51A202C
:10ABF000304F314E314D3249324C00233B7033706F
:10AC00002B700B70137053709370D3701179C9B29D
:10AC100021701371F0BCD36070471D0701D521204E
:10AC2000E6E7DC0601D50420E2E7990601D510200D
:10AC3000DEE75F0601D51620DAE71E0601D50920FA
:10AC4000D6E7190ACD0701D50A20D1E78C0701D52F
:10AC50000D20CDE74F0701D50B20C9E70E0701D521
:10AC60001E20C5E7CD0601D50220C1E78C0601D51F
:10AC70000720BDE74F0601D50620B9E70E0601D52E
:10AC80001520B5E71B0CDD0701D52420B0E79C0794
:10AC900001D52220ACE7D90601D52520A8E713F07D
:10ACA0000C0FF6D113F0200F0CBF4FF0FF30232014
:10ACB0009EE700BF00C0074001C0074002C0074038
:10ACC00003C0074004C00740F8B500F0FDFEA0F146
:10ACD0001103EE2B98BF10383E4B3F4D3F4C40497F
:10ACE000DFF828E13F4F404E94BFC0B2802018707B
:10ACF0002A683E483E4B42F080622A60226842F059
:10AD00008042226002680A60002202601A78394894
:10AD1000D2B28EF800205A78D2B23A709A78D2B273
:10AD20003270DA7805F5533505F2FF35D2B22A7064
:10AD300004F554341B790434DBB223700378063BEA
:10AD4000042B17D8DFE803F003393B4026002A4ADA
:10AD50002A4B2B480324147012781A68042422F01A
:10AD600002021A60046030BF002202601A6842F0DA
:10AD700002021A601848194A03681C4D214C43F01E
:10AD800080630360136823F0804313600B682B60BB
:10AD90002068F8BD1C4A194B194800241470127819
:10ADA0001A68042522F002021A60056030BF0460B0
:10ADB0001A6842F002021A60DCE7134AC8E7124A36
:10ADC0000E4B0F480224C6E70F4A0C4B0C480124D7
:10ADD000C1E700BF15E400E00470044000700440C7
:10ADE00074A3FF1F01C0074002C007400C9004403D
:10ADF00064A6FF1F6494FF1F01E0074010E000E01D
:10AE000010ED00E00082FF1F02E0074000C0074095
:10AE100030B583B00F4B009304460F4B0F4A00210F
:10AE200000F0A8FA04F140050D4B009328460D4BA5
:10AE30000D4A012100F09EFA02232046C4F88850F2
:10AE4000C4F89050C4F88440C4F88C4084F8803032
:10AE500003B030BD00B00340E09A0100889A0100C1
:10AE600000B00B40849A0100B49A0100036B1A7879
:10AE70008A4205D09A788A4201D000207047023376
:10AE80005A7802F01F031F2BF7D0436B5B0103F1CD
:10AE9000844303F52063DB6D0BB1D00970470120BB
:10AEA000704700BF90F821308B421FD0012970B449
:10AEB0001DD059B9124A134B11701970436B80F8A9
:10AEC00021105B0103F18443C3F8001472B6436B95
:10AED0005B0103F18443012200214276C3F89C14F4
:10AEE000C3F89824C3F89C2462B670BC7047064D22
:10AEF000034A044B6026E1242E701470DDE700BF86
:10AF0000014007404000FA420040074090F82330DB
:10AF10008B42F0B42FD0092900F29C80DFE801F0C9
:10AF20002D2D530505707F8D633E436B5A0102F151
:10AF30008442134603F5807302F5C0720026012493
:10AF400094603546DE6137460026D6601D605E603F
:10AF50005F619C6180F8231072B6436B5B0103F163
:10AF60008443012200214276C3F89C14C3F898243C
:10AF7000C3F89C2462B6F0BC7047436B5A0102F1DF
:10AF80008442134603F5807302F5C0720126002443
:10AF9000946035463446DE613746D5E7436B5A0147
:10AFA00002F18442134603F5807302F5C072012555
:10AFB00000249560DC6101240025D4605C601C6085
:10AFC0009D615D61C6E7436B5A0102F184421346FD
:10AFD00003F5807302F5C0720026012496603546A1
:10AFE000DE612746B0E7436B5A0102F18442134603
:10AFF00003F5807302F5C07200249460DC61DAE727
:10B00000436B5A0102F18442134603F5807302F543
:10B01000C0720024012797602546DC6194E7436BEA
:10B020005A0102F18442134603F5807302F5C0729F
:10B03000002501249560DC61BDE7436B5A0102F1F4
:10B040008442134603F5807302F5C07201249460B4
:10B05000DC61B0E7C38A9BB243F00103C3828AE795
:10B0600038B5437E04460D46EBB9636B012D4FEABC
:10B07000431303F184431FD903F590630121042D89
:10B08000996009D9082D24D9102D1BD92022596087
:10B09000196084F8202038BD00210422596019600D
:10B0A00084F8202038BD00F01BF8636B012D4FEAB7
:10B0B000431303F18443DFD80022C3F8882484F8C3
:10B0C000202038BD00221A601022596084F8202008
:10B0D00038BD002008221960586084F8202038BD4F
:10B0E000F8B5436B5B0103F1844303F59063DA69C0
:10B0F000044652B103F0BEFA636B5B0103F1844373
:10B1000003F59063DA69002AF4D19B6923B1E38ADD
:10B110009BB243F00203E38272B6637E03B3636BB8
:10B120009F6BDA6B1E6C5D6C986CD96C3A44324440
:10B130002A4402440A44C2F34E0242F40042DA6254
:10B140009F6DDA6D1E6E5D6E986ED96E3A44324414
:10B150002A4402440A44C2F34E0242F400421A63F3
:10B1600062B6A37E0025657663B102212046FFF713
:10B17000CDFE0221204600F057F804212046FFF7BB
:10B180006FFFA576F8BD00BF38B5C37E8B4213D0E4
:10B19000437E04460D469BBB092D0ED8636B5B01B5
:10B1A00003F1844300210822C3F80C11FF20C3F8E7
:10B1B0000811E276E06138BD38BD0B2D23D90D2D85
:10B1C0000FD8636B5B0103F184430122C3F80821AC
:10B1D00000200C22C3F80C0140F6FF71E276E16119
:10B1E00038BD636B5B0103F1844301211022C3F876
:10B1F0000C114FF6FF70C3F80811E276E06138BD1C
:10B20000FFF76EFFC8E7636B5B0103F18443002225
:10B21000C3F8082101200A22C3F80C0140F2FF31D3
:10B22000E276E16138BD00BF38B5437E05460C4685
:10B2300083B9042C0BD8DFE804F0101F2E3D030067
:10B240006B6B5B0103F184430022C3F8102185F886
:10B25000244038BDFFF744FFEBE76B6B5A0102F166
:10B26000844200210120C2F81001C2F88411C2F802
:10B27000801185F8244038BD6B6B5A0102F184427D
:10B2800001210020C2F81011C2F88011C2F8840117
:10B2900085F8244038BD6B6B5A0102F184420121CC
:10B2A0000020C2F81011C2F88001C2F8841185F89C
:10B2B000244038BD6B6B5A0102F184420121C2F86F
:10B2C0001011C2F88411C2F8801185F8244038BDED
:10B2D00070B5037E0446002B42D0244A136843F025
:10B2E00000631360636B5B0103F184430025042258
:10B2F0000126022184F8232084F8242084F82110D8
:10B30000E576E56184F8205084F82C506576E58276
:10B31000657584F822602946C3F890612046FFF7DE
:10B32000C1FD20460A21FFF72FFF2046A6762021E7
:10B33000FFF796FE31462046FFF7E8FD31462046EE
:10B34000FFF772FF72B6636B66765B0103F18443AD
:10B35000C3F89C54C3F89864C3F89C6462B670BD8B
:10B36000034A136843F000631360BBE73080044076
:10B370003C80044010B504460298A2622363217603
:10B38000606349B9094BA3633923204684F83C30F4
:10B39000FFF79EFF204610BD054BA3633A232046CE
:10B3A00084F83C30FFF794FF204610BD1060034046
:10B3B00038600340036B1A788A421FD09A788A4219
:10B3C00018BF1F2219D0436B5B0103F1844303F5BF
:10B3D0002063DB6D73B1022272B6416B4B0103F146
:10B3E00084439B69002B14BF6023202313440B600C
:10B3F00062B6704702F01F02EEE702335A78E2E7C6
:10B400002DE9F04F2B2983B0834603D8846A645C0E
:10B4100064060AD4BBF8163042489BB243F00403DA
:10B42000ABF8163003B0BDE8F08F01920091FFF742
:10B430001DFD0028EED09BF815109BF81900009B0D
:10B44000019A01318BF81510002863D1DBF8340024
:10B450009BF81BA0410101F18441D1F81C44003448
:10B4600018BF0124002C4FD072B6DBF834100D68E1
:10B47000D1F80890D1F80C800F6A4E6A62B6DBF8FA
:10B480003400400100F184404FF0000EC0F88CE41D
:10B4900019465846FFF78EFF01E003F0EBF8DBF8A2
:10B4A00034305B0103F1844303F58063DB69002BD7
:10B4B000F3D172B6DBF83420530103F18443DB6926
:10B4C000CBB11069BAF1100F00B229D062B654B1F5
:10B4D00072B6DBF83430C3F80890C3F80C801F62F2
:10B4E0005E621D6062B69BF81530013B8BF815302B
:10B4F00003B0BDE8F08FBBF816300A489BB243F0AA
:10B500008003ABF81630E1E7A046A1462646274661
:10B510002546B6E75846FFF7E3FD019A009B95E7FD
:10B520004000D3E790EEFEFF844641EA000313F0AB
:10B5300003036DD1403A41D351F8043B40F8043B3A
:10B5400051F8043B40F8043B51F8043B40F8043BFD
:10B5500051F8043B40F8043B51F8043B40F8043BED
:10B5600051F8043B40F8043B51F8043B40F8043BDD
:10B5700051F8043B40F8043B51F8043B40F8043BCD
:10B5800051F8043B40F8043B51F8043B40F8043BBD
:10B5900051F8043B40F8043B51F8043B40F8043BAD
:10B5A00051F8043B40F8043B51F8043B40F8043B9D
:10B5B00051F8043B40F8043B403ABDD2303211D33D
:10B5C00051F8043B40F8043B51F8043B40F8043B7D
:10B5D00051F8043B40F8043B51F8043B40F8043B6D
:10B5E000103AEDD20C3205D351F8043B40F8043B3D
:10B5F000043AF9D2043208D0D2071CBF11F8013B3B
:10B6000000F8013B01D30B8803806046704700BF00
:10B61000082A13D38B078DD010F003038AD0C3F10F
:10B620000403D21ADB071CBF11F8013B00F8013BF1
:10B6300080D331F8023B20F8023B7BE7043AD9D3B0
:10B64000013A11F8013B00F8013BF9D20B78037085
:10B650004B7843708B78837060467047374A38491F
:10B6600013681B06FCD40B6813F08003F8D172B684
:10B6700034490A78002A5FD0334A3448F0B4344C55
:10B68000176806682568D4680C303E441432006898
:10B690001268304F35442C4420440244C2F34E0219
:10B6A0002D4E2E482E4D2F4C42F400423A60376802
:10B6B00006682D682C4A24680C303E4400681268E5
:10B6C0002A4F35442C4420440244C2F34E02284EF3
:10B6D0002848294D294C42F400423A6037680668F0
:10B6E0002D68274A24680C303E4400681268254FB4
:10B6F00035442C4420440244C2F34E02224E2348D7
:10B70000234D244C42F400423A60376806682D68A5
:10B71000214A24680C303E440068126835442C44A9
:10B7200020440244C2F34E021C4842F4004202602C
:10B730000B7062B6F0BC704762B6704724B003402D
:10B7400024B00B4079A3FF1F38B003403CB0034046
:10B7500040B003402CB0034058B003405CB00340FD
:10B7600060B0034064B003406CB0034030B00340AD
:10B7700038B00B403CB00B4040B00B4044B00B40E5
:10B780004CB00B402CB00B4058B00B405CB00B40A1
:10B7900060B00B4064B00B406CB00B4030B00B405D
:10B7A00030B42948294A2A4B2A4D6024E1210470EB
:10B7B00011701B78284C082B30D00A2B27482849B9
:10B7C00037D00C2B0CBF35223D2212232A60236078
:10B7D00002600B60234B24491B78244ABBB1012330
:10B7E0000B601360224B23491B78234A012B26D977
:10B7F000042B0FD9082B1ED9102B94BF8623872327
:10B800000B6013601D4B01221A7030BC70470B6037
:10B810001360E7E784230B601360F3E700F58E20E5
:10B820000F490830012213232A60236002600B6055
:10B83000D0E73922F7E785230B601360E2E7802326
:10B840000B601360DEE700BF004007400140074087
:10B850006594FF1F08B003400CB0034008B00B40D4
:10B860000CB00B407CA3FF1F20B0034020B00B4066
:10B870006694FF1F24B0034024B00B4079A3FF1F40
:10B8800028282FD8334B2DE9F0411E5CFF2E2BD0FA
:10B89000314B1B78002B2AD132062CD472B62F4D97
:10B8A0002F4C2F46012326602B7062B672B6236898
:10B8B0001B060CD43B781BB9F4E72B78002BF1D096
:10B8C00062B602F0D7FE72B623681806F5D5254B8E
:10B8D0001B6800222A7062B6234A107843FA00F0EF
:10B8E000BDE8F081002070470020BDE8F081FFF73F
:10B8F000B5FE3206D2D572B61C4DDFF87C801C4CEA
:10B9000006F04007FFB206F03F06D8F80030DFB17E
:10B9100023F01003C8F8003001232660134A2B706F
:10B9200062B672B6236819060CD413781BB9ECE71B
:10B930002B78002BE9D062B602F09CFE72B6236829
:10B940001B06F5D50B4BC3E743F01003C8F80030D6
:10B95000E2E700BFE49A010079A3FF1F7BA3FF1F6A
:10B9600000B0034010B0034078A3FF1F7AA3FF1F6D
:10B9700000B00B4010B00B400CB00B400A4A0B4912
:10B98000136843F4805313600B7843B9084BC0220B
:10B990001A70084B80F30C0000B218807047044BFB
:10B9A00080221A70F5E700BF2C8004407CA3FF1FA3
:10B9B00021C00C4000C00C40F0B51B4B1B4E596819
:10B9C00018689A68DB6885B06C460FC433789907AD
:10B9D0001DD5174A174C1378174913F0700318BF79
:10B9E0001370164A164B8027177000263320032247
:10B9F00026706D4608701A7072B6043C45F0010559
:10BA00002046A84762B6237813F0700309D10D4B86
:10BA1000064901E0013B02D00A78D207FAD505B009
:10BA2000F0BD237005B0F0BD109B01000100024085
:10BA300000000240040002400B00024007000240E8
:10BA40000A000240410D030008B5104C08E02368CD
:10BA500059050DD423681A050FD42368DB0411D4CB
:10BA600023685803F3D501F0A5FA23685905F1D5E9
:10BA700000F038FF23681A05EFD501F039F9236883
:10BA8000DB04EDD502F07AFEEAE700BF3480044023
:10BA900008B5FFF7D9FF00BF704700BF094908B5D7
:10BAA0000B6830B16A461844A2F58052904202D227
:10BAB0000860184608BD04F0C1FC0C2303604FF079
:10BAC000FF3008BD6894FF1FEFF3138070B9EFF3E8
:10BAD00010836BB9EFF305825AB94FF48070EFF31E
:10BAE00011832BB1984228BF184670474FF0FF30A2
:10BAF00070470F2A01D81846F1E7014BD05CEEE7FA
:10BB0000F0E300E0704700BF10B40F4B53F8302053
:10BB100092F880422CB1012369B182F8803010BCC8
:10BB2000704703EBC0035B681A6841B922F0020258
:10BB30001A6010BC704782F8003110BC704742F0A8
:10BB400003021A6010BC7047209B01001C4A02EBE4
:10BB5000C00301295B6811D004291BD052F83000C2
:10BB6000002280F8802229B1022920D0032922D086
:10BB70001A6070474FF480721A60704752F83000B4
:10BB80004FF4A27280F880121A601A6822F0200224
:10BB90001A60704752F830104FF4A272012081F8F9
:10BBA00080021A601A6842F020021A60704740F260
:10BBB00003121A6070474FF481721A60704700BF19
:10BBC000209B0100212848D8F8B5042A44D8DFE892
:10BBD00002F0484B4E0345004FF410262B4B03EB6D
:10BBE000C0030D465C68216811F4E06148D0284B21
:10BBF000284A2949C3F89C2104F140422748C3F848
:10BC0000A411A2F59221264FC3F8A0017C29254852
:10BC1000C3F8A871C3F8AC012CD9A2F594237C2BEE
:10BC20002AD9A2F596237C2B28D9A2F598237C2B20
:10BC300029D9A2F59A227C2A27D81B4872B62368F4
:10BC400023F4702343F08072C4F38401164323600D
:10BC500040F82150266062B6F8BD70474FF4302698
:10BC6000BCE74FF40026B9E74FF44026B6E74FF49F
:10BC70002026B3E70D48E1E70D48DFE70D48DDE793
:10BC8000FFF764FFB3E70C48D8E7F8BD209B01003D
:10BC90000084FF1F098EFF1FB18DFF1FDD8DFF1F69
:10BCA000858DFF1F598DFF1F4495FF1F6C94FF1F4B
:10BCB000A494FF1FF494FF1F2495FF1F1A4B03EB5E
:10BCC000C00010B4426802F14043A3F592217C29E0
:10BCD00023D9A3F594217C290DD9A3F596217C299C
:10BCE0001FD9A3F598217C2919D9A3F59A237C2B78
:10BCF00011D80E4C00E00E4C72B613680D4823F0BC
:10BD00008773C2F3840123F4803343F0807313609C
:10BD100044F8210062B610BC7047074CECE7074CB2
:10BD2000EAE7074CE8E700BF209B01004495FF1FAE
:10BD3000A494FF1F05BB00006C94FF1F2495FF1FF8
:10BD4000F494FF1F014B1868704700BF00D00340F8
:10BD500030B4054B054D064C002210211A602A60B4
:10BD60002060196030BC704714D0034004D00340F9
:10BD700000D00340282838B52ED0002904464FDDD6
:10BD80005F4B1B78012505FA03F28A4202D821286D
:10BD900037D938BD0338C2B2012A3AD9202C4AD04B
:10BDA000192C48D0574A126802FB011222FA03F3F9
:10BDB0001D2800F29B80DFE800F0928B847D99992A
:10BDC000766F99999999999999999968615A53991E
:10BDD0004C99999999999945494B1B780B2B08D9FE
:10BDE0000C2B1CBF0C3B19410846BDE83840FFF73F
:10BDF000C5BDC3F10C0399400846BDE83840FFF7C4
:10BE0000BDBD2946FFF780FE2946BDE83840FFF753
:10BE10009DBE3D4A126802FB011222FA03F3C7E7F6
:10BE20002128B6D80021FFF76FFE20460121BDE88A
:10BE30003840FFF78BBE354A126802FB011222FA26
:10BE400003F3B5E73249334A0B604FF45173136083
:10BE500038BD3149314A0B604FF45173136038BD1E
:10BE60002F49304A0B6040F24443136038BD2E49DD
:10BE70002E4A0B6040F24443136038BD2C492D4AD2
:10BE80000B6040F24443136038BD2B492B4A0B60D2
:10BE900040F24443136038BD29492A4A0B6040F2FE
:10BEA0004443136038BD2849284A0B6040F244439C
:10BEB000136038BD2649274A0B6040F244431360A3
:10BEC00038BD2549254A0B6040F24443136038BD14
:10BED0002349244A0B604FF45173136038BD224943
:10BEE000224A0B604FF45173136038BD212C3FF68A
:10BEF00050AF7F29D4BF00210121204693E700BF26
:10BF00004C95FF1F088003400890034008800B40B9
:10BF100010800B4048A0044018800B404CA0044007
:10BF20001880034008B004401080034004B004406F
:10BF30004080034018C004403880034014C00440CF
:10BF40002880034010B00440208003400CB004401F
:10BF50003080034010C00440488003401CC00440AF
:10BF600018900340349004401090034030900440F7
:10BF700038B1102828BF1020044AC3B210781370BB
:10BF80007047024A01231078137070474C95FF1FC9
:10BF90002DE9F8430E4680463249334D304604F0D1
:10BFA00007F847F6122300281ABF1D464FF0020972
:10BFB0004FF00109002425FA04F003F003FE4FF0CE
:10BFC0005E51074603F056FE0146304604F004F881
:10BFD00030B90134072CEED1E80903F0F3FD074630
:10BFE0003146384603F0FAFE4FF07C5103F038FD3D
:10BFF00004F02CF84FF6FF729042A8F1030328BF1B
:10C000001046012B29D9B8F1170F17D8174B23FA6F
:10C0100008F303F0010383F0010223B9B8F1190F0B
:10C020000FD0BDE8F883124B124D13491A6044EA51
:10C03000C9042A6008601C60BDE8F883B8F1200FCD
:10C04000ECD10E4B0E4D0F49002244EAC9041A6090
:10C050002A6008601C60BDE8F8830B4B0B4D0C494F
:10C06000F2E700BF001BB740006CDC026006F00086
:10C0700000800340048003400880034000800B40A0
:10C0800004800B4008800B40009003400490034064
:10C0900008900340212801D8FFF736BD704700BF44
:10C0A000212806D8044B53F8303093F80002C0B270
:10C0B00070470020704700BF209B0100212801D855
:10C0C000FFF744BD704700BF72B60C490C4B0D4AD8
:10C0D0001B680868126862B6520102D5322B88BF0D
:10C0E00001300949C3F5BB334FF47A72FF33A1FB2A
:10C0F000031302FB00F000EB9310704780A3FF1FB7
:10C1000018E000E004ED00E0ABAAAAAA2DE9F8438C
:10C11000054672B6204F214B214A1B683C681268C5
:10C1200062B6520102D5322B88BF013495B3C3F5F4
:10C13000BB331C4EDFF86490DFF86480FF334FF4AC
:10C140007A72A6FB031302FB04F404EB931472B699
:10C15000D9F800103A68D8F800E062B6C1F5BB33F0
:10C16000FF33A6FB03031EF0806FC4EB93134FF461
:10C170007A7002D0322988BF013200FB0233B3F556
:10C180007A7F04D3013D05D004F57A74DFE702F02D
:10C1900071FADCE7BDE8F88380A3FF1F18E000E038
:10C1A00004ED00E0ABAAAAAAF8B52D4B2D49DFF8A3
:10C1B000D0E0DFF8D0C02C4E2C4D2D4C2D4A2E4F08
:10C1C0004FF4000018604FF0807018604FF000705E
:10C1D00018604FF0806018604FF000601860002019
:10C1E000086028234BF6FF71CCF80010CEF8003021
:10C1F000336013602B6023603B60B362936209225B
:10C2000045F8242CC4F8D80F05F57F65C7F8D41F6E
:10C2100007F5FF2707F5FA67C6F8F83F2B6006F524
:10C22000FF26C4F8D42F05F5FD2504F5FF2438605A
:10C2300006F2F4761148316005F5FF6504F5FD64FA
:10C240002B6023600260FFF7ABFA1920FFF75EFF57
:10C2500001F016FC40F21310BDE8F840FFF756BF9E
:10C2600008E100E004800340148003402480034080
:10C270002C8003401C8003403480034000800B402E
:10C280000C800340088003402DE9F84F214B1B68C8
:10C2900007460BB101221A70DFF888901E4D99F8FD
:10C2A0000040DFF884801D4E01343F2C8ABF4FF0E0
:10C2B000000A5FFA84FA5446AB462B78A34216D1A3
:10C2C000FFF702FC40281FDC33791B06F5D59BF8ED
:10C2D000003001333F2B86BF00221346DAB218F834
:10C2E0000330DBB2F3712A702B78A342E8D00C49FB
:10C2F0000A4BFFB208F804700120BC22087089F8CC
:10C3000000A0DA70BDE8F88FFF28D6DD02F0B2F9A0
:10C31000D3E700BF14A4FF1F11A4FF1F00A0064015
:10C3200010A4FF1F18A4FF1F8CA3FF1F2B4A2C492A
:10C330001368F0B543F4806313600A78294F2A4EDE
:10C340002A4D2B4C2B4900233B7033702B702370EC
:10C350000B70002A3DD0152A21D0274B1B78012BCA
:10C3600025D0052B30D01F2827D8002002460125D4
:10C37000224B234C1A7023495D7004224FF0020EA9
:10C3800088273C26402598729A704FF4005083F815
:10C3900013E05A751F74DE7025700860F0BD1A4BEB
:10C3A00040F213321A60144B1B78012BD9D1174B72
:10C3B0004FF451721F281A60D7D9C0F34432C0F32A
:10C3C000471500F01F00D3E7114B4FF451721A606C
:10C3D000C9E7104B40F213321A60BEE734800440C4
:10C3E000CCA3FF1F88A3FF1F89A3FF1F18A4FF1F53
:10C3F00011A4FF1F10A4FF1F4D95FF1F00A00640B2
:10C400002DE400E004E100E018C0044044A0044032
:10C410001CC0044040A00440144B14499B7803F016
:10C42000EC0200F003031343420700F00F0248BF81
:10C4300043F01003042A8B7013D00C4B0B4A5B792A
:10C44000C10603F0EF0348BF43F010035371937923
:10C45000820603F0EF03054A48BF43F010039371CF
:10C4600070478B7943F040038B71E6E700A00640EC
:10C47000234B1B685B0541D510B5224C237823B1B3
:10C4800002F0F8F82378002BFAD11F481F4A204BFE
:10C490004FF4005400210460D1701B78FBB1152BC0
:10C4A00003D11C4B40F203121A601B4B1B7803F0A4
:10C4B0007F03012B1DD0052B03D1184B40F2031233
:10C4C0001A60174A114B1748174912681C79DB7913
:10C4D000002303700B700AB10123137010BD134BBE
:10C4E00040F203121A600C4B1B7803F07F03012B00
:10C4F000E1D10F4B40F203121A60E2E7704700BF30
:10C500003480044010A4FF1F84E100E000A0064036
:10C51000CCA3FF1F18C004404D95FF1F1CC0044052
:10C5200084A3FF1F88A3FF1F89A3FF1F40A004400F
:10C5300044A004400A4A38B50546137803F0FF04C6
:10C54000002BFAD101212846FFF7B8FD21462846E5
:10C55000FFF7A0FD034A044B52F835201A6038BD9E
:10C5600010A4FF1F209B010014A4FF1F09B140F07D
:10C570008000174A1378984216D010B4154C2468DE
:10C5800064050FD503F07F03012B1CD0052B11D0C0
:10C59000002900F07F0114BF6023442301290DD03E
:10C5A000052902D0107010BC70470B4943F440734A
:10C5B0000B60F7E7084B00241C60E9E7074943F4E8
:10C5C00040730B60EEE7054B00241C60E0E700BF02
:10C5D0004D95FF1F348004401CC0044044A004401B
:10C5E000104B1A7882420AD00F490968490505D5CF
:10C5F000AAB1152A09D068B1152801D01870704762
:10C600000A4A40F213311160F8E7084A002111602C
:10C610000028F1D1064A40F213311160EEE70449D7
:10C620000A60E8E7CCA3FF1F3480044018C0044030
:10C6300040A004400D4B1B6813F4806305D02128F3
:10C6400005D90B4B00201860704718467047094BFE
:10C6500010B5074C53F8303023600121FFF72EFD51
:10C66000236800221A70012010BD00BF34800440EE
:10C6700084A3FF1F209B01000F4B1B6813F48063F2
:10C6800008D0122808D0142811D00C4A537B03F08C
:10C69000FE03537300207047094B40F202321A60C8
:10C6A000064A537B43F00103537301207047054B47
:10C6B00040F202321A60F3E73480044000A00640E2
:10C6C0000CA0044014C00440034B1B685B0501D55B
:10C6D000FFF7DABD704700BF348004402DE9F84F02
:10C6E000294B1B685A0548D5284B1B6805460BB1DA
:10C6F00001221A7005EB010A554540D2DFF89C80F3
:10C70000234CDFF89C90234F0AE015F8012B09F821
:10C710000B20214A0123AA45137088F800602ED00F
:10C7200098F80030227803F1010BBBF13F0F86BF70
:10C730000026B3465FFA8BF69345E6D1BC22FA7029
:10C7400005E03A7913060BD422789345DDD1FFF743
:10C75000BBF94028F5DDFF28F6DD01F08BFFF3E79C
:10C76000227801323F2A86BF00210A46D1B219F849
:10C770000220D2B2FA712170E6E7BDE8F88F054BCE
:10C78000BC22DA70BDE8F88F3480044014A4FF1F87
:10C7900011A4FF1F00A0064010A4FF1F18A4FF1F34
:10C7A0008CA3FF1F10B5044C237823B101F062FF66
:10C7B0002378002BFAD110BD10A4FF1F064A074BA7
:10C7C0001B781078DBB2C0B283422CBF3F3000F13F
:10C7D000FF30C01A704700BF11A4FF1F18A4FF1F2D
:10C7E000054A064B10781B78C0B2DBB2984238BFBE
:10C7F0004030C01A704700BF88A3FF1F89A3FF1FE6
:10C8000030B4154B154C1A782378D2B2DBB29A4269
:10C810001ED001333F2B0ED91149124B08781968ED
:10C820000023C0B2237021B1D31A1A2B01DC0023DC
:10C830000B7030BC70470A480A49C05C0968DDB219
:10C84000C0B225700029F4D09A4238BF4032EBE7DD
:10C850004FF0FF30EDE700BF88A3FF1F89A3FF1F44
:10C86000D0A3FF1F84A3FF1F084A094B12781B782F
:10C87000DBB29A4207D00133402B28BF0023054A80
:10C88000D05CC0B270474FF0FF30704788A3FF1FE5
:10C8900089A3FF1FD0A3FF1F0D4B1B685B0516D597
:10C8A00030B40C4B0C4CDA780C480D4902F0CB023A
:10C8B0004025DA705D74DA7842F03402DA70237859
:10C8C0000268DBB20B700AB10023137030BC7047F2
:10C8D0003480044000A0064089A3FF1F84A3FF1FEB
:10C8E00088A3FF1FF0B4384B1A7912F0300F2CD008
:10C8F00072B6997D01F0FF0200293DD062B6334F38
:10C90000334938780D78334E1C46C0B2EDB2431C23
:10C91000402BE17928BF0023AB4202F1FF32C9B2BC
:10C920001CBFF154184612F0FF02F0D12A4B1B68CD
:10C93000C2B23A704BB1A84236BFC5F14005401BA8
:10C9400040192728C4BF01221A701F49CA78D2B2E1
:10C95000150616D452060DD51B4B1B795B0609D55F
:10C960001E4B1F491B6800220A7003B11A70164B38
:10C970003C22DA70F0BC70474022D9795A7462B612
:10C98000E3E70B791C06E5D5164B174E1C78337878
:10C99000E4B2DBB29C420ED0144D01E0A3420AD0B7
:10C9A0000133402B28BF00230879E85CC0B2C8716E
:10C9B000087D0728F2D9DBB2034933700B791806DA
:10C9C00044BF7C23CB70C5E700A0064088A3FF1FAF
:10C9D00089A3FF1FD0A3FF1F84A3FF1F14A4FF1F61
:10C9E00010A4FF1F18A4FF1F11A4FF1F8CA3FF1F7B
:10C9F0002B4A2C491368F0B543F4006313600A789E
:10CA0000294F2A4E2A4D2B4C2B490023092A3B70D3
:10CA100033702B7023700B703DD01A2A21D0274B16
:10CA20001B780A2B25D01F2B30D01F2827D8002099
:10CA300002460125224B234C1A7023495D700422C3
:10CA40004FF0020E88273C26402598729A704FF4CA
:10CA5000004083F813E05A751F74DE70257008607B
:10CA6000F0BD1A4B40F213321A60144B1B780A2B9C
:10CA7000D9D1174B4FF451721F281A60D7D9C0F380
:10CA80004432C0F3471500F01F00D3E7114B4FF4B9
:10CA900051721A60C9E7104B40F213321A60BEE7B8
:10CAA000348004404E95FF1F8CA4FF1F21A4FF1F5C
:10CAB00094A4FF1F8DA4FF1F20A4FF1F4F95FF1FED
:10CAC00000B006402FE400E004E100E004D00440A0
:10CAD00010B0044000D004400CB00440234B1B684D
:10CAE0001B0542D510B5224C237823B101F0C2FDBD
:10CAF0002378002BFAD11F481F4A204B4FF40044E3
:10CB000000210460D1701B78092B1FD01A2B03D190
:10CB10001B4B40F203121A601A4B1B7803F07F0381
:10CB20000A2B1DD01F2B03D1174B40F203121A60A2
:10CB3000164A114B1648174912681C79DB790023F5
:10CB400003700B700AB10123137010BD124B40F239
:10CB500003121A600B4B1B7803F07F030A2BE1D101
:10CB60000E4B40F203121A60E2E770473480044033
:10CB700020A4FF1F84E100E000B006404E95FF1F97
:10CB800004D004404F95FF1F00D004401CA4FF1F99
:10CB90008CA4FF1F21A4FF1F0CB0044010B0044060
:10CBA0002DE9F84F294B1B681A0548D5284B1B68FF
:10CBB00005460BB101221A7005EB010A554540D21A
:10CBC000DFF89C80234CDFF89C90234F0AE015F897
:10CBD000012B09F80B20214A0123AA45137088F87C
:10CBE00000602ED098F80030227803F1010BBBF1E1
:10CBF000270F86BF0026B3465FFA8BF69345E6D132
:10CC0000BC22FA7005E03A7913060BD422789345DA
:10CC1000DDD1FEF759FF4028F5DDFF28F6DD01F0F4
:10CC200029FDF3E722780132272A86BF00210A4630
:10CC3000D1B219F80220D2B2FA712170E6E7BDE84C
:10CC4000F88F054BBC22DA70BDE8F88F34800440C1
:10CC500090A4FF1F8DA4FF1F00B0064020A4FF1F5B
:10CC600094A4FF1F24A4FF1F054A064B10781B78CD
:10CC7000C0B2DBB2984238BF4030C01A704700BF24
:10CC80008CA4FF1F21A4FF1F30B4154B154C1A783C
:10CC90002378D2B2DBB29A421ED001333F2B0ED999
:10CCA0001149124B087819680023C0B2237021B1D2
:10CCB000D31A1A2B01DC00230B7030BC70470A48D2
:10CCC0000A49C05C0968DDB2C0B225700029F4D001
:10CCD0009A4238BF4032EBE74FF0FF30EDE700BF3C
:10CCE0008CA4FF1F21A4FF1F4CA4FF1F1CA4FF1F27
:10CCF000F0B4384B1A7912F0300F2CD072B6997DFF
:10CD000001F0FF0200293DD062B6334F3349387835
:10CD10000D78334E1C46C0B2EDB2431C402BE17976
:10CD200028BF0023AB4202F1FF32C9B21CBFF1544D
:10CD3000184612F0FF02F0D12A4B1B68C2B23A70BB
:10CD40004BB1A84236BFC5F14005401B401927280A
:10CD5000C4BF01221A701F49CA78D2B2150616D470
:10CD600052060DD51B4B1B795B0609D51E4B1F497F
:10CD70001B6800220A7003B11A70164B3C22DA704D
:10CD8000F0BC70474022D9795A7462B6E3E70B7958
:10CD90001C06E5D5164B174E1C783378E4B2DBB28F
:10CDA0009C420ED0144D01E0A3420AD00133282B3F
:10CDB00028BF00230879E85CC0B2C871087D072845
:10CDC000F2D9DBB2034933700B79180644BF7C23D8
:10CDD000CB70C5E700B006408CA4FF1F21A4FF1F45
:10CDE0004CA4FF1F1CA4FF1F90A4FF1F20A4FF1F23
:10CDF00094A4FF1F8DA4FF1F24A4FF1F431E032B19
:10CE000014D872B60A4951F8230068B170B4094CBD
:10CE1000058834F81320466841F82360521B24F833
:10CE2000132062B670BC704762B67047002070472E
:10CE3000F0A4FF1F78A6FF1F013803280BD872B695
:10CE4000074B53F8203043B100205B680130002BC2
:10CE5000FBD162B67047002070471846F9E700BF63
:10CE600044A5FF1F30B472B62B4A13781D0706D5B0
:10CE70002A4B196A002936D0996A002941D0537883
:10CE80001C0706D5254B196C00293ED0996C00294A
:10CE900039D09378190705D5204B196E002936D063
:10CEA000996E89B1D3781B0707D51C4BD3F8802026
:10CEB0007AB3D3F8882011213AB162B6184B002218
:10CEC0001A7030BC00F068BE0D21154C154D22784B
:10CED00043F8315003EBC1030830013A5860227027
:10CEE00062B630BC704704220D4C0F4D217843F8D8
:10CEF000325003EBC20308304A1E5860227062B6FB
:10CF0000EFE70521E1E70921DFE70822ECE70C2242
:10CF1000EAE71022E8E700BFB89C01000080FF1F8D
:10CF20006DA5FF1FC800400088004000431E032B72
:10CF30001DD81B4A400140F0100030B4104472B6B6
:10CF4000184CE25C032A1BD8DFE802F00212151726
:10CF500003220D88E25410F0080F14BFC823882361
:10CF600043EA054308310360416062B630BC704754
:10CF700008300222EDE70522EBE708300422E8E75B
:10CF8000094A52F8230038B1084A52F82300416098
:10CF900042F8231062B6E9E742F82310034AF7E7A4
:10CFA0000080FF1F7CA5FF1F44A5FF1F54A5FF1F86
:10CFB00000BE00BF2DE9F04FDFF818B3DFF818A36B
:10CFC00087B044E0AE4F4FEA930807EBC809013E33
:10CFD000D9F8042003F00803F6B2A2F1080003F028
:10CFE000FF04002B40F0048157F838301B0C99B235
:10CFF00022F8081C002B00F0F280A24B22F8064C0D
:10D0000042F8044C53F82620002A00F06E819E4D11
:10D0100055F8263058609D4C45F8260034F81630F7
:10D02000194424F8161000F097FD002800F05681EE
:10D03000974A984B19F0080F00F1080018BF1346E3
:10D04000C9F8040047F8383008238BF800309BF803
:10D050000040E4B261071BD58F4B1B78ABB18F4901
:10D060000A7802F0FF032AB1013BDBB20B70002B00
:10D0700000F0EF848A490A7802F0FF032AB1013BED
:10D08000DBB20B70002B00F0F78004238BF800302C
:10D0900004F0080303F0FF02002B00F0D6809AF89A
:10D0A0000030DBB21E098DD19C08DFF8D49159F80D
:10D0B000342009EBC401C2F38302013A49680C2A07
:10D0C0007ED8DFE802F081817D7D7D7D7D7D477D9D
:10D0D0007D7D07000868734D4A68734F734E286062
:10D0E00081B240F281606A4B6A604FF0010E00220B
:10D0F000814249F834303A60C9F81020C9F8182044
:10D1000086F800E05E4C00F2F480B1F5D06F80F05C
:10D110007883B1F5817F00F0628300F287828029F5
:10D1200000F0EC82822940F01E83A98801F07F0183
:10D13000042900F218835E485E4C8900084422707E
:10D1400062700278930740F1798384F800E04FF031
:10D15000020ED8E2544F3A6842B3574B534E5749E8
:10D16000188834780D784028864645F0020828BF94
:10D170004FF0400E002C84F001043470CEEB000020
:10D180000CBF8824C82409EBC80680B285F00105CD
:10D1900044EA0E447260188049F8384072440D70B9
:10D1A00018B9BEF1400F18BF00223A603D4B1A88F3
:10D1B000B2F5A06F04D100219A785970404B1A70D3
:10D1C000404A012313703FE7364A158842F2210096
:10D1D000854200F0FF812E4A49F83420F0E72C4ABE
:10D1E0002C4B19F0080F18BF134647F838302BE7BF
:10D1F00000F0D2FC344A354952F82630002B00F0BA
:10D20000B68158688C5D42F8260003F10802C9F81F
:10D210000420032C05D8DFE804F0120F15020422C5
:10D220008A551A8819F0080F0CBF8823C82343EACF
:10D23000024347F8383007E702228A55F1E7032214
:10D240008A55EEE705228A55EBE7E00700F11A82DE
:10D25000210600F14982A20706D51D4A1D4913780F
:10D260000220DBB213700870E30602D5194B1022BE
:10D270001A7007B0BDE8F08F00F0FAFD05E700BFB7
:10D280000080FF1FF0A4FF1F9CA4FF1F78A6FF1FB4
:10D29000C80040008800400078A5FF1F01A5FF1FBF
:10D2A00080A5FF1F64A5FF1F98A4FF1F00A5FF1FF7
:10D2B000C020074070A5FF1FACA4FF1F6CA5FF1F77
:10D2C000982007409420074044A5FF1F7CA5FF1F1E
:10D2D000882007408020074090200740AB4A47F84D
:10D2E0003800137801331370AEE643F82600A84DDA
:10D2F00091E642F22100814200F0358100F2AF81D7
:10D30000B1F5086F00F01B82B1F5106F40F02B8271
:10D31000226AA049A8780870120600F14583D9F85E
:10D3200028209D49130600F13A83D9F830209A4904
:10D33000150600F12F83D9F838209749140600F11B
:10D340002483D9F840209449100600F11983D9F8B4
:10D3500048209149120600F10E83D9F850208E49D9
:10D36000130600F10383D9F858208B49150600F104
:10D37000F882D9F860208849140600F12983D9F889
:10D3800068208549100600F11E83D9F87020824973
:10D39000120600F11383D9F878207F49130600F1B3
:10D3A0000883D9F880207C49150600F11C83D9F840
:10D3B00088207949140600F11083D9F89020764925
:10D3C000100600F1C882D9F898207349120600F1BE
:10D3D000BC827248724A7349019073486C4D734C19
:10D3E0000497002305960295804617460E461D4673
:10D3F0000394386828B1446800F0CEFB2046002C26
:10D40000F9D100233B60029B30681A46002342F8A2
:10D41000253028B1446800F0BFFB2046002CF9D12C
:10D4200000223260019A98F800301146002241F83B
:10D43000042B039A0191023B4FF0000122F81510D2
:10D44000032B09D8DFE813F04B0104004B01040063
:10D450004FF0010388F800300135042D07F104076F
:10D4600006F1040608F10108C3D1514C514B227852
:10D47000464D049F059E002129701A70130700F184
:10D480004F8262784C49DFF810810A7010074FF024
:10D490000001C9F83010C9F8381000F12B82474953
:10D4A000A2780A700021C9F85010C9F85810110765
:10D4B000DFF8E48000F1DC81E2784149364C0A7003
:10D4C00000211207C9F87010C9F8781000F1B9816D
:10D4D00033780193002183F00102C9F89010C9F854
:10D4E00098100020029080468446044635490D7805
:10D4F00045F0020E09EBCE030393019B002B039B27
:10D500005C600CBF8824C82444EA080385F0010449
:10D5100049F83E3032700C70DFF87CE02A4BDFF8BF
:10D52000A480002840F02681BCF1400F1BD144F0BC
:10D53000020C09EBCC03029CDFF85CE05C60002A83
:10D5400040F02E81020442F088029DF804304EF82B
:10D550003C20044433700D702346402803D1002042
:10D560001A4A3B6010801A4A0123137028E68B5D2B
:10D57000032B00F22D8101A252F823F049D00000C4
:10D5800049D00000D3D60000D9D600006DA5FF1FFA
:10D590009CA4FF1F78A5FF1F0080FF1F54A5FF1F3D
:10D5A000F0A4FF1F44A5FF1F7CA5FF1F78A6FF1F47
:10D5B000B89C0100C4200740C8200740CC20074089
:10D5C000D02007406CA5FF1F00A5FF1FACA4FF1FC4
:10D5D00094200740928892B9B14A0D784878157026
:10D5E00050708D78C8789570D07010680D7915716D
:10D5F00086284D7989795571917100F0A580A949E6
:10D60000A94E0A78307882F00105002842F0020223
:10D610000D700CBF8821C82149F8321009EBC202F5
:10D6200080F00100002130705160D4E540F20232F8
:10D63000914240F08D80A98801F07F01042900F219
:10D6400092806A88002A40F08E809848CDF804E0E5
:10D6500089000844017841F00201017041E742F27B
:10D66000212081427BD1A988002940F0E480904BA1
:10D67000904A9148AC781D681560CDF804E00A46E0
:10D6800004702EE78D4B8E4886491A614FF0020ECA
:10D6900080F800E0854F0A708A49196099608A4EC7
:10D6A0008A4D8B4C9A610D213970FF213170DFF862
:10D6B00040E229702270874D874A8EF800109F271C
:10D6C000012406F8047C5D600470DA6007B0BDE8F0
:10D6D000F08F00238B55B7E401238B55B4E44FF052
:10D6E000000388F80030B7E67049784B80220D209F
:10D6F00008701A70A2077FF5B7ADAEE5774C4FF012
:10D70000020E22706270EA88724580F0A38165493A
:10D710000D78402A944645F0020E28BF4FF0400C89
:10D7200004EB0C0309EBCE000293012344604FEAA3
:10D730000C48CCEB020001930022C824E4E6684ABE
:10D74000664C12782270DEE7664A0F21117056E7A8
:10D75000B1F5A06F07D1012300220193C1E642F287
:10D7600021329142F7D0514A0F231370544A0123BA
:10D77000137025E540287FF6DAAE44F002040EEB84
:10D78000C401029E4E60BAB19DF80410564A197049
:10D790003346403888F8005040334EF83420DFE6F6
:10D7A0009DF8043033700204029B0D7042F0C802F1
:10D7B00003444EF83C20D0E69DF804101970029BFB
:10D7C000404A88F80050403840334EF83420C7E6CD
:10D7D00019F0080F0CBF022303238B5534E4A988EA
:10D7E00001F07F010429BED86A88002ABBD12F48E6
:10D7F000CDF804E089000844017821F002010170AD
:10D800006FE63A4A5468002CADD06888B5F804E059
:10D8100003E00C325468002CA5D013888342F8D161
:10D8200053887345F5D1000A03280CBF94F800E033
:10D83000B2F808E067E7CDF804E052E64FF0020ED8
:10D8400061E700F089F9002800F0F18008301D4AF6
:10D85000C4F88400C4F8802000F07EF9002800F0AD
:10D86000E0800830204AC9F88C00C9F888202FE6EB
:10D8700000F072F9002800F0E6800830114AC8F87C
:10D880006400C8F8602000F067F9002800F0D58037
:10D890000830154AC9F86C00C9F868200CE600BFCA
:10D8A00080A6FF1F6CA5FF1F00A5FF1FC02007401B
:10D8B00080A3FF1F88A6FF1F90A5FF1F0080FF1FEA
:10D8C00094200740880040008820074080200740BF
:10D8D00098200740B0A4FF1F04A5FF1F70A5FF1FDD
:10D8E00078A5FF1F01A5FF1FC8004000BC9C0100D8
:10D8F0008C20074000F030F9002800F08C800830C0
:10D900005D4AC8F84400C8F8402000F025F9002816
:10D910007BD00830594AC9F84C00C9F84820BEE508
:10D9200000F01AF900286AD00830534AC9F82400D8
:10D93000C9F8202000F010F900285AD008304F4ACA
:10D94000C9F82C00C9F828209BE5D1F89C000838BC
:10D9500000F022F93DE5D1F89400083800F01CF9F8
:10D9600031E5C86D083800F017F902E5486D083850
:10D9700000F012F9F7E4C86C083800F00DF9ECE497
:10D98000486C083800F008F9E1E4C86B083800F08A
:10D9900003F9D6E4486B083800F0FEF8CBE4C86A17
:10D9A000083800F0F9F8C0E4606A083800F0F4F8CC
:10D9B000B5E4C86F083800F0EFF8F2E4486F0838B3
:10D9C00000F0EAF8E7E4C86E083800F0E5F8DCE4B7
:10D9D000486E083800F0E0F8D1E4D1F88C0008383F
:10D9E00000F0DAF8E9E4D1F88400083800F0D4F85F
:10D9F000DDE42A78C9F8280001322A7041E52A7846
:10DA0000C9F8200001322A7094E72A78C9F8480042
:10DA100001322A7043E52A78C8F8400001322A70A2
:10DA200073E72A78C9F8880001322A7050E52A780D
:10DA3000C4F8800001322A700EE72A78C9F868001D
:10DA400001322A7038E52A78C8F8600001322A705D
:10DA500019E700BEBEF1400FF44628BF4FF0400C5E
:10DA600004EB0C0302930123CCEB0E004FEA0C48AD
:10DA7000002201933AE500BF88004000C800400042
:10DA8000F8B500F0E7FE294B29482A4C2A4F2B4DC8
:10DA9000DFF8BCC0DFF8BCE0294E00221A605A60F3
:10DAA0009A60DA601A615A619A61DA611A625A629E
:10DAB0009A62DA621A635A639A63DA631A645A647E
:10DAC0009A64DA641A655A659A65DA651A665A665E
:10DAD0009A66DA661A675A679A67DA67C3F8802027
:10DAE0000168C3F8842041F480210160C3F3072159
:10DAF0002170C3F30740134938701B0E2B70FF23AE
:10DB00008CF80030104D8EF8003010480B70012357
:10DB1000337084F8642070264FF40074102207F8E4
:10DB20002C3C2E70046081F8F820F8BD0080FF1FA7
:10DB3000348004409C200740B0200740B4200740B8
:10DB4000942007401020074049E400E008E100E08D
:10DB5000802007408820074072B60D480268B2FA5C
:10DB600082F30B2B10DC4FF00041D94022EA010276
:10DB7000026062B6074803EBC303DB00C218002152
:10DB8000C15010465160704762B60020704700BF18
:10DB90005095FF1FBC85FF1F0D4B0E4AC31AA2FBF9
:10DBA00003231B090B2B0CD80B4A127852B972B6FF
:10DBB0000A484FF00041026821FA03F31A43026059
:10DBC00062B67047064A1278002AF0D0FFF74AB9C9
:10DBD000BC85FF1F398EE3386DA5FF1F5095FF1FD1
:10DBE00078A5FF1F38B50F4D286878B143880288A3
:10DBF000C118013393420C7A02D24380204638BDCB
:10DC0000FFF7CAFF002320462B6038BD064B1B7868
:10DC10002BB10320FFF7F2F828600028E6D14FF07F
:10DC2000FF3038BD8CA5FF1F78A5FF1F10B5094C2C
:10DC3000206818B143881844007A10BD064B1B7841
:10DC40002BB10320FFF7DAF820600028F2D14FF063
:10DC5000FF3010BD8CA5FF1F78A5FF1F044B054AA0
:10DC60001B6890881BB11A885B88D31A18447047C8
:10DC70008CA5FF1F78A6FF1F0B4B1B789BB110B51F
:10DC80000A4C206848B1FFF787FF00230320236078
:10DC9000FFF7B4F830B1FFF77FFF0320FFF7AEF8CE
:10DCA0000028F8D110BD704778A5FF1F8CA5FF1F75
:10DCB0002DE9F04FDFF8F89083B0012289F80020B9
:10DCC000019169B3DFF8EC80364F019E8346D8F8A6
:10DCD0000000B0B3344D4488C4F14001B14228BFC4
:10DCE000314604EB010E00221FFA8EFE2A70761ACE
:10DCF000A0F802E000F1080251B1013C224459446D
:10DD00001BF8014B02F8014F8B45F9D1B0F802E046
:10DD1000BEF13F0F0BD8254A05211170002ED6D138
:10DD20000198002389F8003003B0BDE8F08F40224D
:10DD3000028001460420FFF7F9F80022C8F800200D
:10DD4000E9E73A782AB3184D4AF2F9244FF0010A6C
:10DD500007E0013C16D02A78A2B900F08BFC3A7893
:10DD6000BAB10420FFF768F80728F2D889F800A0B4
:10DD7000FFF7F2FEC8F800000028ACD10C4B013CC4
:10DD80001870E8D101234FF0FF302B7003B0BDE8CD
:10DD9000F08F00234FF0FF3089F8003003B0BDE86A
:10DDA000F08F00BF78A5FF1F88A5FF1F80A5FF1F6C
:10DDB00081A5FF1F84A5FF1F00B583B002AB012121
:10DDC00003F8010D1846FFF773FF03B05DF804FB7D
:10DDD00038B50E4D0E4C28680123237028B14088B9
:10DDE00000232370C0F1400038BD0A4B1B7813B9E3
:10DDF0000020207038BD0420FFF71EF80728F7D850
:10DE0000FFF7AAFE28600028E9D1F1E784A5FF1FEB
:10DE100081A5FF1F78A5FF1FF8B5114B1B788BB1AB
:10DE2000104E114D346801272F7064B10F4A63887A
:10DE300000271770214623800420FFF777F837600A
:10DE400000232B70F8BDFFF787FE084B28B1014671
:10DE500004201C70FFF76AF8F2E71F70F0E700BFBC
:10DE600078A5FF1F84A5FF1F81A5FF1F80A5FF1FA9
:10DE700038B50E4B1B7873B90D4C216861B103F0B6
:10DE8000FF054B880B800420FFF750F8256038BD54
:10DE9000084B01221A7038BDFFF75EFE0028F7D04C
:10DEA0000146BDE838400420FFF740B881A5FF1FB8
:10DEB00084A5FF1F80A5FF1FF0B572B699B902684F
:10DEC0008AB103790F2B0ED8274C218841FA03F52C
:10DED000ED070AD503F1007303F59063B2EB431F1E
:10DEE00003D162B6F0BD204C2188002341FA03F231
:10DEF00012F0010207D00133102BF7D162B60022D5
:10DF000003710260F0BD01259D402943218062B666
:10DF1000164E174D174FDFF864E0D9B2017134681F
:10DF200044F0020434602C6844F002042C60A6F52E
:10DF300080268224A5F5802503F100733C6003F55B
:10DF40009063223E243D0C4C8EF800105B01317032
:10DF50002970217003601A605A609A60DA601A6151
:10DF60005A619A61DA61F0BD92A5FF1F40800440BA
:10DF70003C800440008000401F8000401A80004028
:10DF800003790F2B11D8094A10B4137072B60849DF
:10DF900004790A880123A34022EA03030B8062B6B6
:10DFA0001022002310BC0271036070471A800040E9
:10DFB00092A5FF1F10B4EFF3108272B6437F33B9FE
:10DFC000017F012907D003290FD00123437702B92C
:10DFD00062B610BC7047124C2168A1B1114943616F
:10DFE0000B68836108605861EFE70F4C216881B1CD
:10DFF0000E4943610B688361086058610C4B4FF018
:10E0000080511960E1E7074B416181612060186030
:10E01000DBE7064B4161816120601860EEE700BFDD
:10E02000A4A5FF1FA0A5FF1F94A5FF1F98A5FF1F74
:10E0300004ED00E070B5EFF3108272B60C4C20686E
:10E0400080B10C4E00254369236073B19D6102B914
:10E0500062B6457783689847EFF3108272B62068FE
:10E060000028F0D102B962B670BD3360EFE700BF9F
:10E0700094A5FF1F98A5FF1FFFF7DCBF184A30B417
:10E080001468002C27D0036821688B420ED2CB1A6B
:10E0900000218460C1602360E0601060022303758A
:10E0A00030BC704711688B42144608D3A2685B1AD3
:10E0B0000360002AF6D18260C460A060EEE7D268F7
:10E0C000C2608460E060C568CB1A0222A860236049
:10E0D000027530BC70478460C4601060DEE700BF2A
:10E0E0009CA5FF1FF8B5224E34682CB32368002B83
:10E0F0003AD1204F1D4604E03468ECB12368002B70
:10E1000032D1A36803B1DD602069336003682575EF
:10E110001B68BB4221D1037F4560022BC46020D025
:10E12000FFF748FF6368002BE6D023602046FFF727
:10E13000A5FF3468002CE1D1EFF3108372B60E4ACC
:10E1400000211068116003B962B628B18468FFF736
:10E1500095FF20460028F9D1F8BD224600219847B6
:10E16000E0E783689847DDE7013B2360E4E700BF11
:10E170009CA5FF1F41A80000ACA5FF1F024A136821
:10E1800001331360FFF7AEBF80A3FF1F0368C9B25E
:10E190001B6818470368C9B21B6818470368C9B2EF
:10E1A0001B6818470368C9B21B68184708B50846BA
:10E1B000FEF78AFA012008BD08B50846FEF784FA82
:10E1C000012008BD38B508460D4603F0D9FC0446C9
:10E1D00001462846FEF782FA204638BD10B50846AB
:10E1E00014461146FEF77AFA204610BDFEF754BBDE
:10E1F00008B50846FEF740FA003018BF012008BDF8
:10E2000008B50846FEF716FA003018BF012008BD11
:10E2100008461146FEF7AAB90846FEF7E1B900BF65
:10E220000846FEF787B900BFFEF722B94B0803F195
:10E23000376000F5D830B0FBF1F0FEF777B800BFDB
:10E2400010B54B0803F13760144600F5D830B0FB29
:10E25000F1F0FEF76BF82046BDE81040FEF7DCB8A1
:10E26000FEF702BBFEF7CCBAFEF7BABAFEF79ABACF
:10E27000FEF7A4BA704700BF704700BF0368F0B450
:10E28000FBB1002501249D60DC601B4C1A601C441E
:10E29000241104F144056A11032692009E60174F71
:10E2A0000679174B47F8241002F1604202F56142EB
:10E2B00005F01F05012000FA05F5E6541560F0BCD5
:10E2C0007047104C236843F40003236000BF0E4BDB
:10E2D0000E4DA4F58734A4F59E7401261E602346D6
:10E2E00004609C68002CD0D01033AB420360F8D19E
:10E2F000002303601846E2E7008FFCBF6495FF1F10
:10E3000044E400E03C80044000700340407103405E
:10E310000168A9B10B4BF0B40B441B110A4E0B4F13
:10E320000B4D46F8237003F1440202F01F04012351
:10E330005211A340002445F822308C600460F0BCE8
:10E34000704700BF008FFCBF6495FF1F79E200009B
:10E3500080E100E0024A034B012111601B6818476D
:10E360000C7103406495FF1F024A034B01211160A9
:10E370005B6818471C7103406495FF1F024A034BFA
:10E38000012111609B6818472C7103406495FF1FA1
:10E39000024A034B01211160DB6818473C710340BE
:10E3A0006495FF1F10B5036814465B6898472046C4
:10E3B00010BD00BF0EB400B582B003AA52F8041B12
:10E3C000019206F0EFFF02B05DF804EB03B0704776
:10E3D000F0B507468BB0002A33D0012A08BF0A22C5
:10E3E00051B3212400E0F4B2B1FBF2F502FB1511A8
:10E3F000C8B2092900F1300198BFC8B20AA988BF84
:10E400003730214488BFC0B201F8240C661E29466B
:10E41000002DE8D133B1013CE4B20AAB23442D22F4
:10E4200003F8242C3B6801AA11195B683846C4F133
:10E43000220298470BB0F0BD30228DF82520212410
:10E44000E8E70368C9B21B6898470BB0F0BD00BF8E
:10E450000029BABF49422D2300230A22FFF7B8BF83
:10E4600010B50446006802F06FF8204610BD00BFEA
:10E4700038B543688B4201D3012038BD0D460446B0
:10E480000131006802F0B2FE0028F6D0A36884E8EB
:10E490002100002BF0D10370EEE700BFF8B5044671
:10E4A000154632B9036803B11A700023A3602046F1
:10E4B000F8BD0E461146FFF7DBFF074648B9206856
:10E4C00010B102F041F8276000236360A36020468A
:10E4D000F8BDA5603146206803F0F0FAE7E700BF19
:10E4E00038B500230446036043608360037341B181
:10E4F00008460D4603F044FB294602462046FFF736
:10E50000CDFF204638BD00BF0023884210B5044629
:10E51000036043608360037303D08A680968FFF770
:10E52000BDFF204610BD00BF38B5054608460C4665
:10E5300003F026FB214602462846BDE83840FFF797
:10E54000ADBF00BF10B5044619B1FFF7EDFF20467F
:10E5500010BDA160204610BD2DE9F84303680F46A9
:10E56000BB420446816815460AD85A18974207D21A
:10E57000C3EB07094FF0010835B92046BDE8F88321
:10E580004FF00008002DF8D04E1931462046FFF715
:10E590006FFF0028F1D0B8F1000F0ED02368A068FB
:10E5A0002A4603EB09011844FCF7BEFF236800224A
:10E5B0009A55A6602046BDE8F8832068A3683946CE
:10E5C000184403F07BFAF4E738B5054641B1084634
:10E5D0000C4603F0D5FA214602462846FFF7BCFF59
:10E5E000284638BD10B582B000238DF804100122F2
:10E5F00001A904468DF80530FFF7AEFF204602B0B2
:10E6000010BD00BF826808B50B462AB971B11878F1
:10E61000B0FA80F0400908BD31B1006803F0E4F8B9
:10E62000B0FA80F0400908BD0368F0E7012008BD9A
:10E6300008B5F7F769FBF7F7CFFA00F01BF8FAE730
:10E6400001F07ABF01F080BFFFF716BBFFF7EEBA0B
:10E65000FFF7C8BAFFF702BBFFF7DEBBFFF7B8BB97
:10E6600008461146FFF724BB0846FFF7A5BB00BFCD
:10E67000704700BF38B5224C237803B138BD012361
:10E680002370FFF7EBFA70BBFEF7AAF840BBFEF76A
:10E69000EBFA10BB00F062F8E0B900232370EFF34F
:10E6A0000583002BEAD1EFF3108172B6154B186881
:10E6B000E0B1154C2278CAB945691D600123237069
:10E6C000C5B1AA6101B962B600254577836898474C
:10E6D0002570D3E700F002F9DFE700F0FDF8D9E795
:10E6E000FFF7C8FDD3E7FFF7C3FFCDE70029C5D18A
:10E6F00062B638BD054B1D600029E5D1E3E700BFD8
:10E70000B0A5FF1FA4A5FF1FA8A5FF1FA0A5FF1F61
:10E71000F0B44D1E2E46002400E00134B0FBF2F3AD
:10E7200002FB1300092800F130078ABF3730F8B226
:10E73000C0B206F8010F1846002BEED10A1953702B
:10E740004CB1107815F8016F28700133E01A83423C
:10E7500002F80169F5DB0846F0BC7047054A064B34
:10E7600010781B78C0B2DBB2984238BF4030C01A74
:10E77000704700BFB8A5FF1FB9A5FF1F30B42B4BD2
:10E780001A7994061FD52A48DA7903782949013382
:10E790003F2B0978C8BF00238B42D2B203D0264C4E
:10E7A000D9B2E2540170254A116861B1244A127845
:10E7B000D2B2934236BFC2F140029B1A9B18272B5C
:10E7C000C4BF01230B70194AD378DBB2180611D4E9
:10E7D0005A060DD5154B1B795B0609D5194B1A49FD
:10E7E0001B6800220A7003B11A70104B2C22DA70D9
:10E7F00030BC704711790906EAD5144910480C78E5
:10E800000178C9B28C420DD04A1C272A84BF00214E
:10E810000A460F4D054C98BFD1B2AA5CD2B2E27144
:10E820000170D5E76C21D170D2E700BF00C006406F
:10E83000B8A5FF1FB9A5FF1FE4A5FF1FB4A5FF1FC3
:10E8400025A6FF1F28A6FF1F24A6FF1F2CA6FF1F1B
:10E85000BCA5FF1F70B584B072B6194B194D1A488C
:10E86000702241260F2480211A702E701A460470DF
:10E87000197013781B06FCD5144B186862B6144B3C
:10E88000144C984298BF00EB800001A998BF40004B
:10E890000A22FFF73DFF01A92046002311F8012BB2
:10E8A00001333AB10A2B20F8022FF7D11623237037
:10E8B00004B070BD5B00DBB2237004B070BD00BF5C
:10E8C000000002400700024006000240080002402B
:10E8D0007F9698001096FF1F704700BF704700BFDB
:10E8E00008B5C0F3C7537F3B162B01460EDC002B47
:10E8F000024610DB0B481841014205D04FF480015D
:10E900001941114421EA0001084608BD802BFBD1C2
:10E9100001F0A8F808BD013300F00041F4D141F046
:10E920007E51F1E7FFFF7F002DE9F0418AB00446F8
:10E930000D4600F0D5F8364B93F90080B8F1FF3F53
:10E9400006460F460DD022462B462046294600F0AB
:10E95000D5FF30B9002200232046294600F0C4FF2D
:10E9600020B1304639460AB0BDE8F081294B089005
:10E97000CDE90245CDE90445019320462946B8F189
:10E98000000F17D1244D4FF0604400220023CDE941
:10E99000064500F081FF002832D00223009368462C
:10E9A00000F052FB98B1089BB3B9DDE906010AB04B
:10E9B000BDE8F081194D002400220023CDE9064571
:10E9C00000F06AFF68B1022398450093E7D101F097
:10E9D00035FD22230360E6E701F030FD089B03606C
:10E9E000E3E70123B8F1020F00930BD101F026FDFC
:10E9F000212303600A4800F029FBCDE90601D2E794
:10EA000001230093684600F01FFB0028F2D1EDE7D8
:10EA10002696FF1F109D0100FFFFEFC70000F0FFCB
:10EA2000588A01002DE9F04F8BB004460D4600F0E6
:10EA30004BFA284B93F900A0BAF1FF3F06460F4668
:10EA400012D022462B462046294600F057FF834627
:10EA500050B94FF000084FF0000942464B4620469F
:10EA6000294600F023FF20B9304639460BB0BDE8F7
:10EA7000F08F194BCDF820B00122CDE90445CDE946
:10EA800002458DE80C00BAF1000F15D042464B4606
:10EA90004046494600F0C2FDBAF1020FCDE9060139
:10EAA0000CD101F0CBFC21230360089B63B9DDE9A5
:10EAB00006010BB0BDE8F08FCDE90689684600F08D
:10EAC000C3FA0028F1D1ECE701F0B8FC089B036021
:10EAD000EDE700BF2696FF1F149D0100FFFFFFFF1B
:10EAE0002DE9F04FB1F5801F85B006460F460B4665
:10EAF0005ADA024621F00044224300F0F88000294F
:10EB0000C0F27A810022D64B00F05EFC0B460F4625
:10EB1000D4498B4206466FF035024ADCC3F3130535
:10EB200005F5152404F6647404F4801E8EF07F51FC
:10EB300081F440111B15A3F2FF3341EA05079C182D
:10EB400030460022C84B394604EB1E5400F088FAC8
:10EB5000AB1CC3F31303022B82468B464FF000021B
:10EB600030DC002300F098FE002800F0C980002C63
:10EB700000F04B81204600F0C1FBA5A3D3E90023A0
:10EB800006460F4600F020FCA3A3D3E90023044669
:10EB90000D463046394600F017FC02460B4620462B
:10EBA000294600F05FFA0AE0AE498B424FF00002BE
:10EBB000B4DD32463B463046394600F053FA05B0E4
:10EBC000BDE8F08F4FF0804300F04CFA02460B4650
:10EBD0005046594600F022FD064620460F4600F0FA
:10EBE0008DFB3246CDE900013B4630463946CDE942
:10EBF000026700F0E9FB02460B468046894600F0BA
:10EC0000E3FB87A3D3E9002306460F4600F0DCFBB5
:10EC100085A3D3E9002300F025FA32463B4600F0F5
:10EC2000D3FB83A3D3E9002300F01CFA32463B4612
:10EC300000F0CAFB80A3D3E9002300F013FA424698
:10EC40004B4600F0C1FB7EA3D3E9002380468946F2
:10EC50003046394600F0B8FB7BA3D3E9002300F02F
:10EC600001FA32463B4600F0AFFB79A3D3E900231B
:10EC700000F0F8F932463B4600F0A6FB0B46024690
:10EC80004946404600F0EEF9A5F5C223C5F5D72563
:10EC9000A3F27A4351351D43002D8046894656DD47
:10ECA0000022724B5046594600F08EFB52465B469E
:10ECB00000F08AFB06460F46002C68D132463B46E0
:10ECC0004046494600F0CEF9DDE9022300F07CFB26
:10ECD00002460B463046394600F0C2F902460B4662
:10ECE0005046594600F0BCF905B0BDE8F08F00224F
:10ECF000002300205E4900F091FC05B0BDE8F08FD4
:10ED000055A3D3E900235046594600F05DFB024667
:10ED10000B460020554900F0A3F9524606460F461F
:10ED20005B465046594600F04FFB02460B463046C4
:10ED3000394600F049FB06460F46002C40F09A8009
:10ED400002460B465046594600F08AF937E7002C38
:10ED500000F0A4802EA3D3E90023DDE9000100F038
:10ED600033FB42464B4604460D465046594600F09A
:10ED700077F9DDE9022300F027FB27A3D3E900237D
:10ED800006460F46DDE9000100F01EFB21E020A34E
:10ED9000D3E90023DDE9000100F016FB32463B46D3
:10EDA00004460D464046494600F05CF9DDE9022381
:10EDB00000F00AFB18A3D3E9002380468946DDE969
:10EDC000000100F001FB02460B464046494600F0B8
:10EDD00049F902460B463046394600F041F95246A1
:10EDE0005B4600F03DF902460B462046294600F0FE
:10EDF00037F905B0BDE8F08F02460B4600F030F958
:10EE00000022002300F00AFCD9E600200021D6E60B
:10EE10000000E0FE422EE63F763C7935EF39EA3DD0
:10EE200044523EDF12F1C23FDE03CB966446C73F39
:10EE3000599322942449D23F935555555555E53F52
:10EE40009FC678D0099AC33FAF788E1DC571CC3F5D
:10EE500004FA97999999D93F555555555555D53F28
:10EE600000005043FFFFEF7F0000F03F0000E03F55
:10EE7000000050C3204600F041FA0FA3D3E900235D
:10EE80008046894600F0A0FA0DA3D3E9002304468A
:10EE90000D464046494600F097FA9AE702460B466F
:10EEA0005046594600F0DCF8DDE9022300F08CFA08
:10EEB00014E700BFAFF300800000E0FE422EE63F03
:10EEC000763C7935EF39EA3D2DE9F8435D4EB6469B
:10EED0000E4076450C46054600F0958000290B460D
:10EEE000024673DD0F157ED0A7F2FF37C3F313037D
:10EEF000F80743F4801364D403EBD27100260B446B
:10EF00007F105200B64616204FF400110EEB01049C
:10EF10009C424FEAD2754FEA420203DC1B1B04EB12
:10EF2000010E0E44013805EB43034FEA5101EDD1C8
:10EF3000844620244FF0004109E020D003EBD27535
:10EF4000013C4FEA51012B444FEA420220D09E453A
:10EF500001EB0C05F1DA002D05EB010C09DBF046A5
:10EF60009542CEEB030300D9013B521B0844C64631
:10EF7000E4E7BCF1000FF2DB0EF10108F0E7954287
:10EF800017D8002D05EB010C47DB98460023ECE772
:10EF9000134310D14008731003F17F5303F500139E
:10EFA000F20703EB075948BF40F000404946BDE86F
:10EFB000F8837346C2E7411C33D000F001031844C4
:10EFC000E8E75B0003EBD273520095E721F00046BF
:10EFD0000643ECD069BB0F46D30A153F5205002B00
:10EFE000FAD0DD0220D4002100E001465B00DC0203
:10EFF00001F10100F9D5C0F1200422FA04F4234301
:10F000007F1A824070E702460B4600F0DDF92A467F
:10F01000234600F027F8BDE8F883BCF1000FABDA17
:10F02000B3E701362046B6E720244FF0FF31002039
:10F03000E3E702460B4600F013F802460B4600F0E9
:10F04000EDFAB4E70000F07F00207047002001498E
:10F05000704700BF0000F87F81F0004102E000BF70
:10F0600083F0004330B54FEA41044FEA430594EA88
:10F07000050F08BF90EA020F1FBF54EA000C55EAC3
:10F08000020C7FEA645C7FEA655C00F0E2804FEA94
:10F090005454D4EB5555B8BF6D420CDD2C4480EA76
:10F0A000020281EA030382EA000083EA010180EAA6
:10F0B000020281EA0303362D88BF30BD11F0004FF4
:10F0C0004FEA01314FF4801C4CEA113102D040422A
:10F0D00061EB410113F0004F4FEA03334CEA133365
:10F0E00002D0524263EB430394EA050F00F0A7807D
:10F0F000A4F10104D5F1200E0DDB02FA0EFC22FA78
:10F1000005F2801841F1000103FA0EF2801843FA6B
:10F1100005F359410EE0A5F120050EF1200E012A5C
:10F1200003FA0EFC28BF4CF0020C43FA05F3C0189A
:10F1300051EBE37101F0004507D54FF0000EDCF113
:10F14000000C7EEB00006EEB0101B1F5801F1BD3BC
:10F15000B1F5001F0CD349085FEA30004FEA3C0CC0
:10F1600004F101044FEA445212F5800F80F09A80B6
:10F17000BCF1004F08BF5FEA500C50F1000041EBBA
:10F18000045141EA050130BD5FEA4C0C404141EBBE
:10F19000010111F4801FA4F10104E9D191F0000FE5
:10F1A00004BF01460020B1FA81F308BF2033A3F168
:10F1B0000B03B3F120020CDA0C3208DD02F1140C5F
:10F1C000C2F10C0201FA0CF021FA02F10CE002F19A
:10F1D0001402D8BFC2F1200C01FA02F120FA0CFC93
:10F1E000DCBF41EA0C019040E41AA2BF01EB0451DC
:10F1F000294330BD6FEA04041F3C1CDA0C340EDCDA
:10F2000004F11404C4F1200220FA04F001FA02F31C
:10F2100040EA030021FA04F345EA030130BDC4F1DA
:10F220000C04C4F1200220FA02F001FA04F340EACF
:10F230000300294630BD21FA04F0294630BD94F080
:10F24000000F83F4801306BF81F480110134013D67
:10F250004EE77FEA645C18BF7FEA655C29D094EAD8
:10F26000050F08BF90EA020F05D054EA000C04BF56
:10F270001946104630BD91EA030F1EBF0021002041
:10F2800030BD5FEA545C05D14000494128BF41F0E0
:10F29000004130BD14F580043CBF01F5801130BD44
:10F2A00001F0004545F0FE4141F470014FF00000CF
:10F2B00030BD7FEA645C1ABF194610467FEA655C80
:10F2C0001CBF0B46024650EA013406BF52EA033522
:10F2D00091EA030F41F4002130BD00BF90F0000F10
:10F2E00004BF0021704730B54FF4806404F132044C
:10F2F0004FF000054FF0000150E700BF90F0000F05
:10F3000004BF0021704730B54FF4806404F132042B
:10F3100010F0004548BF40424FF000013EE700BFFB
:10F3200042004FEAE2014FEA31014FEA02701FBF8B
:10F3300012F07F4393F07F4F81F06051704792F05D
:10F34000000F14BF93F07F4F704730B54FF46074D7
:10F3500001F0004521F0004120E700BF50EA010222
:10F3600008BF704730B54FF000050AE050EA0102CF
:10F3700008BF704730B511F0004502D5404261EB3F
:10F3800041014FF4806404F132045FEA915C3FF480
:10F39000DCAE4FF003025FEADC0C18BF03325FEA19
:10F3A000DC0C18BF033202EBDC02C2F1200300FACE
:10F3B00003FC20FA02F001FA03FE40EA0E0021FAF3
:10F3C00002F11444C1E600BF70B54FF0FF0C4CF4DD
:10F3D000E06C1CEA11541DBF1CEA135594EA0C0F93
:10F3E00095EA0C0F00F0DEF82C4481EA030621EACE
:10F3F0004C5123EA4C5350EA013518BF52EA033509
:10F4000041F4801143F4801338D0A0FB02CE4FF0BA
:10F410000005E1FB02E506F00042E0FB03E54FF0EA
:10F420000006E1FB03569CF0000F18BF4EF0010EE2
:10F43000A4F1FF04B6F5007F64F5407404D25FEADE
:10F440004E0E6D4146EB060642EAC62141EA555191
:10F450004FEAC52040EA5E504FEACE2EB4F1FD0CD3
:10F4600088BFBCF5E06F1ED8BEF1004F08BF5FEA51
:10F47000500E50F1000041EB045170BD06F0004603
:10F4800046EA010140EA020081EA0301B4EB5C04B0
:10F49000C2BFD4EB0C0541EA045170BD41F48011A8
:10F4A0004FF0000E013C00F3AB8014F1360FDEBFCD
:10F4B000002001F0004170BDC4F10004203C35DAA9
:10F4C0000C341BDC04F11404C4F1200500FA05F32C
:10F4D00020FA04F001FA05F240EA020001F00042CD
:10F4E00021F0004110EBD37021FA04F642EB060143
:10F4F0005EEA430E08BF20EAD37070BDC4F10C046D
:10F50000C4F1200500FA04F320FA05F001FA04F230
:10F5100040EA020001F0004110EBD37041F100011C
:10F520005EEA430E08BF20EAD37070BDC4F1200527
:10F5300000FA05F24EEA020E20FA04F301FA05F28F
:10F5400043EA020321FA04F001F0004121FA04F237
:10F5500020EA020000EBD3705EEA430E08BF20EA07
:10F56000D37070BD94F0000F0FD101F00046400041
:10F5700041EB010111F4801F08BF013CF7D041EAC3
:10F58000060195F0000F18BF704703F000465200C7
:10F5900043EB030313F4801F08BF013DF7D043EA98
:10F5A0000603704794EA0C0F0CEA135518BF95EA4E
:10F5B0000C0F0CD050EA410618BF52EA4306D1D1D5
:10F5C00081EA030101F000414FF0000070BD50EAF4
:10F5D000410606BF1046194652EA430619D094EA7E
:10F5E0000C0F02D150EA013613D195EA0C0F05D168
:10F5F00052EA03361CBF104619460AD181EA0301BC
:10F6000001F0004141F0FE4141F470014FF0000073
:10F6100070BD41F0FE4141F4780170BD70B54FF00E
:10F62000FF0C4CF4E06C1CEA11541DBF1CEA13558E
:10F6300094EA0C0F95EA0C0F00F0A7F8A4EB050470
:10F6400081EA030E52EA03354FEA013100F0888067
:10F650004FEA03334FF0805545EA131343EA126330
:10F660004FEA022245EA111545EA10654FEA0026E5
:10F670000EF000419D4208BF964244F1FD0404F59E
:10F68000407402D25B084FEA3202B61A65EB0305FA
:10F690005B084FEA32024FF480104FF4002CB6EBB7
:10F6A000020E75EB030E22BFB61A754640EA0C0037
:10F6B0005B084FEA3202B6EB020E75EB030E22BF77
:10F6C000B61A754640EA5C005B084FEA3202B6EBB8
:10F6D000020E75EB030E22BFB61A754640EA9C0077
:10F6E0005B084FEA3202B6EB020E75EB030E22BF47
:10F6F000B61A754640EADC0055EA060E18D04FEA05
:10F70000051545EA16754FEA06164FEAC30343EAA4
:10F7100052734FEAC2025FEA1C1CC0D111F4801F71
:10F720000BD141EA00014FF000004FF0004CB6E76A
:10F7300011F4801F04BF01430020B4F1FD0C88BF09
:10F74000BCF5E06F3FF6AFAEB5EB030C04BFB6EB14
:10F75000020C5FEA500C50F1000041EB045170BD07
:10F760000EF0004E4EEA113114EB5C04C2BFD4EB34
:10F770000C0541EA045170BD41F480114FF0000EB8
:10F78000013C90E645EA060E8DE60CEA135594EA34
:10F790000C0F08BF95EA0C0F3FF43BAF94EA0C0F37
:10F7A0000AD150EA01347FF434AF95EA0C0F7FF4AC
:10F7B00025AF104619462CE795EA0C0F06D152EA00
:10F7C00003353FF4FDAE1046194622E750EA4106E4
:10F7D00018BF52EA43067FF4C5AE50EA41047FF4F5
:10F7E0000DAF52EA43057FF4EBAE12E74FF0FF3C5A
:10F7F00006E000BF4FF0010C02E000BF4FF0010C2B
:10F800004DF804CD4FEA410C7FEA6C5C4FEA430CA3
:10F8100018BF7FEA6C5C1BD001B050EA410C0CBFF2
:10F8200052EA430C91EA030F02BF90EA020F002054
:10F83000704710F1000F91EA030F58BF994208BFBB
:10F8400090422CBFD8176FEAE37040F00100704778
:10F850004FEA410C7FEA6C5C02D150EA013C07D1CF
:10F860004FEA430C7FEA6C5CD6D152EA033CD3D01A
:10F870005DF8040B704700BF8446104662468C4614
:10F880001946634600E000BF01B5FFF7B7FF002847
:10F8900048BF10F1000F01BD4DF808EDFFF7F4FF70
:10F8A0000CBF012000205DF808FB00BF4DF808EDFB
:10F8B000FFF7EAFF34BF012000205DF808FB00BF1E
:10F8C0004DF808EDFFF7E0FF94BF012000205DF840
:10F8D00008FB00BF4DF808EDFFF7CEFF94BF0120F5
:10F8E00000205DF808FB00BF4DF808EDFFF7C4FFEE
:10F8F00034BF012000205DF808FB00BF4FEA410C37
:10F900007FEA6C5C02D150EA013C0AD14FEA430C19
:10F910007FEA6C5C02D152EA033C02D14FF0000056
:10F9200070474FF0010070474FEA410212F5001294
:10F9300015D211D56FF47873B3EB625212D94FEA36
:10F94000C12343F0004343EA505311F0004F23FA20
:10F9500002F018BF404270474FF00000704750EA75
:10F96000013005D111F0004008BF6FF00040704732
:10F970004FF00000704700BF4A0011D212F500128C
:10F9800011D20DD56FF47873B3EB62520ED44FEAF7
:10F99000C12343F0004343EA505323FA02F0704777
:10F9A0004FF00000704750EA013002D14FF0FF30B5
:10F9B00070474FF0000070474FEA4102B2F1E04358
:10F9C00024BFB3F5001CDCF1FE5C0DD901F0004C46
:10F9D0004FEAC0024CEA5070B2F1004F40EB830096
:10F9E00008BF20F00100704711F0804F21D113F1C2
:10F9F0003872BCBF01F00040704741F480114FEAFB
:10FA00005252C2F11802C2F1200C10FA0CF320FA83
:10FA100002F018BF40F001004FEAC1234FEAD323A0
:10FA200003FA0CFC40EA0C0023FA02F34FEA43030A
:10FA3000CCE77FEA625307D150EA01331EBF4FF093
:10FA4000FE4040F44000704701F0004040F0FE40AE
:10FA500040F40000704700BF80F0004002E000BFAB
:10FA600081F0004142001FBF5FEA410392EA030FA9
:10FA70007FEA226C7FEA236C6AD04FEA1262D2EBF3
:10FA80001363C1BFD218414048404140B8BF5B42F8
:10FA9000192B88BF704710F0004F40F4000020F091
:10FAA0007F4018BF404211F0004F41F4000121F0A7
:10FAB0007F4118BF494292EA030F3FD0A2F10102F1
:10FAC00041FA03FC10EB0C00C3F1200301FA03F12F
:10FAD00000F0004302D5494260EB4000B0F5000F52
:10FAE00013D3B0F1807F06D340084FEA310102F111
:10FAF0000102FE2A51D2B1F1004F40EBC25008BFC3
:10FB000020F0010040EA03007047490040EB00008C
:10FB100010F4000FA2F10102EDD1B0FA80FCACF1BB
:10FB2000080CB2EB0C0200FA0CF0AABF00EBC250BA
:10FB300052421843BCBFD0401843704792F0000FA8
:10FB400081F4000106BF80F400000132013BB5E7FB
:10FB50004FEA41037FEA226C18BF7FEA236C21D071
:10FB600092EA030F04D092F0000F08BF08467047D6
:10FB700090EA010F1CBF0020704712F07F4F04D1A4
:10FB8000400028BF40F00040704712F100723CBFB7
:10FB900000F50000704700F0004343F0FE4040F4E1
:10FBA000000070477FEA226216BF08467FEA23639F
:10FBB0000146420206BF5FEA412390EA010F40F48A
:10FBC000800070474FF0000304E000BF10F00043D6
:10FBD00048BF40425FEA000C08BF704743F09643BD
:10FBE00001464FF000001CE050EA010208BF7047D8
:10FBF0004FF000030AE000BF50EA010208BF70475F
:10FC000011F0004302D5404261EB41015FEA010C73
:10FC100002BF84460146002043F0B64308BFA3F16B
:10FC20008053A3F50003BCFA8CF2083AA3EBC2534D
:10FC300010DB01FA02FC634400FA02FCC2F120026C
:10FC4000BCF1004F20FA02F243EB020008BF20F0A3
:10FC50000100704702F1200201FA02FCC2F1200209
:10FC600050EA4C0021FA02F243EB020008BF20EAFE
:10FC7000DC7070474FF0FF0C1CEAD0521EBF1CEA2C
:10FC8000D15392EA0C0F93EA0C0F6FD01A4480EA1A
:10FC9000010C400218BF5FEA41211ED04FF0006303
:10FCA00043EA501043EA5111A0FB01310CF000402F
:10FCB000B1F5000F3EBF490041EAD3715B0040EA55
:10FCC000010062F17F02FD2A1DD8B3F1004F40EB25
:10FCD000C25008BF20F00100704790F0000F0CF0F8
:10FCE000004C08BF49024CEA502040EA51207F3ABC
:10FCF000C2BFD2F1FF0340EAC250704740F4000097
:10FD00004FF00003013A5DDC12F1190FDCBF00F087
:10FD100000407047C2F10002410021FA02F1C2F135
:10FD2000200200FA02FC5FEA310040F1000053EAD1
:10FD30004C0308BF20EADC70704792F0000F00F01F
:10FD4000004C02BF400010F4000F013AF9D040EA25
:10FD50000C0093F0000F01F0004C02BF490011F4B9
:10FD6000000F013BF9D041EA0C018FE70CEAD153B7
:10FD700092EA0C0F18BF93EA0C0F0AD030F0004C37
:10FD800018BF31F0004CD8D180EA010000F00040EB
:10FD9000704790F0000F17BF90F0004F084691F0A9
:10FDA000000F91F0004F14D092EA0C0F01D14202E3
:10FDB0000FD193EA0C0F03D14B0218BF084608D1AC
:10FDC00080EA010000F0004040F0FE4040F40000F6
:10FDD000704740F0FE4040F4400070474FF0FF0C89
:10FDE0001CEAD0521EBF1CEAD15392EA0C0F93EAD0
:10FDF0000C0F69D0A2EB030280EA010C49024FEA22
:10FE0000402037D04FF0805343EA111143EA1013DA
:10FE10000CF000408B4238BF5B0042F17D024FF492
:10FE2000000C8B4224BF5B1A40EA0C00B3EB510F6D
:10FE300024BFA3EB510340EA5C00B3EB910F24BF56
:10FE4000A3EB910340EA9C00B3EBD10F24BFA3EBDB
:10FE5000D10340EADC001B0118BF5FEA1C1CE0D1A3
:10FE6000FD2A3FF650AF8B4240EBC25008BF20F056
:10FE7000010070470CF0004C4CEA50207F32C2BFAA
:10FE8000D2F1FF0340EAC250704740F400004FF047
:10FE90000003013A37E792F0000F00F0004C02BF78
:10FEA000400010F4000F013AF9D040EA0C0093F042
:10FEB000000F01F0004C02BF490011F4000F013B9C
:10FEC000F9D041EA0C0195E70CEAD15392EA0C0F04
:10FED00008D142027FF47DAF93EA0C0F7FF470AF3C
:10FEE000084676E793EA0C0F04D14B023FF44CAF7F
:10FEF00008466EE730F0004C18BF31F0004CCAD114
:10FF000030F000427FF45CAF31F000437FF43CAF4F
:10FF10005FE700BF4FF0FF3C06E000BF4FF0010C71
:10FF200002E000BF4FF0010C4DF804CD4FEA400253
:10FF30004FEA41037FEA226C18BF7FEA236C11D09D
:10FF400001B052EA530C18BF90EA010F58BFB2EB50
:10FF5000030088BFC81738BF6FEAE17018BF40F0D0
:10FF6000010070477FEA226C02D15FEA402C05D184
:10FF70007FEA236CE4D15FEA412CE1D05DF8040B09
:10FF8000704700BF844608466146FFE70FB5FFF79C
:10FF9000C9FF002848BF10F1000F0FBD4DF808ED54
:10FFA000FFF7F4FF0CBF012000205DF808FB00BF45
:10FFB0004DF808EDFFF7EAFF34BF012000205DF89F
:10FFC00008FB00BF4DF808EDFFF7E0FF94BF0120EC
:10FFD00000205DF808FB00BF4DF808EDFFF7D2FFE9
:10FFE00094BF012000205DF808FB00BF4DF808ED2C
:10FFF000FFF7C8FF34BF012000205DF808FB00BFF9
:020000021000EC
:100000004FEA4002B2F1FE4F0FD34FF09E03B3EB25
:1000100012620DD94FEA002343F0004310F0004F65
:1000200023FA02F018BF404270474FF000007047BB
:1000300012F1610F01D1420205D110F0004008BF5A
:100040006FF0004070474FF00000704742000ED242
:10005000B2F1FE4F0BD34FF09E03B3EB126209D403
:100060004FEA002343F0004323FA02F070474FF0B9
:100070000000704712F1610F01D1420202D14FF02E
:10008000FF3070474FF00000704700BF7BB972B976
:100090000029BEBF00204FF0004106E008BF002845
:1000A0001CBF6FF000414FF0FF3000F0B1B9ADF16F
:1000B000080C6DE904CE002909DB002B1ADB00F0E7
:1000C00035F8DDF804E0DDE9022304B07047404272
:1000D00061EB4101002B1BDB00F028F8DDF804E0A8
:1000E000DDE9022304B0404261EB4101524263EB7F
:1000F00043037047524263EB430300F017F8DDF807
:1001000004E0DDE9022304B0404261EB41017047A5
:10011000524263EB430300F009F8DDF804E0DDE947
:10012000022304B0524263EB430370472DE9F047CA
:100130008C460E460446089D002B50D18A42174635
:100140006CD9B2FA82FEBEF1000F0BD0CEF12004C2
:1001500020FA04F401FA0EF644EA060C02FA0EF74D
:1001600000FA0EF44FEA1749220CBCFBF9F01FFA13
:1001700087F809FB10C642EA064600FB08F3B342C3
:1001800009D9F61900F1FF3280F02281B34240F222
:100190001F8102383E44F61AA2B2B6FBF9F309FBFE
:1001A000136642EA064403FB08F8A04509D9E4199E
:1001B00003F1FF3280F00A81A04540F20781023B43
:1001C0003C44C8EB040443EA00400021002D62D007
:1001D00024FA0EF400232C606B60BDE8F0878B429C
:1001E00007D9002D55D0002185E841000846BDE81B
:1001F000F087B3FA83F1002940F09080B34202D334
:10020000824200F2F880841A66EB03060120B446AD
:10021000002D40D085E81010BDE8F08712B9012705
:10022000B7FBF2F7B7FA87FEBEF1000F35D1F31B2B
:100230004FEA17481FFA87FC0121B3FBF8F0220CA4
:1002400008FB103642EA06460CFB00F3B34207D91E
:10025000F61900F1FF3202D2B34200F2CE8010460E
:10026000F61AA2B2B6FBF8F308FB136642EA06449C
:100270000CFB03FCA44507D9E41903F1FF3202D2B9
:10028000A44500F2B5801346CCEB040443EA0040D9
:100290009CE729462846BDE8F087CEF1200106FA02
:1002A0000EF307FA0EF720FA01F94FEA1748CE408D
:1002B00049EA0309B6FBF8FA4FEA194408FB1A6643
:1002C0001FFA87FC44EA06430AFB0CF29A4200FA42
:1002D0000EF40AD9DB190AF1FF3180F087809A42C7
:1002E00040F28480AAF1020A3B449B1A1FFA89F962
:1002F000B3FBF8F108FB113349EA034301FB0CF6A9
:100300009E4207D9DB1901F1FF326BD29E4269D9B7
:1003100002393B449B1B41EA0A418EE7C1F1200EA2
:1003200022FA0EF48B40234320FA0EF706FA01F46A
:100330004FEA134C26FA0EF63C43B6FBFCF9270CA9
:100340000CFB19661FFA83F847EA064609FB08F713
:10035000B74202FA01F200FA01FA08D9F61809F1D7
:10036000FF3041D2B7423FD9A9F102091E44F61B22
:10037000A0B2B6FBFCF40CFB146640EA064704FB93
:1003800008F8B84507D9FF1804F1FF3028D2B8455E
:1003900026D9023C1F4444EA0940C8EB0707A0FBEA
:1003A00002894F4544464E4614D329D065B3BAEB73
:1003B000040367EB060707FA0EFECB40CF404EEA78
:1003C000030385E888000021BDE8F0871346F8E6BE
:1003D0001046E0E6B8EB020469EB03060138E5E7F6
:1003E0000446D8E7114695E78146C0E78A467CE790
:1003F000023B3C4448E708460AE702383E442FE700
:10040000C245E7D33E46D1E72946BDE8F08700BFA5
:10041000704700BF0B460146184600F009B800BF00
:100420000A22002102F0EABC0A22002102F0E6BC06
:1004300013460A460146022005F02EB8014B186803
:10044000704700BF509AFF1F70B50F4E0F4D761BBF
:10045000B61018BF002405D0013455F8043B984766
:10046000A642F9D10A4E0B4D761B09F055FEB61087
:1004700018BF002406D0013455F8043B9847A64223
:10048000F9D170BD70BD00BF40A1010040A10100C5
:1004900058A1010040A1010010B5044600F042F847
:1004A0002044407800F0070010BD00BF10B504469E
:1004B00000F038F82044407800F0030010BD00BF81
:1004C00010B5044600F02EF82044407800F0970064
:1004D00010BD00BF10B5044600F024F82044407859
:1004E00000F0440010BD00BF034A044B1268506B7B
:1004F000002808BF18467047509AFF1F549AFF1FE4
:10050000044B054A1B685B6B002B08BF134693F82E
:1005100028017047509AFF1F549AFF1FD0F8EC0033
:10052000704700BF08B5034B1868FFF7DDFFD0F830
:10053000EC0008BD509AFF1F024B0146186800F0FE
:100540000BB800BF509AFF1F024B0146186806F017
:1005500029B800BF509AFF1F2DE9F04F01F10B059C
:10056000162D83B0064640F29F8035F0070500F156
:10057000BF80A94200F2BC8000F06EFBB5F5FC7FA5
:10058000C0F09C826B0A00F0BA80042B00F28381D9
:10059000A80900F1390E4FEA4E033830C44F07EB7B
:1005A0008303A3F108015C68A14207D1ACE0002AF3
:1005B00080F2AC80E468A14200F0A680636823F07A
:1005C00003035A1B0F2AF2DDB9493C6901F1080EF9
:1005D000744500F0B381636823F003035A1B0F2AAC
:1005E00000F39981002AC1F814E0C1F810E080F20C
:1005F0009E80B3F5007F80F06781DB0803F1010C7A
:1006000001229B1002FA03F34A6851F83C80C4F8B7
:10061000088001EBCC091A43A9F10803E3604A60A2
:1006200041F83C40C8F80C40831001249C4094429F
:1006300000F28A80144206D120F0030064001442C4
:1006400000F10400FAD007EBC009CC468046DCF884
:100650000C108C4507D173E1002A80F28181C968B2
:100660008C4500F06D814B6823F003035A1B0F2A61
:10067000F2DD0C46D1F80CC054F8088F4B1945F048
:1006800001054D6042F00101C8F80CC03046CCF8BD
:1006900008807B613B61C3F80CE0C3F808E0596057
:1006A0009A5000F0DBFA1FE0102921D800F0D4FAAC
:1006B0001025062302207E4F07EB8303A3F10802D7
:1006C0005C68944200F045816368E168A56823F0A6
:1006D0000303234430465A68E96042F001028D600A
:1006E0005A6000F0BBFA0834204603B0BDE8F08F32
:1006F00000240C232046336003B0BDE8F08F802334
:100700004FF0400E3F2049E770465DE72344E16823
:100710005A68A56842F00102E96030468D605A606F
:1007200000F09CFA0834204603B0BDE8F08F234463
:1007300030465A6842F001025A6000F08FFA0834DD
:10074000204603B0BDE8F08FBC68636823F003085F
:10075000A84504D3C5EB08030F2B00F38C80554B41
:10076000DFF860911A68D9F8003001332A4404EBAD
:10077000080A00F0608102F580520F3222F47F6295
:1007800022F00F0211463046019200F027FFB0F12F
:10079000FF3F8346019A00F05881824500F2FC80B9
:1007A000454B1968DA451144196000F05381D9F8B6
:1007B0000000DFF810E101301BBFCAEB0B0A514407
:1007C000CEF800B019601BF0070100F01781C1F1ED
:1007D0000800C1F58051834408315A44C2F30B022A
:1007E000C2EB010949463046019300F0F7FE431C75
:1007F000019B00F03F81CBEB00024A4442F0010232
:100800001968C7F808B04944BC42CBF80420196005
:10081000DFF8A49016D0B8F10F0F40F2FD806268A7
:10082000A8F10C0323F00703E01802F001024FF0D7
:10083000050E1A430F2B6260C0F804E0C0F808E010
:1008400000F21C811D4BBC681A68914288BF196078
:100850001B4B1A689142626888BF196022F003023C
:100860009542A2EB050301D80F2B04DC304600F0C3
:10087000F5F9002438E7621943F0010345F001055A
:1008800065603046BA60536000F0E8F908342046ED
:1008900003B0BDE8F08F142B71D9542B00F2A48063
:1008A000280B00F16F0E4FEA4E036E3076E600BF64
:1008B000C09BFF1F38A6FF1F3CA6FF1F34A6FF1FCB
:1008C00030A6FF1FCC9FFF1F5A0A042A5ED9142AA4
:1008D00000F2B38002F15C0149005B3207EB810C4E
:1008E00057F82110DFF8DC81ACF1080C8C4500F0E2
:1008F00088804A6822F00302934202D289688C45BC
:10090000F7D1D1F80CC07A68C4F80CC0A160CCF85B
:100910000840CC6088E6631942F0010745F0010504
:10092000656030464B610B61C3F80CE0C3F808E02A
:100930005F609A50083400F091F9D5E64A6873E692
:1009400008F1010818F0030F0CF1080C7FF47FAEDA
:1009500030E0DC68A34208BF02303FF435AEB3E6B6
:100960000B440C465A68C96854F8085F42F001020B
:100970005A603046E9608D6000F070F9B4E603F12A
:100980005C0E03F15B004FEA4E0307E69A0902F1A1
:10099000390149003832A1E7BC424A4B3FF400AF6D
:1009A0009C68626822F003025AE759F808399945B1
:1009B00040F0828010F0030F00F1FF30F5D17B682A
:1009C00023EA04037B6064009C423FF6BDAE002C2A
:1009D0003FF4BAAE1C4240467FF435AE64001C4280
:1009E00000F10400FAD02EE6B3F5AA7F18D8E80B80
:1009F00000F1780E4FEA4E037730CFE54FF4805187
:100A0000EBE60121D8F80430921001FA02F21A4301
:100A1000C8F80420614677E70123CBF8043025E7C6
:100A200040F25452934220D8A80C00F17D0E4FEAB8
:100A30004E037C30B2E51032A4E6542A26D81A0BB5
:100A400002F16F0149006E3248E7BC68626822F02B
:100A5000030205E7CAF30B0000287FF4A8AE424466
:100A6000BB6842F001025A60ECE6FE234FF07F0EB5
:100A70007E2093E501224FF00009C1E604F1080150
:100A8000304605F08FFDD9F80010DBE6B2F5AA7FFD
:100A900005D8DA0B02F17801490077321EE740F2FF
:100AA00054518A4205D89A0C02F17D0149007C32EA
:100AB00014E7FE217E2211E77B6884E7E808431CE7
:100AC0005B00F8E5C09BFF1F82B049B15AB16BB122
:100AD00013780B601278101C18BF012002B0704709
:100AE00001A9002AF3D1104602B070476FF001004F
:100AF000F4E700BF8842F0B50DD98B1898420AD2AE
:100B00008118002A51D09A1A13F8014D01F8014DAD
:100B10009342F9D1F0BD0F2A48D941EA00039B075F
:100B200046D100F1100401F11003154653F8106C82
:100B300044F8106C53F80C6C44F80C6C53F8086CC7
:100B400044F8086C103D53F8046C44F8046C0F2D05
:100B500003F1100304F11004E8D8A2F1100323F00C
:100B60000F0302F00F0E1033BEF1030F19440344BC
:100B700021D91E1F0D467446043C55F8047B46F8E7
:100B8000047F032CF8D8AEF1040424F003040434E9
:100B90002344214402F0030262B1013B0A4411F8EC
:100BA000014B03F8014F8A42F9D1F0BD0346F3E748
:100BB0000346F2E7F0BD7246EEE700BF70B484076B
:100BC00046D0541E002A41D0CDB2034602E0621E38
:100BD000E4B3144603F8015B9A07F8D1032C2ED92D
:100BE000CDB245EA05250F2C45EA054519D903F193
:100BF00010022646103E0F2E42F8105C42F80C5CA4
:100C000042F8085C42F8045C02F11002F2D8A4F148
:100C1000100222F00F0204F00F041032032C1344D0
:100C20000DD91E462246043A032A46F8045BFAD838
:100C3000221F22F003020432134404F003042CB1F7
:100C4000C9B21C4403F8011BA342FBD170BC70471E
:100C500014460346C2E700BF704700BF704700BF9D
:100C60002DE9F04F154689B002EB420206461F46B9
:100C700053000793B2074FEA95030391029355D1AE
:100C8000AB0753D1039BB5F1040A18BF4FF0010A1B
:100C9000062B50D9039A5308072A05FB036B40F033
:100CA0000581079BF418BAF1000F40F01C813268EF
:100CB000DBF800103160CBF8002073194FF0000909
:100CC0005A19059304934B4606920192A1469B46FE
:100CD000019BC5EB030844456AD25B46CB46002B1B
:100CE00000F01982049A039BC2EB0801921B8A420E
:100CF000A8BF0A4605FB0369002A40F01881CBEB28
:100D00000902C4EB0B04531BA34228BF2346002B4C
:100D100040F038818D42C0F00281A54245D2B4FB3B
:100D2000F5F3C4EB0906B2070393A9D0039B062B86
:100D30004FF0020AAED805FB036306EB05089845A1
:100D4000019332D26C42234654469A46464528D2F5
:100D5000C1460AE0D9F80030DBF80010C9F80010ED
:100D6000CBF800305E45D9461BD209EB0A0B58463A
:100D70004946B847002814DD002CEBD0012C00F0C8
:100D8000148229465B46013999F8000093F800E087
:100D900009F801EB002903F8010BF4DC5E45D946A4
:100DA000E3D3019BA8449845D0D309B0BDE8F08FA8
:100DB00031464046B84700280DDC58E02368D9F892
:100DC00000202260C9F80030C5EB09094FF0010B83
:100DD000641B444581D331462046B847002814DBC4
:100DE000F6D1BAF1000FE9D0BAF1010F20D02946AF
:100DF0004A4623460139187892F800E003F801EBDF
:100E0000002902F8010BF5DCDEE74445FFF465AF8D
:100E1000BAF1000F1BD1D8F800302168C8F80010D3
:100E20002360641B4FF0010B019B2B4401934FE7A0
:100E3000029B48462146A646013B0A68046841F8E1
:100E4000044B002B40F8042BF6DC7446BCE7BAF1E7
:100E5000010F1ED029462346013998F80020187842
:100E600008F8010B002903F8012BF5DCD9E7DBD1E9
:100E7000BAF1000F40F0DE80049AD8F80010136831
:100E80001160C8F80030049B2B4404934FF0010B11
:100E9000CAE7029B2046013BD8F80020016848F8C9
:100EA000041B002B40F8042BF5DCBAE7039A541E10
:100EB000282A05FB046478D8A146B0465946404626
:100EC000B8470028494658461EDBB84700283FF778
:100ED000EAAE49464046B84700281EDBCB46BAF189
:100EE000000F3FF4E4AEBAF1010F00F0CF802946C5
:100EF0003246013913789BF8000002F8010B0029F3
:100F00000BF8013BF5DCD8E6B8470028FFF6CBAE7E
:100F100049464046B8470028E0DBC346C3E6B1FB7C
:100F2000F5F130463B462A46FFF79AFEF5E6BAF160
:100F3000020FC2EB080040F08D80B646013A9EF8E1
:100F4000003090F800C00EF801CB002A00F8013BF9
:100F5000F4DCCBEB0902C4EB0B04531BA34228BF08
:100F60002346002B3FF4D6AEC3EB0900013B98F8B3
:100F7000002090F800E008F801EB002B00F8012BAE
:100F8000F4DCC7E6BAF1020FC3EB0900EED09B0810
:100F90008E46013BD8F80020016848F8041B002B5E
:100FA00040F8042BF5DC7146B4E64FEAD20905FBA4
:100FB00009F306EB03080193414608EB03093046A9
:100FC0005B000593B847002849464046C0F2978029
:100FD000B847002840F30281019AC2EB0B0359463F
:100FE00018460BEB02090493B847002849465846B7
:100FF00076DBB847002840F3E580059B019AE31AA9
:101000001A441146184691460493B84700282146D1
:10101000484648DBB84700283FF750AFDDF810904E
:1010200021464846B8474B4613EA200338BF2346BB
:10103000994643E7BAF1010F45D0049B294601398F
:101040001A7898F8000003F8010B002908F8012B22
:10105000F5DC18E79208B6468C46013ADEF8003017
:1010600001684EF8041B002A40F8043BF5DCCBEB8A
:101070000902C4EB0B04531BA34228BF234661465D
:10108000002B3FF447AEC3EB090080E7029A3046DD
:10109000013A0368DBF8001040F8041B002A4BF803
:1010A000043BF5DC09E6B8470028FFF607AFDDF89A
:1010B000109021464846B8474B4633EA200328BFE4
:1010C00023469946FAE60498029B0268D8F8001075
:1010D00040F8041B013B002B48F8042BF5DCD2E65A
:1010E000B847002889DBDDF810B049465846B847B4
:1010F0005B4633EA200328BF4B469B467DE7B84753
:101100000028FFF669AF49463046B84736EA20085E
:1011100028BFC84660E7039B05FB0364059B9C4210
:101120007FF643AE0194DDF814905446DDF818A024
:10113000C5F100084E4512D209EB080B5846494646
:10114000B84700280BDD8CB9D9F80030DBF8001067
:10115000C9F80010CBF80030D9464E45ECD3019BBE
:101160005345D1467FF621AEAA44E3E7012C0ED0C9
:1011700029465B46013999F8000093F800E009F828
:1011800001EB002903F8010BF4DCD946E5E7029BEB
:101190005846013BD9F80020016849F8041B002B90
:1011A00040F8042BF5DCD946D7E7029B5846013BB3
:1011B000D9F80020016849F8041B002B40F8042BE3
:1011C000F5DCCFE5DDF810B049465846B8475B4638
:1011D00013EA200338BF4B469B460EE7494630468C
:1011E000B84739EA200828BFB046F5E6024B0A4660
:1011F0000146186800F002B8509AFF1F2DE9F04F21
:10120000174683B0002900F0C1800E46814607F1E1
:101210000B05FFF721FD56F804EC162D2EF0030404
:10122000A6F1080840D810221546AF4241D8944292
:1012300075DAC94B996808EB04008842416800F0F0
:10124000D98021F0010303445B68DB077DD51EF0E4
:10125000010F35D039464846FFF77EF90746E0B121
:1012600056F8043C23F001034344A0F108029A42DB
:1012700000F04481221F242A00F23181132A00F257
:1012800004810346324611681960516859609268BA
:101290009A603146484605F085F94846FFF7DEFC7E
:1012A000384603B0BDE8F08F25F00705002D2A462B
:1012B000BBDA0C230020C9F8003003B0BDE8F08F82
:1012C00056F8083CC3EB080ADAF8043023F0030CA4
:1012D00004EB0C039342BDDB5746DAF80C1057F8C9
:1012E000080F221F242AC160886000F21781132A88
:1012F00040F212813168CAF808107168CAF80C10FF
:101300001B2A00F22B8108360AF1100231681160A5
:1013100071685160B16891603E461C46D046631BBF
:101320000F2B1DD8D8F8043003F0010323434444A5
:10133000C8F80430636843F0010363604846FFF770
:101340008DFC304603B0BDE8F08F21F0030121444D
:10135000914221DBC36882680C46D3609A60DEE765
:10136000D8F8042008EB050102F00102154343F010
:1013700001020B44C8F804504A605A6842F0010266
:1013800008315A60484605F00DF9D7E7114603B019
:10139000BDE8F04FFFF7E0B81EF0010F7FF45AAF41
:1013A00056F8083CC3EB080ADAF8043023F0030CC3
:1013B00001EB0C0E96458BDBC36882685746D36001
:1013C0009A6057F8081FDAF80C30CB60221F242AE5
:1013D000996000F29980132A62D93368CAF80830FC
:1013E0007368CAF80C301B2A00F2A08008360AF194
:1013F000100356E021F0030BA34405F110008345D0
:1014000059DA1EF0010F7FF425AF56F8081CC1EB26
:10141000080ADAF8041021F0030CE34458453FF7BA
:1014200057AF5746DAF80C1057F8080F221F242A36
:10143000C160886000F2B480132A40F2A580316850
:10144000CAF808107168CAF80C101B2A00F2AF80A5
:1014500008360AF110023168116071685160B16894
:1014600091600AEB0501C5EB0B0242F001029960A5
:101470004A60DAF8043003F001031D434846CAF815
:101480000450FFF7EBFB38465CE733680360736892
:1014900043601B2A27D800F1080306F10802F2E690
:1014A0003B4632681A6072685A60B2689A603E467B
:1014B0007446D04633E708EB0501C5EB0B0B4BF048
:1014C000010299604A6056F8043C03F001031D4391
:1014D000484646F8045CFFF7C1FB304632E7314628
:1014E000FFF708FBD5E6B3688360F368C360242A7E
:1014F00028D000F1100306F11002C4E650F8043CB5
:1015000023F003031C440AE7314638467446D046AC
:10151000FFF7F0FA3E4602E73A46F7E6314638462C
:101520001C46D046FFF7E6FA3E46F8E6B368CAF82E
:101530001030F368CAF81430242A1BD010360AF190
:101540001803AEE7336903617369436106F118025A
:1015500000F1180397E600BFC09BFF1FB168CAF8EF
:101560001010F168CAF81410242A0FD010360AF1AE
:101570001802CBE63369CAF818307369CAF81C3010
:1015800018360AF120038CE73A4664E73269CAF854
:1015900018207269CAF81C2018360AF12002B5E634
:1015A000314638460193FFF7A5FA019B59E7B16828
:1015B000CAF81010F168CAF81410242A03D01036A3
:1015C0000AF1180247E73269CAF818207269CAF8A6
:1015D0001C2018360AF120023DE700BF38B5074C41
:1015E0000023054608462360FAF758FA431C00D04A
:1015F00038BD2368002BFBD02B6038BD8CA6FF1FA5
:101600000CB4F0B5244B00299DB01D683EDB4FF4AF
:1016100002730C4602900690ADF8143023AE17D03A
:101620004C1E229A049433464FF6FF7702A92846AF
:1016300007940196ADF8167001F0F6FB421C1BDB17
:10164000029B00221A701DB0BDE8F04002B0704746
:1016500033464FF6FF77229A049402A9284607944E
:101660000196ADF8167001F0DFFB431C07DB1DB0DF
:10167000BDE8F04002B070478B232B60E0E78B237E
:101680002B601DB0BDE8F04002B070478B232B608B
:101690004FF0FF30EBE700BF509AFF1F0EB4F0B5DC
:1016A0009CB021AC4FF4017254F8046BADF81420D7
:1016B0000290069000F064FA0C4B01940546324605
:1016C0000B4F1868039523464FF6FF76002402A9B6
:1016D00007950A970E941394ADF8166002F0FCFE7D
:1016E0001CB0BDE8F04003B0704700BF509AFF1F28
:1016F000F51601000020704770B411F0FF0434D0DB
:1017000085070FD00378002B5AD09C422BD0431C66
:1017100005E013F8012B002A4FD0944223D09A07FA
:101720001846F6D10E0206F47F462643036846EAC1
:10173000064601E050F8043F86EA0305A5F10132B0
:10174000A3F1013122EA050221EA0303134313F056
:10175000803FEFD0037823B932E010F8013F002B2F
:101760002ED09C42F9D170BC704784070BD003780F
:10177000002BF8D0431C03E002780133002AF2D09A
:1017800099071846F8D10268A2F1013323EA02034F
:1017900013F0803F08D150F8042FA2F1013323EA5F
:1017A000020313F0803FF6D00378002BDBD010F853
:1017B000013F002BFBD170BC7047104670BC7047D6
:1017C000184670BC704700BFFFFFFFFFFFFFFFFF21
:1017D000FFFFFFFFFFFFFFFFFFFFFFFFFFFFFFFF19
:1017E000A2EB0300704700BF02780B78012A28BFE4
:1017F0009A42F5D16DE9044540EA0104CDE902675A
:101800006FF0000C4FEA447212B380EA010414F046
:10181000070F6AD100F0070420F0070004F0030569
:1018200021F007014FEAC505F0E8042314F0040F86
:10183000F1E804670CFA05F462EA040266EA0406B9
:101840000AD063EA0403624667EA0407664603E0D7
:10185000F0E80423F1E8046782FA4CF582EA060412
:10186000A4FA8CF46CBB83FA4CF583EA0705A5FA5D
:101870008CF595B950E9022351E9026782FA4CF5DB
:1018800082EA0604A4FA8CF483FA4CF583EA07058D
:10189000A5FA8CF52543DBD09CB92DBAB5FA85F4B1
:1018A00024F0070427FA04F1DDE9026723FA04F3C0
:1018B00003F0FF0001F0FF01FDE80445A0EB01008B
:1018C000704724BAB4FA84F424F0070426FA04F129
:1018D000DDE9026722FA04F202F0FF0001F0FF01E5
:1018E000FDE80445A0EB0100704714F0030F3CD164
:1018F00010F0030428D150F8082B51F8083B82FA65
:101900004CF582EA0305A5FA8CF55DB950F8042C74
:1019100051F8043C82FA4CF582EA0305A5FA8CF5ED
:10192000002DE8D02DBAB5FA85F424F0070423FA87
:1019300004F122FA04F202F0FF0001F0FF01FDE8D9
:101940000445A0EB010070474FEAC40420F00300F7
:1019500050F8082B21F0030151F8083B0CFA04F46D
:1019600062EA040263EA0403C9E710F003041AD030
:10197000A1EB040120F00300E40750F8042B06D08B
:101980000FD28B785FFAA2F4E41A06D12BB1CB7890
:101990005FFAB2F4E41A00D11BB920465DF8104B8F
:1019A000704701F1040150F8042BCC0721F003012A
:1019B00051F8043B48D824D222F07F4482FA4CF5F7
:1019C00094EA1325A5FA8CF50AD165B951F8043BC0
:1019D00084EA0204B4EB036F0ED150F8042BEBE75A
:1019E0004FEA132355E035F07F454DD10878FDE8E7
:1019F0000445C0F1000070474FEA126203F0FF0394
:101A000047E002EA1C4482FA4CF594EA1345A5FA31
:101A10008CF50AD165B951F8043B84EA0204B4EBB1
:101A2000034F0CD150F8042BEBE74FEA134330E09F
:101A300015EA1C4528D10B884FEA124229E04FEAEB
:101A4000124203EA1C4324E002F0FF0482FA4CF540
:101A500094EA1365A5FA8CF50AD165B951F8043BEF
:101A600084EA0204B4EB032F09D150F8042BEBE70E
:101A70004FEA13630DE015F0FF0F05D10B684FEA35
:101A8000122223F07F4304E04FF00000FDE80445FC
:101A9000704712BA1BBA82FA4CF482EA0304A4FA21
:101AA0008CF5B5FA85F402FA04F203FA04F34FEA6E
:101AB0001260FDE80445A0EB1360704780EA010264
:101AC000844612F0030F4FD111F0030F32D14DF8BD
:101AD000044D11F0040F51F8043B0BD0A3F1013277
:101AE0009A4312F0803F04BF4CF8043B51F8043B8A
:101AF00016D100BF51F8044BA3F101329A4312F002
:101B0000803FA4F101320BD14CF8043BA24312F008
:101B1000803F04BF51F8043B4CF8044BEAD0234605
:101B20000CF8013B13F0FF0F4FEA3323F8D15DF8B7
:101B3000044B704711F0010F06D011F8012B0CF87F
:101B4000012B002A08BF704711F0020FBFD031F8F7
:101B5000022B12F0FF0F16BF2CF8022B8CF800207E
:101B600012F47F4FB3D1704711F8012B0CF8012B01
:101B7000002AF9D1704700BFFFFFFFFFFFFFFFFF03
:101B800090F800F06DE9024520F007016FF0000CBD
:101B900010F0070491F820F040F049804FF0000465
:101BA0006FF00700D1E9002391F840F000F1080040
:101BB00082FA4CF2A4FA8CF283FA4CF3A2FA8CF378
:101BC0004BBBD1E9022382FA4CF200F10800A4FADF
:101BD0008CF283FA4CF3A2FA8CF3E3B9D1E9042333
:101BE00082FA4CF200F10800A4FA8CF283FA4CF36A
:101BF000A2FA8CF37BB9D1E9062301F1200182FA24
:101C00004CF200F10800A4FA8CF283FA4CF3A2FA29
